:020000040800F2
:1000000098140010F5020008D1350008C935000821
:10001000CD35000875180008413B000800000000BD
:10002000000000000000000000000000A1360008F1
:100030007918000800000000413600081537000854
:100040001903000819030008190300081903000820
:100050001903000819030008190300081903000810
:100060001903000819030008190300081903000800
:1000700019030008190300081903000819030008F0
:1000800019030008190300081903000819030008E0
:1000900019030008190300081903000819030008D0
:1000A00019030008190300081903000819030008C0
:1000B0001903000841370008190300081903000854
:1000C00019030008190300081903000819030008A0
:1000D00019030008313B0008190300081903000840
:1000E0001903000819030008190300081903000880
:1000F0001903000819030008190300081903000870
:10010000190300081903000819030008190300085F
:10011000190300081903000819030008190300084F
:10012000190300081903000819030008190300083F
:10013000190300081903000819030008190300082F
:10014000190300081903000819030008190300081F
:10015000190300081903000819030008190300080F
:1001600019030008190300081903000819030008FF
:100170001903000819030008190300080000000013
:10018000190300081903000800F002F800F0A2F8B3
:100190000AA090E8000C82448344AAF10107DA45E2
:1001A00001D100F097F8AFF2090EBAE80F0013F092
:1001B000010F18BFFB1A43F001031847C8210100C3
:1001C000F82101000A4410F8014B14F00F0508BF94
:1001D00010F8015B240908BF10F8014B6D1E05D013
:1001E00010F8013B6D1E01F8013BF9D1641E03D0EC
:1001F000641E01F8015BFBD19142E4D3704700001B
:100200000023002400250026103A28BF78C1FBD81F
:10021000520728BF30C148BF0B6070476E2900F0FD
:100220005B83702900F0A984662911F01483652985
:1002300011F01183672911F00E83612911F00D83EC
:1002400003681B0A28BF41F08001692900F0088378
:10025000642900F00583752900F002836F2900F0FE
:100260003784782900F07584E92900F0D183E429E6
:1002700000F0CE83F52900F0CB83EF2900F0348421
:10028000F82900F074840368DB0928BF41F080017D
:10029000632901F0B381732901F0B881E32901F0EA
:1002A000C381F32901F0C881002070471FB511F008
:1002B000C5FA01F01BFA04000020002111F064F9D6
:1002C000401C60600020002111F048F9E0601FBD73
:1002D00010B510BD01F0DCF91146FFF7E7FF07F09C
:1002E00063FA01F0B9FA03B4FFF7F2FF03BC03F0BD
:1002F00089FC00000C48016841F4700101600B4862
:1003000080470B480047FEE7FEE7FEE7FEE7FEE713
:10031000FEE7FEE7FEE7FEE7FEE7000005480649C8
:10032000044A064B7047000088ED00E02D370008B6
:1003300089010008981000109814001098100010FF
:10034000704753EA020C00F069802DE9F04B4FF042
:100350000006002B1FBFB3FA83F503FA05F424FA55
:1003600005F65E4012BF1643B2FA82F502FA05F4B2
:10037000C5F120051EBF22FA05FC44EA0C04203515
:1003800056EA044C4FEA144418BF641C4FF00008AE
:100390004FF00009904271EB030C39D3002919BFCB
:1003A000B1FA81F701FA07F6B0FA80F700FA07F61A
:1003B000C7F120071EBF20FA07FC46EA0C062037CB
:1003C000B6FBF4FCA7EB0507103F07F01F0BCBF1C2
:1003D00020062CFA06F60CFA0BFB44BFB3460026A7
:1003E000202FA4BF5E464FF0000B5BEA060C08BF4F
:1003F0004FF0010B19EB0B0948EB0608ABFB027C35
:1004000006FB02CC0BFB03CCC01B71EB0C01C1E75C
:100410000B46024641464846BDE8F08B13B50843FB
:1004200018BF4FF0FF300146AFF30080BDE81C401D
:10043000704700000FB4044910B503AA029800F0F9
:1004400077FA10BC5DF814FB5C04001040EA01036D
:10045000024630B59B0710D14FF0013400E008C2CE
:1004600008C91D1B9D4315EAC41FF8D013F0FF01F6
:1004700002F8011B0DD01B0AF8E711F8013B002B15
:1004800002F8013B05D011F8013B002B02F8013BBB
:10049000F3D130BD10B5431C02E010F8011B71B15F
:1004A0008107FAD14FF0013202C88C1A8C4314EA4A
:1004B000C211F9D0C01A0A0603D0C01E10BDC01A5E
:1004C00010BD0A0401D0801E10BD0902FCD0401EE0
:1004D00010BD032A40F2308010F0030C00F01580AC
:1004E00011F8013BBCF1020F624498BF11F801CB37
:1004F00000F8013B38BF11F8013BA2F1040298BF9C
:1005000000F801CB38BF00F8013B11F0030300F005
:100510006B80083AC0F0088051F8043B083A51F863
:1005200004CBA0E80810F5E7121D5CBF51F8043BAE
:1005300040F8043BAFF30080D20724BF11F8013B21
:1005400011F801CB48BF11F8012B24BF00F8013B83
:1005500000F801CB48BF00F8012B7047431A28BFB1
:100560009A427FF6B6AF10441144032A40F2268027
:1005700010F0030F1EBF11F8013D521E00F8013D9F
:1005800010F0030F7FF4F6AF11F0030300F0D783F0
:10059000083AC0F00B8051F8043D083A51F804CDF8
:1005A00040F8043D40F804CDFFF7F3BF121D5CBFD7
:1005B00051F8043D40F8043DAFF30080D20724BF5A
:1005C00011F8013D11F801CD48BF11F8012C24BFED
:1005D00000F8013D00F801CD48BF00F8012C70473C
:1005E00001B5FFF776FF01BD10B5203AC0F00B80D2
:1005F000B1E81850A0E81850B1E81850A0E8185019
:10060000203ABFF4F5AF5FEA027C24BFB1E818508E
:10061000A0E8185044BF18C918C0BDE810405FEAF0
:10062000827C24BF51F8043B40F8043B08BF70476C
:10063000D20728BF31F8023B48BF11F8012B28BF71
:1006400020F8023B48BF00F8012B704701B501F0CC
:10065000FF03114643EA032242EA024200F013F884
:1006600001BD02F0FF0343EA032242EA024200F026
:100670000AB802F0FF0343EA032242EA024200F012
:1006800024B84FF000020429C0F0128010F0030CCF
:1006900000F01B80CCF1040CBCF1020F18BF00F875
:1006A000012BA8BF20F8022BA1EB0C0100F00DB824
:1006B0005FEAC17C24BF00F8012B00F8012B48BF82
:1006C00000F8012B70474FF0000200B51346944626
:1006D0009646203922BFA0E80C50A0E80C50B1F19A
:1006E0002001BFF4F7AF090728BFA0E80C5048BFAE
:1006F0000CC05DF804EB890028BF40F8042B08BF4C
:10070000704748BF20F8022B11F0804F18BF00F847
:10071000012B70470000000030B44FF0013C50F84E
:10072000042B51F8043BCCFA52F4D51A20D1FCB971
:1007300050F8042B51F8043BCCFA52F4D51A17D1D7
:10074000B4B950F8042B51F8043BCCFA52F4D51A42
:100750000ED16CB950F8042B51F8043BCCFA52F48A
:10076000D51A05D1002CDAD030BC4FF0000070470C
:1007700029BAB1FA81F111F01801D1F120008440B9
:10078000F2D1CA40CB4012F0FF0213F0FF0330BC9D
:10079000D01A7047704770477047704770B504466D
:1007A00085690068C10601D5302600E02026C00713
:1007B00007D070BDD4E9012130469047206A401C23
:1007C00020626D1EF6D570BD70B50446856900784F
:1007D000C00707D170BDD4E9012120209047206ACD
:1007E000401C20626D1EF6D570BD09684A0501D512
:1007F00040B27047C905FCD500B2704709684A0588
:1008000001D5C0B27047C905FCD580B2704770B53C
:100810000C460546012A05D02878800600D5EA69ED
:10082000002302E0012305E05B1C934202D2E05C5E
:100830000028F9D1A869E618C01AA861286A1844E6
:1008400028622846FFF7AAFF04E0D5E9012114F841
:10085000010B9047B442F8D32846FFF7B5FF70BDAF
:100860002DE9F0410646002410687529314616A589
:1008700010D0FFF7BAFF002802DA404213A507E0C4
:1008800031688A0701D512A502E0490704D511A5F0
:10089000012401E0FFF7B2FF00210A2206F124073C
:1008A00009E0B0FBF2FCB0FBF2F302FB1C003030BD
:1008B00078541846491C0028F3D123462A4630466E
:1008C000BDE8F04100F0AABA000000002D000000D1
:1008D0002B0000002000000011680268006A530528
:1008E00001D508700AE0D30501D5088006E013069B
:1008F00003D5C217C1E9000200E00860012070477B
:1009000001694A1C02610878704700B58FB0CDE9D3
:1009100001310021059105497944CDE903101146C3
:10092000684600F035F90FB000BD0000E5FFFFFF9D
:10093000074B70B50D467B44FFF7E7FF044628469A
:1009400000F07EFE10B14FF0FF3070BD204670BD4C
:10095000E33300002DE9FF5F15468A460446DFF8C1
:10096000AC80F8440027D8E900103E46CDE90010DD
:1009700010E03AF816106A4602A800F065FE411C25
:1009800007D02178890603D5E269391891420DD83C
:100990000744761C2078800602D5E069B84205DD60
:1009A000AE42E6DB3AF816000028E2D1A069C01B8F
:1009B000A0612046FFF7F2FED8E90010CDE9001053
:1009C000002017E03AF818106A4602A800F03CFE32
:1009D000B0F1FF3F81460BD000250DF1080B05E07B
:1009E000D4E901211BF8050090476D1C4D45F7D354
:1009F00008F10100B0428046E4DB206A38442062FE
:100A00002046FFF7E1FEBDE8FF9F0000CA17010086
:100A10002DE9F0418046D21D22F007020025D2E9DF
:100A20000002F52915A614D0011E72F1000106DAA4
:100A30000023D0EB030063EB020211A608E0D8F814
:100A400000108B0701D50FA602E0490701D50EA6BD
:100A500001251146002408F1240704E000F099F96B
:100A600030323A55641C50EA0102F7D12B46324627
:100A700021464046BDE8F04100F0D0B9000000003A
:100A80002D0000002B0000002000000030B40021E9
:100A900000F1240408E002F00705D208303542EAEC
:100AA0004372DB086554491C52EA0305F3D104681C
:100AB000002310A2250708D504F020040C4304D01D
:100AC000C46901230CA2641EC46130BC00F0A6B945
:100AD00010B5044621461068FFF790FE02462046F6
:100AE000BDE810400023D1E7D21D22F00701D1E973
:100AF0000023CBE70000000030000000F0B40D46FA
:100B00000188090502D5214C7C4402E01F4C7C443D
:100B10000E34002100F1240608E002F00F0712094C
:100B2000E75D42EA03721B097754491C52EA030746
:100B3000F3D102780023120704D5702D06D009B135
:100B4000022311342246F0BC00F068B901231034AE
:100B5000F8E770B504460D4621461068FFF74EFED3
:100B6000024629462046BDE870400023C6E7D21D54
:100B700022F00703D3E90023C0E70368126843F0BB
:100B8000200303600823C3610023B7E72C1601008C
:100B90002DE9F05F894604464FF0000ADFF874B192
:100BA000FB44C0F820A02046E1688847002874D0A4
:100BB000252806D0D4E901219047206A401C2062F4
:100BC000F1E700265F462046E16888472028054671
:100BD00007DB312D05D2781910F8200C08B1064337
:100BE000F1E7B00701D526F00406C4F81CA00027E1
:100BF000C4F818A02A2D09D0284610F0A7FC38B355
:100C000004EB8708303DC8F8185019E059F8041B68
:100C1000204604EB87029161E1688847012F054671
:100C200018D1E069002820DA26F020061DE0D8F867
:100C3000180000EB800005EB40003038C8F81800C1
:100C40002046E1688847054610F080FC0028EED178
:100C5000012F0AD02E2D08D12046E16888477F1C3D
:100C60000546022F46F02006C4DBA069002803DAFF
:100C7000404246F00106A061F00701D026F01006C0
:100C80006C2D0BD0682D09D04C2D39D06A2D35D064
:100C9000742D35D07A2D33D016E038E0E1682F4638
:100CA00020468847B842054609D16C2F26D04FF41C
:100CB0008060E168064320468847054604E06C2FC3
:100CC0001AD04FF4807006430DB3A5F141001928E6
:100CD00002D8203546F400664A462946204626605A
:100CE0004E46FFF79BFA80B101280BD0F61D26F087
:100CF000070000F1080956E74020E4E78020D8E724
:100D00000020D6E706F104094DE7284652E7206A9D
:100D1000BDE8F09FBC150100431A28BF9A427FF638
:100D200063AC1044114410F0030F1EBF11F8013DD5
:100D3000521E00F8013D10F0030F7FF4F6AF103A99
:100D4000C0F00A8010B531E9185020E91850103A67
:100D5000BFF4F9AFBDE81040530724BF31E90810D4
:100D600020E9081044BF51F8043D40F8043D12F05A
:100D7000030F08BF7047D20728BF31F8023D48BFB4
:100D800011F8012C28BF20F8023D48BF00F8012CC3
:100D9000704730B5B0F10A0271F100034FEA900ECE
:100DA0004EEA817EB0EB0E0061EB91014FEA101E1E
:100DB0004EEA017E10EB0E0041EB11114FEA102EAE
:100DC0004EEA016E10EB0E0041EB11214FEA104E7E
:100DD0004EEA014E10EB0E0041EB1141401841F17B
:100DE00000014FEAD00040EA41704FEAD1014FEADA
:100DF000810444EA907410EB800544EB01046D1902
:100E000044EB0404521BA3414FF0000348BF0A32D5
:100E100000D530BD401C41F1000130BD2DE9F04747
:100E20000D4699469246044600F12408016888065A
:100E300004D5E06921F01001216000E00120A84202
:100E400001DD471B00E00027A1697A1902EB0900C8
:100E5000081AA0612078C00602D42046FFF79EFC45
:100E6000002608E0D4E901211AF806009047206A1C
:100E7000401C761C20624E45F4DB2078C0060AD563
:100E80002046FFF78BFC06E0D4E901213020904793
:100E9000206A401C2062381EA7F10107F4DC07E03D
:100EA000D4E9012118F805009047206A401C20620F
:100EB000281EA5F10105F3DC2046FFF785FC20780C
:100EC000000602D50220BDE8F0870120FBE72DE9EE
:100ED000FF4F0C461E464FF0FF378BB0D2E90001A2
:100EE000DDF860800A908A46C1F30A5505B93D468F
:100EF000002108464FF00000BAF1000F00F4400056
:100F000005DA00EB80004FF4400101EA50004FEA9F
:100F10009059B9F1010F00DDB9460A9850EA4A002C
:100F20000ED044F61050A5F2FF3545432F14B8F10A
:100F3000000F1ED07542291E1EDDC9F100021CE003
:100F4000B8F1010F4FF0000001D0302103E0F2436F
:100F500005E02154401CB042FBDB3046002200215A
:100F600021540B99C1F80880C1E900200FB0BDE8F9
:100F7000F08FBD1B6D1CDEE74A4600DA694206A809
:100F800000F0F8FB06AB93E8070003AB83E807002B
:100F900050460A990AF000FE8DE80700A0F50050BF
:100FA0001F3800900398002D0ADD42F21F014A46C7
:100FB0000844002303A9039068460BF069F809E090
:100FC000A0F500504A461F38002303A90390684645
:100FD0000BF073F88DE807000004000C03D04FF00D
:100FE000FF30410800E01046B8F1000F03D00022A6
:100FF000009215461EE0751E05D4FFF7CAFE30327A
:1010000062556D1EF9D5B3460122084302D0002275
:101010007F1C04E02078302801D100227F1E002AA6
:10102000099784D01DE0112D07DAFFF7B2FE3032A8
:1010300062556D1C50EA0102F5D1084302D00098B8
:10104000C8B10EE00021681E05E0235C625C6354B9
:101050002254401E491C8142F7DBAB46A81B401EB0
:101060000990002004F80B000B98099AC0F808803A
:10107000C0E9002B7AE711264FF0000857E72DE969
:10108000F04F88460446D21D22F0070191B0D1E905
:101090000001CDE90A0110F01FFA02460B98C00FBB
:1010A00001D02D2007E02068810701D52B2002E028
:1010B000202101EAC000032A099001D0072A05DB9C
:1010C00003464146204600F015FB0BE120788006E0
:1010D00001D5E06900E00620B8F1650F814606D031
:1010E000B8F1660F18D0B8F1670F70D131E0002069
:1010F000B9F1110F009001DB112301E009F10103A7
:101100000AAA01A90CA8FFF7E2FEDDE90C7000268F
:1011100009F10105834647E001204B4600904FF05E
:1011200000470AAA01A90CA8FFF7D1FEDDE90DB01E
:101130000C995D46002610B909F101000D18B9EBB4
:10114000050003D4C0F1FF3609F10105A5EB090044
:101150002BE0B9F1010F01DA4FF001090020B9F1DC
:10116000110F0090484601DD112300E003460AAA52
:1011700001A90CA8FFF7ABFEDDE90C704D46002677
:101180008346207800070AD4AB4500DA5D4601A803
:10119000012D04DD411911F8011C302907D04F45FC
:1011A00002DA17F1040F04DA012082460FE06D1E07
:1011B000EEE7002F02DCED1B3E4403E0781CA84262
:1011C00000DD7D1CB81B00F1010A4FF000472078BC
:1011D000000703D4AA4501DB4FF0FF3A0021B7F125
:1011E000004F0DF143088DF8431024D002202B232B
:1011F000002F01DA7F422D230A21021EA0F10100F7
:1012000000DC5FB197FBF1FC97FBF1F201FB1C7C6A
:1012100017460CF1300C08F801CDEEE7A8F10100FB
:1012200003702188090501D5452100E06521A0F161
:10123000010800F8011C09980FA9A1EB0807FF1D80
:1012400000B10120411901EBEA70A1693844081A84
:10125000401EA0612078C00602D42046FFF79EFA07
:10126000099828B1D4E901219047206A401C2062E6
:101270002078C00622D52046FFF790FA1EE0002E07
:1012800004DBB34502DD01A8805D00E03020D4E935
:1012900001219047206A401C2062761CAAF10100BF
:1012A0005FEA000A0AD100F021FAC0680168405CD8
:1012B000D4E901219047206A401C2062281EA5F134
:1012C0000105DCDC07E0D4E9012118F8010B9047A7
:1012D000206A401C2062381EA7F10107F3DC20467B
:1012E000FFF772FA032011B041E600002DE9F04F3C
:1012F00004460D46D21D22F0070089B0D0E90097C0
:101300004846394610F0E8F80246F80F01D02D2380
:1013100007E02068810701D52B2302E0202101EAA4
:10132000C0038DF820300BB1012000E00020032A1B
:10133000824601D0072A04DB2946204600F0DAF96C
:101340003FE12078800601D40D2500E0E569C7F370
:101350000A560D2D49DA00214FEA175B08464FF077
:101360000000002F00F4400007DA00EB80004FF48B
:10137000400100EBD07001EA60008115012901DD18
:101380004FF0FF3100224FEA850CBCF1180F06D355
:101390001346ACF118004FF08052C24003E04FF406
:1013A000801323FA0CF30CF10C0CBCF1200F04D3C6
:1013B000ACF1200C09FA0CF001E007FA0CF000295E
:1013C0004FF0004801DD18B90FE00ED140450CD3B5
:1013D00019EB02095F4121B9404502D19F4329EA37
:1013E0000209BBEB175F00D0761C2088000502D5F0
:1013F0007B48784402E07A487844193808AA3023B8
:1014000002F80A30037C0AF10101002E0AF1020AF7
:1014100053546A4602DC4FF0300101E04FF03101D5
:101420004FF001088DF8001002D0A6F2FF3603E05D
:1014300059EA470100D06B4E002D02DC21780907E4
:1014400004D54FF002082E218DF80110C44600216A
:101450000BE0C7F303433F01C35C491C6D1E02F858
:101460000830052908F1010801DA002DF1DC00211E
:101470000CE000EB1973491C1B786D1E082902F85B
:1014800008304FEA091908F1010801DA002DF0DCF3
:1014900021688B0602D516E0A8F10108E04505DDBC
:1014A00002EB080313F8013C302BF5D0B8F1000F24
:1014B00009DD02EB080313F8013C2E2B03D10907C9
:1014C00001D4A8F10108002D05DD3E2102F8081025
:1014D0006D1E08F10108407C002E02F8080008F19A
:1014E000010804DA2D20764202F8080002E02B20E1
:1014F00002F808000A214FF47A70864208F10108C8
:101500000BDB96FBF0F3303302F8083096FBF0F378
:1015100008F1010800FB136601E0642E0CDB642077
:1015200096FBF0F3303302F8083096FBF0F308F145
:10153000010800FB136601E00A2E06DB96FBF1F0C2
:10154000303002F8080008F1010896FBF1F001FBC9
:101550001060303002F80800A16908F1010808EBBA
:10156000050202EB0A00081AA0612078C00602D426
:101570002046FFF713F9216A08AE01EB0A0020624A
:1015800004E0D4E9012116F8010B9047BAF1010AF1
:10159000F7D22078C00602D52046FFF7FFF86E4646
:1015A00009E016F8010B3E280FD0D4E9012190473D
:1015B000206A401C2062B8F10108F2D22046FFF7F1
:1015C00003F909B00320BDE8F08F206A28442062A7
:1015D00003E0D4E90121302090476D1EEBD3F8E7FA
:1015E0008E0D010002FCFFFF10B5436913B1AFF38C
:1015F000008001E0FFF70BF9012010BD127800F127
:1016000024010A7000224A700122EDE711684FF0B0
:10161000FF32E9E710B5436913B1AFF3008001E091
:10162000FFF798F9012010BD128800F1240182848F
:101630000022C2840122EDE711684FF0FF32E9E792
:10164000007B00F0800070472DE9F04116460C4603
:10165000054600F043F8036893F80101012807D01C
:10166000FF2C12D8185D80B101202C70BDE8F081EC
:10167000D3F807013246214603F20713C71828465C
:10168000BC46BDE8F041002360474FF0FF30EDE776
:10169000754600F0EBF8AE4605006946534620F06B
:1016A0000700854618B020B5FEF738FEBDE820409B
:1016B0004FF000064FF000074FF000084FF0000B0E
:1016C000AC46ACE8C009ACE8C009ACE8C009ACE87D
:1016D000C00921F007018D467047000010B500F0E9
:1016E00005F8001D10BD00BFA1FE000000487047B6
:1016F0000C0400102DE9F0411F4604460326016842
:10170000072A01F4006004DB08B116A505E016A560
:1017100003E008B115A500E015A521F01000206038
:10172000A069C01EA0610FB1401EA0612046FFF756
:1017300035F84FB1D4E9012138469047206A401C62
:101740002062C01C206206E0206AFAE7D4E9012189
:1017500015F8010B9047761EF8D22046FFF734F8B3
:10176000BDE8F0814E414E006E616E00494E46006C
:10177000696E66002DE9F047814616468AB0354805
:1017800078440DC88DE80D0032487844801C03ACC5
:101790000DC884E80D0041F69B300844372190FBCA
:1017A000F1F290FBF1F5A5F1800501FB12041B3C61
:1017B00002D56442012000E00020DFF898A08046B6
:1017C0000027FA44AAF1BE0A0EE0E0070AD032462A
:1017D000684607EB470101230AEB81010AF06DFC23
:1017E0008DE8070064107F1C002CEED1194F7F4458
:1017F000AE3F19E0E80715D007EB04100DF1180A09
:1018000090E80E008AE80E00C068F04201D19819F5
:1018100008903246012306A903A80AF04EFC03AB48
:1018200083E807006D10641C002DE3D14FF0010325
:1018300032466946B8F1000F03A802D00AF028FC2E
:1018400001E00AF03AFCC9E90001C9F808200AB031
:10185000BDE8F087900A010010B50446AFF30080A0
:101860002046BDE81040FEF73EBD0000004870472E
:10187000EC030010FFE7FEE77047000085B004901E
:10188000039102920193002000900198B0F5804FDF
:1018900022D1FFE70498029950F8210000900098A7
:1018A0000021CCF6F0710840009003990868D1F847
:1018B00004C08B68CA6840EA0C1040EA032040EA82
:1018C00002408969014300980843009000980499F8
:1018D000029A41F8220006E00499029A6FF07040E3
:1018E00041F82200FFE7002005B0704784B0039064
:1018F00002910020019003980299096850F8210094
:10190000019001988021CFF6F07108400190029972
:1019100000914868D1F808C0CB680A6940EA0C0019
:10192000184310434A6910438A691043CA69104337
:101930000A6A10434A6A10438A6A1043CA6A10430B
:10194000CA6B1043096B0143019808430190029848
:101950008068082805D1FFE7019840F04000019019
:10196000FFE701980399029A126841F822000020CB
:1019700004B0704780B584B00390029101920020BA
:1019800000900399019A01EB820149680091009946
:1019900001F040410091029A1168D2F804E0D2F8B7
:1019A00008C0D36841EA0E1141EA0C2141EA034123
:1019B000D2F810C00023CFF6F07303EB0C53194399
:1019C0005369FE3341EA036192690A430099114366
:1019D00000910099039A019B02EB8302516004B0CD
:1019E00080BD000080B582B00190019808F0D8FA5F
:1019F00002B080BD80B50120FFF7F4FF80BD00007C
:101A000080B509F0D3FB80BD80B509F0F5FB80BD42
:101A100080B540F68440C1F2000000684FF0FF310D
:101A200009F008FA80BD000080B540F68440C1F29C
:101A300000000068002319461A4608F0C5FF80BD63
:101A400080B584B002900298806D019000F0B8FAE1
:101A50000090029890F8350002280DD0FFE7029917
:101A600080204865FFE70299002081F83400FFE7F5
:101A700001208DF80F0054E002980168086820F0FA
:101A80001600086002980168486920F080004861EB
:101A90000298006C20B9FFE70298806C38B1FFE72C
:101AA00002980168086820F008000860FFE70298C3
:101AB0000168086820F001000860FFE702980068EC
:101AC0000068C007C0B1FFE700F07AFA0099401A39
:101AD000062810D3FFE7029920204865FFE7029906
:101AE000002081F83400FFE70299032081F83500D7
:101AF0008DF80F0015E0E1E70298C16D3F208840A6
:101B000001998860FFE70299002081F83400FFE71F
:101B10000299012081F83500FFE700208DF80F00C1
:101B2000FFE79DF80F0004B080BD000082B0009078
:101B3000009890F83500022807D0FFE70099802030
:101B4000486501208DF807000EE00099052081F816
:101B5000350000980168086820F001000860FFE780
:101B600000208DF80700FFE79DF8070002B07047DE
:101B70008EB00D900C9100200A90099008900B9067
:101B8000FFE70B980F2800F2CC81FFE70B990120AB
:101B900088400A900C9800680A99084009900998B2
:101BA0000A99884240F0B881FFE70C98406800F03D
:101BB0000300012807D0FFE70C98406800F00300FD
:101BC00002282FD1FFE70D98806808900B984100FC
:101BD000032000FA01F10898884308900C98C06827
:101BE0000B99490000FA01F10898084308900898F9
:101BF0000D9988600D98406808900B99012000FAB3
:101C000001F10898884308900C984068C0F30010D0
:101C10000B9900FA01F108980843089008980D996B
:101C20004860FFE70C98406800F00300032818D0D4
:101C3000FFE70D98C06808900B984100032000FA58
:101C400001F10898884308900C9880680B99490026
:101C500000FA01F108980843089008980D99C860A7
:101C6000FFE70C98406800F00300022826D1FFE748
:101C70000D980B996FF0030202EA51010844006AC3
:101C800008900B9800F0070081000F2000FA01F186
:101C90000898884308900C9800690B9901F0070197
:101CA000890000FA01F108980843089008980D99F6
:101CB0000B9B02EA530211440862FFE70D9800688B
:101CC00008900B984100032000FA01F1089888431E
:101CD00008900C98406800F003000B99490000FA46
:101CE00001F108980843089008980D9908600C982D
:101CF000C079C006002840F10E81FFE7FFE7002011
:101D0000079043F64400C4F20200016841F48041A8
:101D10000160006800F4804007900798FFE70B9887
:101D200020F0030043F60801C4F201014058089076
:101D30000B9800F0030081000F2000FA01F10898D1
:101D4000884308900D980021C4F20201884203D113
:101D5000FFE7002006905EE00D9840F20041C4F2DB
:101D60000201884203D1FFE70120059050E00D9861
:101D700040F60001C4F20201884203D1FFE70220CD
:101D8000049042E00D9840F60041C4F202018842FE
:101D900003D1FFE70320039034E00D9841F20001E6
:101DA000C4F20201884203D1FFE70420029026E03A
:101DB0000D9841F20041C4F20201884203D1FFE7CD
:101DC0000520019018E00D9841F60001C4F20201CF
:101DD000884203D1FFE7062000900AE00D9941F602
:101DE0000042C4F202020820914208BF072000907E
:101DF000FFE700980190FFE701980290FFE7029843
:101E00000390FFE703980490FFE704980590FFE72D
:101E100005980690FFE70698C0B20B9901F0030100
:101E2000890000FA01F108980843089008980B9976
:101E300021F0030143F60802C4F20102885043F680
:101E40000040C4F20100006808900999089888438E
:101E500008900C988079C00728B1FFE70999089885
:101E600008430890FFE7089843F60041C4F20101D7
:101E7000086043F60440C4F2010000680890099924
:101E80000898884308900C9880798007002805D529
:101E9000FFE70999089808430890FFE7089843F678
:101EA0000441C4F20101086043F60840C4F2010095
:101EB0000068089009990898884308900C988079E0
:101EC000C006002805D5FFE709990898084308903F
:101ED000FFE7089843F60841C4F20101086043F6A1
:101EE0000C40C4F2010000680890099908988843E2
:101EF00008900C9880798006002805D5FFE709999D
:101F0000089808430890FFE7089843F60C41C4F28C
:101F100001010860FFE7FFE7FFE70B9801300B9036
:101F20002FE60EB07047000082B00190ADF80210AD
:101F300001980069BDF80210084204D0FFE70120B3
:101F40008DF8010003E000208DF80100FFE79DF807
:101F5000010002B07047000083B00290ADF8061097
:101F6000029840690090009ABDF8060002EA00015C
:101F7000904340EA01400299886103B07047000035
:101F800082B00190ADF802108DF801209DF801009B
:101F900028B1FFE7BDF802000199886105E0BDF8AE
:101FA0000200000401998861FFE702B07047000059
:101FB00042F20000CEF204000068000C70470000FE
:101FC00040F67470C1F200000068704740F234209F
:101FD000C1F20000027840F67471C1F20001086895
:101FE000104408607047000080B543F60041C4F219
:101FF0000201086840F400700860086840F48060DE
:102000000860032000F066F80F2000F005F800F0EB
:102010003BF8002080BD000080B582B0009040F207
:10202000CC10C1F20000006840F23421C1F200017E
:102030000A784FF47A71B1FBF2F1B0FBF1F000F0E5
:102040002BFE20B1FFE701208DF8070018E0009873
:102050000F280DD8FFE700994FF0FF30002200F065
:102060001FF8009840F23821C1F20001086003E037
:1020700001208DF8070003E000208DF80700FFE73E
:102080009DF8070002B080BD7047000080B582B0A7
:102090008DF807009DF9070001F054FD02B080BDE6
:1020A00080B586B08DF8170004910392002002904D
:1020B00001F060FD02909DF91700019002980499CB
:1020C000039A01F087FA0146019801F05BFD06B022
:1020D00080BD000080B582B00190019801F074FDD0
:1020E00002B080BD80B584B002900191029820B901
:1020F000FFE701208DF80F0021E1019843F6004130
:10210000C4F20201096801F00701884212D9FFE711
:10211000019943F60040C4F202000170006800F02B
:1021200007000199884204D0FFE701208DF80F00D5
:1021300005E1FFE702980078800700282AD5FFE72D
:10214000029800784007002809D5FFE743F6080108
:10215000C4F20201086840F4E0500860FFE702980A
:1021600000780007002809D5FFE743F60801C4F20C
:102170000201086840F460400860FFE743F6080188
:10218000C4F20201086820F0F000029A926810433D
:102190000860FFE702980078C00700286ED0FFE7CC
:1021A00002984068012811D1FFE743F60000C4F20D
:1021B0000200006800F400310020B0EB514F04D160
:1021C000FFE701208DF80F00B9E02CE0029840688D
:1021D000022805D0FFE702984068032811D1FFE7E5
:1021E00043F60000C4F20200006800F00071002015
:1021F000B0EB516F04D1FFE701208DF80F009EE096
:1022000010E043F60000C4F20200006800F0020192
:102210000020B0EB510F04D1FFE701208DF80F0033
:102220008DE0FFE7FFE743F60801C4F2020108680A
:1022300020F00300029A526810430860FFF7C0FEC6
:102240000090FFE743F60800C4F20200006800F0C7
:102250000C0002994968B0EB810F0ED0FFE7FFF741
:10226000AFFE0099401A41F28931884204D3FFE75A
:1022700003208DF80F0062E0E4E7FFE7019843F6E2
:102280000041C4F20201096801F00701884212D23C
:10229000FFE7019943F60040C4F2020001700068B4
:1022A00000F007000199884204D0FFE701208DF873
:1022B0000F0044E0FFE702980078400700280CD5A3
:1022C000FFE743F60801C4F20201086820F4E05079
:1022D000029AD26810430860FFE70298007800076E
:1022E00000280DD5FFE743F60801C4F20201086893
:1022F00020F46040029A126940EAC2000860FFE7D9
:1023000000F04CF843F60801C4F202010968C9B2B2
:102310000A0942F22C21C0F60101895CC84040F252
:10232000CC11C1F20001086040F23820C1F2000077
:102330000068FFF771FE00208DF80F00FFE79DF8A1
:102340000F0004B080BD000040F2CC10C1F20000CC
:102350000068704780B5FFF7F7FF43F60801C4F245
:1023600002010968C1F3822242F23C21C0F6010158
:10237000895CC84080BD000080B5FFF7E5FF43F6EB
:102380000801C4F20201096889B24A0B42F23C21F9
:10239000C0F60101895CC84080BD000080B586B0F0
:1023A0000020059004900390029043F60800C4F2C8
:1023B0000200006800F00C000146019140B1FFE707
:1023C000019804280AD0FFE7019808280CD04FE0B4
:1023D00042F20040C0F2F40002904FE041F20020CF
:1023E000C0F27A00029049E043F60400C4F2020011
:1023F000016801F03F01059100684002002813D5F3
:10240000FFE743F60400C4F202000068C0F388103E
:1024100041F20021C0F27A01A0FB0101059A0023DC
:10242000FDF78FFF049012E043F60400C4F20200AF
:102430000068C0F3881042F20041C0F2F401A0FB32
:102440000101059A0023FDF77CFF0490FFE743F6A6
:102450000400C4F20200006800F44031022000EBE6
:10246000D130039004980399B0FBF1F0029005E09D
:1024700042F20040C0F2F4000290FFE7029806B07A
:1024800080BD000080B586B00490049820B9FFE7B5
:1024900001208DF8170050E304980078C007002849
:1024A00000F0A580FFE743F60800C4F202000068D0
:1024B00000F00C00042813D0FFE743F60800C4F234
:1024C0000200006800F00C0008281ED1FFE743F668
:1024D0000400C4F2020000684002002815D5FFE79E
:1024E00043F60000C4F20200006800F4003100204E
:1024F000B0EB514F08D0FFE70498406820B9FFE7E0
:1025000001208DF8170018E370E0FFE70498406899
:10251000B0F5803F09D1FFE743F60001C4F20201A4
:10252000086840F48030086020E004984068B0F506
:10253000A02F0DD1FFE743F60001C4F202010868A5
:1025400040F480200860086840F4803008600CE0A7
:1025500043F60001C4F20201086820F480300860EC
:10256000086820F480200860FFE7FFE7FFE7049891
:102570004068E8B1FFE7FFF723FD0390FFE743F66C
:102580000000C4F20200006800F400310020B0EB4B
:10259000514F0CD1FFE7FFF713FD0399401A65284F
:1025A00004D3FFE703208DF81700C6E2E7E71CE03D
:1025B000FFF706FD0390FFE743F60000C4F20200B8
:1025C000006800F400310020B0EB514F0CD0FFE761
:1025D000FFF7F6FC0399401A652804D3FFE70320B0
:1025E0008DF81700A9E2E7E7FFE7FFE7FFE70498A8
:1025F00000788007002840F19680FFE743F6080046
:10260000C4F20200006810F00C0F13D0FFE743F68D
:102610000800C4F20200006800F00C0008282CD169
:10262000FFE743F60400C4F20200006840020028FD
:1026300023D4FFE743F60000C4F20200006800F074
:1026400002010020B0EB510F09D0FFE70498C068E9
:10265000012804D0FFE701208DF817006DE243F652
:102660000001C4F20201086820F0F800049A12691F
:1026700040EAC2000860FFE754E00498C06870B305
:10268000FFE70021C4F2472101200860FFF798FC12
:102690000390FFE743F60000C4F20200006800F078
:1026A00002010020B0EB510F0CD1FFE7FFF788FCCF
:1026B0000399401A032804D3FFE703208DF817007D
:1026C0003BE2E7E743F60001C4F20201086820F0AC
:1026D000F800049A126940EAC200086021E0002173
:1026E000C4F2472100200860FFF76AFC0390FFE76F
:1026F00043F60000C4F20200006800F0020100206E
:10270000B0EB510F0CD0FFE7FFF75AFC0399401ACA
:10271000032804D3FFE703208DF817000DE2E7E755
:10272000FFE7FFE7FFE704980078000700284BD594
:10273000FFE70498406918B3FFE740F68061C4F2F0
:10274000472101200860FFF73BFC0390FFE743F6B9
:102750007400C4F20200006800F002010020B0EB37
:10276000510F0CD1FFE7FFF72BFC0399401A032808
:1027700004D3FFE703208DF81700DEE1E7E722E04E
:1027800040F68061C4F2472100200860FFF718FC82
:102790000390FFE743F67400C4F20200006800F003
:1027A00002010020B0EB510F0CD0FFE7FFF708FC4F
:1027B0000399401A032804D3FFE703208DF817007C
:1027C000BBE1E7E7FFE7FFE7049800784007002850
:1027D00040F1CE80FFE700208DF8070043F640006F
:1027E000C4F202000068C000002815D4FFE7FFE72C
:1027F0000020009043F64000C4F20200016841F05E
:1028000080510160006800F0805000900098FFE760
:1028100001208DF80700FFE747F20000C4F2000036
:102820000068C005002822D4FFE747F20001C4F287
:102830000001086840F480700860FFF7C1FB039056
:10284000FFE747F20000C4F200000068C00500285E
:102850000CD4FFE7FFF7B4FB0399401A032804D315
:10286000FFE703208DF8170067E1EAE7FFE7FFE7DE
:1028700004988068012809D1FFE743F67001C4F28B
:102880000201086840F0010008601FE004988068B9
:1028900005280DD1FFE743F67001C4F20201086874
:1028A00040F004000860086840F0010008600CE097
:1028B00043F67001C4F20201086820F001000860CC
:1028C000086820F004000860FFE7FFE7FFE70498CE
:1028D0008068F8B1FFE7FFF773FB0390FFE743F66B
:1028E0007000C4F20200006800F002010020B0EBAA
:1028F000510F0ED1FFE7FFF763FB0399401A41F236
:102900008931884204D3FFE703208DF8170014E1D2
:10291000E5E71EE0FFF754FB0390FFE743F6700086
:10292000C4F20200006800F002010020B0EB510F79
:102930000ED0FFE7FFF744FB0399401A41F28931BB
:10294000884204D3FFE703208DF81700F5E0E5E7A0
:10295000FFE79DF80700012809D1FFE743F6400192
:10296000C4F20201086820F080500860FFE7FFE72A
:1029700004988069002800F0DC80FFE743F6080037
:10298000C4F20200006800F00C00082800F0858006
:10299000FFE70498806902285CD1FFE76021C4F258
:1029A000472100200860FFF70BFB0390FFE743F689
:1029B0000000C4F20200006800F000710020B0EBDB
:1029C000516F0CD0FFE7FFF7FBFA0399401A032879
:1029D00004D3FFE703208DF81700AEE0E7E7049982
:1029E000C869D1F820C04B6A8A6A40EA0C0040EA04
:1029F0008310D2034FF6FF739A43A2F5803210433F
:102A0000C96A40EA016043F60401C4F202010860A9
:102A10006021C4F2472101200860FFF7D1FA03903A
:102A2000FFE743F60000C4F20200006800F0007106
:102A30000020B0EB516F0CD1FFE7FFF7C1FA03990B
:102A4000401A032804D3FFE703208DF8170074E031
:102A5000E7E721E06021C4F2472100200860FFF78A
:102A6000AFFA0390FFE743F60000C4F202000068EB
:102A700000F000710020B0EB516F0CD0FFE7FFF7C2
:102A80009FFA0399401A032804D3FFE703208DF827
:102A9000170052E0E7E7FFE74AE004988069012861
:102AA00004D1FFE701208DF8170046E043F604004B
:102AB000C4F202000068029004988069012831D0B5
:102AC000FFE7029800F480000499C969884229D17F
:102AD000FFE7029800F03F000499096A884221D17B
:102AE000FFE7029847F6C07108400499496AB0EBC5
:102AF000811F17D1FFE7029800F440300499896ADA
:102B0000C9034FF6FF729143A1F58031884209D184
:102B1000FFE7029800F070600499C96AB0EB016F9A
:102B200004D0FFE701208DF8170006E0FFE7FFE77C
:102B3000FFE700208DF81700FFE79DF8170006B0AB
:102B400080BD000080B584B002900191009202988F
:102B500020B9FFE701208DF80F002BE0029890F8D4
:102B6000490040B9FFE70299002081F84800029827
:102B700000F024F8FFE7029951F8080BFEF7B6FEC3
:102B8000029A019910689268FEF7F4FE029B009980
:102B900058689A681B6BFEF771FE0298016882689C
:102BA00051F8220040F0010041F8220000208DF889
:102BB0000F00FFE79DF80F0004B080BD80B58AB01C
:102BC0000990FFE70020039043F63800C4F20200AA
:102BD000016841F001010160006800F0010003900C
:102BE0000398FFE7FFE70020029043F63000C4F2AD
:102BF0000200016841F008010160006800F008006F
:102C000002900298FFE7FFE70020019043F63000B2
:102C1000C4F20200016841F010010160006800F098
:102C2000100001900198FFE74CF20370049002201D
:102C300005900121069107900C20089040F6004075
:102C4000C4F2020004A90091FEF792FF00994FF62A
:102C50008070049041F20000C4F20200FEF788FF89
:102C60000AB080BD81B000900098042809D1FFE728
:102C70004EF21001CEF20001086840F00400086036
:102C800008E04EF21001CEF20001086820F00400C6
:102C90000860FFE701B0704780B582B001900198ED
:102CA00000F00EFD02B080BD81B0009001B0704711
:102CB00081B0009001B0704781B0009001B07047C2
:102CC00080B582B0019001980068006900F00201AF
:102CD0000020B0EB510F28D0FFE701980068C068D2
:102CE00000F002010020B0EB510F1DD0FFE701986A
:102CF00001686FF0020008610199012008770198CE
:102D000000688069800720B1FFE70198FFF7D4FFD2
:102D100006E0019800F012F9019800F013F9FFE7BE
:102D2000019900200877FFE7FFE701980068006934
:102D300000F004010020B0EB910F29D0FFE70198CB
:102D40000068C06800F004010020B0EB910F1ED0B5
:102D5000FFE7019801686FF0040008610199022003
:102D6000087701980068806910F4407F04D0FFE77D
:102D70000198FFF7A1FF06E0019800F0DFF8019845
:102D800000F0E0F8FFE7019900200877FFE7FFE790
:102D900001980068006900F008010020B0EBD10F35
:102DA00028D0FFE701980068C06800F00801002003
:102DB000B0EBD10F1DD0FFE7019801686FF008005C
:102DC000086101990420087701980068C0698007AC
:102DD00020B1FFE70198FFF76FFF06E0019800F0D0
:102DE000ADF8019800F0AEF8FFE7019900200877F0
:102DF000FFE7FFE701980068006900F0100100207C
:102E0000B0EB111F29D0FFE701980068C06800F0FF
:102E100010010020B0EB111F1ED0FFE701980168E0
:102E20006FF0100008610199082008770198006888
:102E3000C06910F4407F04D0FFE70198FFF73CFF22
:102E400006E0019800F07AF8019800F07BF8FFE7BF
:102E5000019900200877FFE7FFE701980068006903
:102E6000C00780B1FFE701980068C068C00748B19B
:102E7000FFE7019801686FF001000861019800F018
:102E800065F8FFE7FFE7019800680069C1B200201C
:102E9000B0EBD11F13D0FFE701980068C068C1B242
:102EA0000020B0EBD11F09D0FFE7019801686FF057
:102EB000800008610198FFF7F7FEFFE7FFE7019840
:102EC0000068006900F040010020B0EB911F14D0B1
:102ED000FFE701980068C06800F040010020B0EBF7
:102EE000911F09D0FFE7019801686FF04000086169
:102EF000019800F043F8FFE7FFE7019800680069D8
:102F000000F020010020B0EB511F14D0FFE7019822
:102F10000068C06800F020010020B0EB511F09D00C
:102F2000FFE7019801686FF0200008610198FFF742
:102F3000BFFEFFE7FFE702B080BD000081B0009058
:102F400001B0704781B0009001B0704780B582B089
:102F50000190019840F62471C1F2000188420BD122
:102F6000FFE7FFE741F20040C4F202004FF4806146
:102F7000FEF7F2FFFFE7FFE702B080BD81B00090EF
:102F800001B0704782B00190ADF8021002B07047F6
:102F900081B0009001B0704780B588B00790079865
:102FA00000680068069007980068C0680590079858
:102FB000006840690490002003900290069800F099
:102FC0000F000390039888B9FFE79DF8180080066A
:102FD00000280AD5FFE79DF814008006002804D5D4
:102FE000FFE7079800F0FCFB78E1FFE70398002873
:102FF00000F0B480FFE79DF81000C00738B9FFE784
:10300000BDF8140010F4907F00F0A880FFE79DF851
:103010001800C00758B1FFE79DF81500C00730B190
:10302000FFE70799086C40F001000864FFE79DF88E
:103030001800400700280BD5FFE79DF81000C007D7
:1030400030B1FFE70799086C40F002000864FFE721
:103050009DF81800800700280BD5FFE79DF81000A9
:10306000C00730B1FFE70799086C40F0040008641E
:10307000FFE79DF818000007002811D5FFE79DF82D
:1030800014008006002805D4FFE79DF81000C00753
:1030900030B1FFE70799086C40F008000864FFE7CB
:1030A0000798006C002858D0FFE79DF818008006AC
:1030B00000280AD5FFE79DF814008006002804D5F3
:1030C000FFE7079800F08CFBFFE70798006840696E
:1030D000C0F3801002900798006C0007002803D40A
:1030E000FFE7029888B3FFE7079800F041FB0798D5
:1030F000006840694006002822D5FFE7079801686C
:10310000486920F0400048610798806B98B1FFE75C
:103110000798816B43F25170C0F60000086507986C
:10312000806BFEF703FD28B1FFE70798806B016D08
:103130008847FFE703E00798FFF72AFFFFE703E070
:103140000798FFF725FFFFE706E00798FFF720FF46
:10315000079900200864FFE7FFE7BFE00798006BCE
:10316000012840F09B80FFE79DF81800C00600286A
:1031700040F19480FFE79DF81400C006002840F15C
:103180008D80FFE7FFE70020019007980068006846
:10319000019007980068406801900198FFE7079840
:1031A00000684069400600284AD5FFE70798806B11
:1031B00000684068ADF80200BDF8020000283ED06B
:1031C000FFE7BDF802000799898D884237DAFFE7EB
:1031D000BDF802000799C8850798806BC069B0F5F3
:1031E000807F24D0FFE707980168C86820F48070CA
:1031F000C86007980168486920F001004861079895
:103200000168486920F0400048610799202081F852
:103210003E0007990020086307980168C86820F0FD
:103220001000C8600798806BFEF70AFCFFE707985C
:10323000818DC28D891A89B2FFF7A4FEFFE74DE0A8
:103240000799888DC98D401AADF800000798C08D88
:1032500018B3FFE7BDF80000F8B1FFE70798016871
:10326000C86820F49070C86007980168486920F029
:10327000010048610799202081F83E00079900204D
:10328000086307980168C86820F01000C8600798B4
:10329000BDF80010FFF776FEFFE71FE09DF818006D
:1032A000000600280AD5FFE79DF814000006002854
:1032B00004D5FFE7079800F0F1FB0FE09DF8180038
:1032C000400600280AD5FFE79DF8140040060028B4
:1032D00004D5FFE7079800F06FFAFFE708B080BD5C
:1032E00080B582B00090009820B9FFE701208DF8EA
:1032F00007003EE00098806908B1FFE700E0FFE7C3
:10330000009890F83D0040B9FFE70099002081F84F
:103310003C00009800F032F8FFE70099242081F883
:103320003D0000980168C86820F40050C86000980B
:1033300000F0E4FA00980168086920F49040086100
:1033400000980168486920F02A00486100980168E7
:10335000C86840F40050C860009900200864009AD2
:10336000202182F83D10009A82F83E108DF8070067
:10337000FFE79DF8070002B080BD000080B58EB069
:103380000D900D98006841F20001C4F201018842DD
:103390005FD1FFE7FFE7FFE70020079043F6440017
:1033A000C4F20200016841F010010160006800F001
:1033B000100007900798FFE7FFE7FFE7FFE700200F
:1033C000069043F63000C4F20200016841F00101AA
:1033D0000160006800F0010006900698FFE7FFE733
:1033E000FFE7FFE70020059043F63000C4F202003B
:1033F000016841F001010160006800F001000590E2
:103400000598FFE7FFE74FF400700890022009904D
:1034100001210A910B90072001900C900020C4F22A
:103420000200029008A90391FEF7A2FB019A0298FC
:1034300003994FF4806308930C92FEF799FB2520C3
:103440000490FEF723FE049803221146FEF728FE9F
:10345000FFE70EB080BD000080B584B002900191FE
:10346000ADF80220029890F83E00202828D1FFE70E
:10347000019820B1FFE7BDF8020020B9FFE7012065
:103480008DF80F0020E0FFE7029890F83C0001283B
:1034900004D1FFE702208DF80F0015E0029901200A
:1034A00081F83C00FFE7FFE70299002008630298DB
:1034B0000199BDF8022000F0BFFA8DF80F0003E07B
:1034C00002208DF80F00FFE79DF80F0004B080BDCB
:1034D00080B582B001900198006841F20001C4F209
:1034E000010188426AD1FFE740F27460C1F2000036
:1034F00000880004002855D4FFE740F27460C1F250
:10350000000000884004002819D5FFE740F2C440BD
:10351000C1F2000000780A2807D0FFE740F274618A
:10352000C1F200010020088008E040F27461C1F29D
:103530000001088840F400400880FFE731E040F2D5
:10354000C440C1F2000000780D2809D1FFE740F225
:103550007461C1F20001088840F4804008801FE0D7
:1035600040F2C440C1F20000017840F27460C1F240
:10357000000003886FF39F3340F2AC52C1F20002A7
:10358000D1540188013101800088C82807DBFFE79A
:1035900040F27461C1F2000100200880FFE7FFE7FC
:1035A000FFE7FFE740F26850C1F2000040F2C4417B
:1035B000C1F200010122FFF74FFFFFE702B080BD1B
:1035C00081B0009001B07047FFE7FEE7FFE7FEE73C
:1035D0007047000088B0079006910592079800F0A8
:1035E000070004900498C0F10700052803D3FFE703
:1035F0000420019004E00498C0F107000190FFE767
:103600000198039004980430062803D8FFE70020AF
:10361000009003E0049803380090FFE700980290C0
:1036200006980399012202FA01F101390840029B30
:10363000984005999A40013A1140084308B07047F4
:10364000EFF30980BFF36F8F144B1A681EF0100F51
:1036500008BF20ED108A20E9F04F10602DE9090025
:103660004FF0500080F31188BFF34F8FBFF36F8F7F
:1036700006F034FF4FF0000080F31188BDE8090028
:1036800019680868B0E8F04F1EF0100F08BFB0ECE2
:10369000108A80F30988BFF36F8F70478C0C00107D
:1036A000064B19680868B0E8F04F80F30988BFF34B
:1036B0006F8F4FF0000080F3118870478C0C001062
:1036C00080B582B0009000980138B0F1807F03D3BC
:1036D000FFE70120019019E0009801384EF2140133
:1036E000CEF2000108604FF0FF300F2100F04AFADF
:1036F0004EF21801CEF20001002008604EF21002D6
:10370000CEF20002072111600190FFE7019802B09C
:1037100080BD000080B5FEF759FC07F051FD01287F
:1037200003D0FFE707F058F8FFE780BD4EF6885159
:10373000CEF20001086840F4700008607047000095
:1037400080B540F62470C1F20000FFF7B9FA80BDE1
:1037500080B582B001900198806B009000990020A4
:10376000C8850099C8840098FFF712FC02B080BD9C
:1037700081B0009000980168C86820F49070C8601B
:1037800000980168486920F0010048610098006BCA
:10379000012807D1FFE700980168C86820F01000F1
:1037A000C860FFE70099202081F83E0000990020C2
:1037B000086301B07047000080B582B001900198A5
:1037C0000168C86820F04000C8600199202081F895
:1037D0003D000198FFF7F4FE002002B080BD00001C
:1037E00080B584B00290029890F83E0022287CD1E7
:1037F000FFE702988068B0F5805F15D1FFE7029877
:10380000006988B9FFE7002001900298806A009063
:103810000298006840686FF35F2000990880029961
:10382000886A0230886225E00298806A0190002050
:10383000009002988068B0F5805F08D0FFE702989A
:10384000806850B9FFE70298006930B9FFE7029835
:10385000006840680199087007E0029800684068B5
:1038600000F07F0001990870FFE70299886A013033
:103870008862FFE70299C88D0138C885000480BBC3
:10388000FFE702980168C86820F02000C86002982D
:103890000168C86820F48070C860029801684869AF
:1038A00020F0010048610299202081F83E00029832
:1038B000006B01280BD1FFE702980168C86820F06F
:1038C0001000C8600298818DFFF75CFB03E002984E
:1038D000FFF7FEFDFFE70299002008638DF80F0057
:1038E00007E000208DF80F0003E002208DF80F00A4
:1038F000FFE79DF80F0004B080BD000080B586B0E2
:10390000059005980068006920F44050059A1168F8
:10391000D26810430861059988680B694A69C969CA
:10392000184310430843049005980068C06849F2A2
:103930000C6188430499084305990968C860059893
:103940000068406920F44070059A1168926910433C
:1039500048610598006841F20001C4F20101884203
:1039600009D0FFE70598006841F20041C4F2010167
:10397000884204D1FFE7FEF7FFFC039003E0FEF767
:10398000E9FC0390FFE70598C069B0F5004F29D125
:10399000FFE703981921A0FB0101059A1368029320
:1039A00053685A00DB0FFCF7CCFC0299864648F2BC
:1039B0001F53C5F2EB13AEFB0320420910014FF079
:1039C000640C02FB1CEC322202EBCC02A2FB0332A1
:1039D000F82303EA521300EB4300C2F342121044EF
:1039E000886026E003981921A0FB0101059A13685D
:1039F000019353689A009B0FFCF7A3FC019984463E
:103A000048F21F52C5F2EB12ACFB023043096420AE
:103A100003FB10CC322000EB0C10A0FB0202F020C4
:103A200000EA521000EB0310C2F343121044886006
:103A3000FFE706B080BD000083B002900191ADF8B1
:103A40000220019802998862BDF8020002998885D7
:103A5000BDF802000299C885029900200864029905
:103A6000222081F83E00FFE70299002081F83C0007
:103A7000FFE702980168C86840F48070C860029847
:103A80000168486940F00100486102980168C8680F
:103A900040F02000C860002003B0704783B0019060
:103AA000019890F83D0021283AD1FFE701988068FD
:103AB000B0F5805F13D1FFE70198006978B9FFE79F
:103AC0000198006A0090009800886FF35F200199C8
:103AD000096848600199086A0230086208E0019AA2
:103AE000106A411C11620078019909684860FFE77B
:103AF0000199C88C0138C884000468B9FFE70198AF
:103B00000168C86820F08000C86001980168C86832
:103B100040F04000C860FFE700208DF80B0003E094
:103B200002208DF80B00FFE79DF80B0003B07047F3
:103B300080B540F26850C1F20000FFF72DFA80BD59
:103B4000FFE7FEE781B08DF803009DF90300002830
:103B50000ED4FFE79DF9031001F01F0201209040F1
:103B60004A094EF20011CEF2000141F82200FFE7AF
:103B700001B070474EF60C50CEF200000068C0F362
:103B80000220704782B08DF8070000919DF9070070
:103B900000280AD4FFE7009800019DF907104EF2B3
:103BA0000042CEF2000288540BE0009800019DF81C
:103BB000071001F00F014EF61452CEF200028854A5
:103BC000FFE702B07047000083B00290029800F057
:103BD000070000904EF60C51CEF2000108680190EB
:103BE00001984FF6FF02104001900198009A40EAB8
:103BF00002200022C0F2FA5210430190019808609E
:103C000003B0704781B0009001B0704780B582B0BA
:103C1000ADF806000420FFF725F8BDF8060040F2D5
:103C2000B441C1F200010860BDF8060000900098A0
:103C30004FF47A71484300904EF21001CEF2000129
:103C4000086840F00200086000984EF21402CEF2BC
:103C500000021060086840F00100086002B080BDFA
:103C600080B582B0ADF8060000200090FFE7009814
:103C7000BDF80610884209D2FFE74FF47A7000F0D1
:103C800007F8FFE7009801300090F0E702B080BD30
:103C900086B00590002001904EF21400CEF2000094
:103CA00000680090059840F2B441C1F20001096833
:103CB000484304904EF21800CEF2000000680390D2
:103CC000FFE74EF21800CEF2000000680290029862
:103CD000039988421ED0FFE702980399884207D2D1
:103CE000FFE703980299411A01980844019008E0FF
:103CF00000980299401A03990144019808440190E0
:103D0000FFE70298039001980499884201D3FFE7E6
:103D100001E0FFE7D5E706B07047000082B00190F0
:103D20000091FFE741F20000C4F201000068400684
:103D3000002801D4FFE7F5E79DF8040041F20401F3
:103D4000C4F201010860019802B0704780B582B0EA
:103D500040F25440C1F2000069464860012008600A
:103D600049F20920C0F6000042F26D21C0F60101BF
:103D70008022002307F0EEF906F05EFB02B080BD62
:103D800081B00090009841680844043801B0704741
:103D900080B58EB0FFE7FFE70020089043F63000C3
:103DA000C4F20200016841F010010160006800F0F7
:103DB000100008900898FFE7FFE7FFE7FFE7002003
:103DC000079043F63000C4F20200016841F0100190
:103DD0000160006800F0100007900798FFE7FFE718
:103DE000FFE7FFE70020069043F63000C4F2020030
:103DF000016841F010010160006800F010000690B9
:103E00000698FFE7FFE7FFE7FFE70020059043F68E
:103E10003000C4F20200016841F001010160006855
:103E200000F0010005900598FFE7FFE710200990DA
:103E3000002002900A90012001900B900220039034
:103E40000C9041F20000C4F20200009009A9049114
:103E5000FDF78EFE0098019BDDF808C0039A0499D7
:103E60004FF0080ECDF824E0CDF828C00B930C924B
:103E7000FDF77EFE0098019BDDF808C0039A0499C7
:103E80004FF0040ECDF824E0CDF828C00B930C922F
:103E9000FDF76EFE019B029A0398049909930A921A
:103EA0000B900C900020C4F20200FDF761FE0EB0F2
:103EB00080BD000080B584B0ADF80E0000210091F7
:103EC000029140F27660C1F20000028801924288BD
:103ED000019850430190084603F0AAFA03F0C0FB92
:103EE00000980290FFE70298019988420BD2FFE701
:103EF000BDF80E008021C6F600410880FFE7029859
:103F000001300290EFE704B080BD000080B582B0C0
:103F10008DF807009DF8070040F27661C1F20001BC
:103F200088719DF80700002840F08080FFE740F28C
:103F30007660C1F20000F02101804FF4A071418051
:103F4000808845F21051884214D1FFE740F2766133
:103F5000C1F200014FF4305008814FF428504881DD
:103F60004FF42C5088814FF4F07008804FF4487063
:103F7000488026E040F27660C1F20000808841F679
:103F80006311884211D1FFE740F27661C1F200016E
:103F90002C2008812B2048812A2088814FF4F07042
:103FA00008804FF4487048800AE040F27661C1F220
:103FB00000012C2008812A2048812B208881FFE7DE
:103FC000FFE740F27660C1F20000808845F21031D0
:103FD00088420AD0FFE740F27660C1F20000808894
:103FE00047F2967188420BD1FFE740F27661C1F249
:103FF00000014FF4A07008804FF4F0704880FFE794
:1040000040F27660C1F20000808849F606018842DD
:104010000BD1FFE740F27661C1F200014FF4F0707E
:1040200008804FF448704880FFE773E040F2766004
:10403000C1F200004FF4A0710180F021418080881E
:1040400045F21051884214D1FFE740F27661C1F287
:1040500000014FF4305008814FF4285048814FF44C
:104060002C5088814FF4487008804FF4F0704880DD
:1040700030E040F27660C1F20000808841F66311C2
:1040800088420AD0FFE740F27660C1F200008088E3
:1040900049F60601884211D1FFE740F27661C1F28C
:1040A00000012C2008812A2048812B2088814FF490
:1040B000487008804FF4F07048800AE040F2766162
:1040C000C1F200012C2008812A2048812B20888100
:1040D000FFE7FFE740F27660C1F20000808845F21A
:1040E000103188420AD0FFE740F27660C1F200004A
:1040F000808847F2967188420BD1FFE740F27661E3
:10410000C1F200014FF4F07008804FF4A0704880B5
:10411000FFE7FFE7002002F0DDFF02B080BD0000F6
:1041200080B58CB0CF2003F08BFA00200A9003F00A
:1041300077FAC120009003F073FA3020019003F069
:104140006FFAED2003F07CFA642003F069FA032093
:1041500003F066FA122003F063FA812003F060FA9C
:10416000E82003F06DFA852003F05AFA102004903D
:1041700003F056FA7A2003F053FACB2003F060FAEA
:10418000392003F04DFA2C2003F04AFA0A9803F084
:1041900047FA342003F044FA022003F041FAF720F2
:1041A00003F04EFA202003F03BFAEA2003F048FA2D
:1041B0000A9803F035FA0A9803F032FAC02003F0A7
:1041C0003FFA1B2003F02CFA009803F039FA012083
:1041D000079003F025FAC52003F032FA019803F0A6
:1041E0001FFA019803F01CFAC72003F029FAB72040
:1041F00003F016FA362003F023FA482003F010FAF1
:104200003A2003F01DFA552003F00AFAB12003F01A
:1042100017FA0A9803F004FA1A2003F001FAB620FC
:1042200003F00EFA0A20039003F0FAF9A22003F03B
:10423000F7F9F22003F004FA0A9803F0F1F92620C6
:1042400003F0FEF9079803F0EBF9E02003F0F8F92A
:104250000F20059003F0E4F92A20099003F0E0F91B
:10426000282003F0DDF90820029003F0D9F90E2090
:1042700003F0D6F9029803F0D3F9542003F0D0F9F3
:10428000A92003F0CDF9432003F0CAF9039803F005
:10429000C7F9059803F0C4F90A9803F0C1F90A9820
:1042A00003F0BEF90A9803F0BBF90A9803F0B8F9D5
:1042B000E12003F0C5F90A9803F0B2F9152003F0E4
:1042C000AFF9172003F0ACF9072003F0A9F911208A
:1042D0000B9003F0A5F9062003F0A2F92B2006901D
:1042E00003F09EF9562003F09BF93C2003F098F967
:1042F000052003F095F9049803F092F9059803F06E
:104300008FF93F20089003F08BF9089803F088F9A3
:10431000059803F085F9069803F092F90A9803F0DE
:104320007FF90A9803F07CF9079803F079F9089867
:1043300003F076F9099803F083F90A9803F070F90D
:104340000A9803F06DF90A9803F06AF9EF2003F078
:1043500067F90B9803F074F97820FFF781FC2920A6
:1043600003F06EF90CB080BD80B596B0FF200190CF
:1043700003F066F9019803F053F9982003F050F91F
:1043800006200D9003F04CF9BC2003F059F90120F0
:10439000129003F045F90F20109003F041F96120CD
:1043A00003F03EF9019803F03BF9129803F038F955
:1043B000129803F035F90B200A9003F031F9102020
:1043C000099003F02DF9372003F02AF9632003F058
:1043D00027F9019803F024F9019803F021F91298C4
:1043E00003F01EF9129803F01BF90020159003F05A
:1043F00017F9159803F014F9019803F011F95220F8
:1044000003F00EF9129803F00BF9159803F008F970
:104410004020069003F004F9BD2003F011F9129832
:1044200003F0FEF82320029003F0FAF845200390F1
:1044300003F0F6F86720049003F0F2F8129803F006
:10444000EFF8029803F0ECF8039803F0E9F8049809
:1044500003F0E6F8BE2003F0F3F8159803F0E0F857
:10446000129803F0DDF8AB2003F0DAF8602003F0D7
:10447000D7F82220059003F0D3F8059803F0D0F880
:10448000059803F0CDF8059803F0CAF8059803F0F5
:10449000C7F8C72003F0D4F83620149003F0C0F812
:1044A000ED2003F0CDF87F2003F0BAF8109803F068
:1044B000B7F8C02003F0C4F8109803F0B1F80A98D8
:1044C00003F0AEF80A200E9003F0AAF8FC2003F0E7
:1044D000B7F8082003F0A4F8DF20139003F0B0F839
:1044E000159803F09DF8159803F09AF8159803F0C5
:1044F00097F8159803F094F8159803F091F8202098
:10450000089003F08DF8F32003F09AF8742003F07C
:1045100087F8B42003F094F8159803F081F8159803
:1045200003F07EF8159803F07BF8F72003F088F885
:10453000822003F075F8B12003F082F8159803F09B
:104540006FF813200B9003F06BF80B9803F068F8EA
:10455000F22003F075F8802003F062F8042003F0E5
:104560005FF8069803F05CF8282003F059F8C120A2
:1045700003F066F8172003F053F88820079003F043
:104580004FF8079803F04CF8089803F049F8E0203A
:1045900003F056F8159803F043F80E9803F040F82E
:1045A000122003F03DF8099803F03AF80E200F901E
:1045B00003F036F8089803F033F8CC2003F030F815
:1045C000072003F02DF80D9803F02AF80A9803F05D
:1045D00027F80F9803F024F8109803F021F80D2025
:1045E0000C9003F01DF81520119003F019F80998AC
:1045F00003F016F8159803F013F8E12003F020F803
:10460000159803F00DF80A9803F00AF80B9803F0D8
:1046100007F80C9803F004F80F9803F001F81B203A
:1046200002F0FEFF712002F0FBFF0D9802F0F8FF90
:104630000D9802F0F5FF0E9802F0F2FF109802F0CC
:10464000EFFF0F9802F0ECFF109802F0E9FF1198CD
:1046500002F0E6FF0C2002F0E3FF159802F0E0FF05
:104660002A2002F0EDFF159802F0DAFF159802F00B
:10467000D7FF129802F0D4FF139802F0D1FF2B203D
:1046800002F0DEFF159802F0CBFF159802F0C8FF8C
:10469000032002F0C5FF1F2002F0C2FF3A2002F003
:1046A000CFFF552002F0BCFF149802F0C9FF159807
:1046B00002F0B6FF112002F0C3FF7820FFF7D0FA16
:1046C000292002F0BDFF1420FFF7CAFA2C2002F0C7
:1046D000B7FF16B080BD000080B5CEB0ED2002F06F
:1046E000AFFF0120219002F09BFFFE2002F098FF17
:1046F000EE2002F0A5FFDE2002F092FF21200B90B9
:1047000002F08EFFF12002F09BFF219802F088FF5B
:10471000DF2002F095FF1020459002F081FFC420B9
:104720002D9002F08DFF8F2002F07AFFC6200890B6
:1047300002F086FF00204A9002F072FFE2201690FD
:1047400002F06EFF169802F06BFF169802F068FFF9
:10475000BF2002F075FFAA20419002F061FFB02057
:1047600002F06EFF0D20009002F05AFF4A9802F00E
:1047700057FF009802F054FF4A9802F051FF1120B1
:10478000479002F04DFF4A9802F04AFF192002F0CC
:1047900047FF4A9802F044FF0B9802F041FF4A9805
:1047A00002F03EFF2D2002F03BFF4A9802F038FF56
:1047B0003D2002F035FF4A9802F032FF5D2026903E
:1047C00002F02EFF4A9802F02BFF269802F028FFF5
:1047D0004A9802F025FFB12002F032FF802002F05B
:1047E0001FFF4A9802F01CFF8B20109002F018FF68
:1047F0004A9802F015FF9620019002F011FF4A98A6
:1048000002F00EFFB22002F01BFF4A9802F008FFF0
:104810004A9802F005FF0220239002F001FF4A9817
:1048200002F0FEFE0320029002F0FAFE4A9802F027
:10483000F7FEB3202B9002F003FF4A9802F0F0FE3F
:104840004A9802F0EDFE4A9802F0EAFE4A9802F019
:10485000E7FE4A9802F0E4FE4A9802F0E1FE4A9828
:1048600002F0DEFE4A9802F0DBFE4A9802F0D8FE23
:104870004A9802F0D5FE4A9802F0D2FE4A9802F019
:10488000CFFE4A9802F0CCFE4A9802F0C9FE4A9840
:1048900002F0C6FE4A9802F0C3FE4A9802F0C0FE3B
:1048A0004A9802F0BDFE4A9802F0BAFE4A9802F019
:1048B000B7FE4A9802F0B4FE4A9802F0B1FE4A9858
:1048C00002F0AEFE4A9802F0ABFEB42002F0B8FE51
:1048D000109802F0A5FE4A9802F0A2FE019802F09C
:1048E0009FFE4A9802F09CFEA12002F099FE4A9891
:1048F00002F096FEB52002F0A3FE239802F090FE8F
:104900004A9802F08DFE029802F08AFE4A9802F060
:1049100087FE0420039002F083FE4A9802F080FE96
:10492000B62002F08DFE4A9802F07AFE4A9802F014
:1049300077FEB7201D9002F083FE4A9802F070FEC9
:104940004A9802F06DFE3F2002F06AFE4A9802F09B
:1049500067FE5E2002F064FE4A9802F061FE642069
:10496000489002F05DFE4A9802F05AFE8C2002F058
:1049700057FE4A9802F054FEAC2002F051FE4A98CD
:1049800002F04EFEDC20309002F04AFE4A9802F01F
:1049900047FE702002F044FE4A9802F041FE90204B
:1049A00002F03EFE4A9802F03BFEEB2002F038FE99
:1049B0004A9802F035FE309802F032FE4A9802F032
:1049C0002FFEB82002F03CFE4A9802F029FE4A98D9
:1049D00002F026FE4A9802F023FE4A9802F020FEDA
:1049E0004A9802F01DFE4A9802F01AFE4A9802F018
:1049F00017FE4A9802F014FEBA2002F021FE24208D
:104A0000069002F00DFE4A9802F00AFE4A9802F063
:104A100007FE4A9802F004FEC12002F011FE202099
:104A2000099002F0FDFD4A9802F0FAFD542002F0D0
:104A3000F7FD4A9802F0F4FDFF204B9002F0F0FDE4
:104A40004A9802F0EDFDC2201E9002F0F9FD0A2006
:104A5000189002F0E5FD4A9802F0E2FD039802F09A
:104A6000DFFD4A9802F0DCFDC32002F0E9FD3C20A6
:104A7000249002F0D5FD4A9802F0D2FD3A204690EB
:104A800002F0CEFD4A9802F0CBFD392002F0C8FDBD
:104A90004A9802F0C5FD372002F0C2FD4A9802F0A4
:104AA000BFFD249802F0BCFD4A9802F0B9FD362003
:104AB0000D9002F0B5FD4A9802F0B2FD322033901D
:104AC00002F0AEFD4A9802F0ABFD2F20049002F0F8
:104AD000A7FD4A9802F0A4FD2C204D9002F0A0FD05
:104AE0004A9802F09DFD2920499002F099FD4A98CC
:104AF00002F096FD2620059002F092FD4A9802F001
:104B00008FFD069802F08CFD4A9802F089FD069808
:104B100002F086FD4A9802F083FD2320379002F0D0
:104B20007FFD4A9802F07CFD249802F079FD4A98B6
:104B300002F076FD0D9802F073FD4A9802F070FDC8
:104B4000339802F06DFD4A9802F06AFD049802F075
:104B500067FD4A9802F064FD4D9802F061FD4A98A5
:104B600002F05EFD499802F05BFD4A9802F058FDA4
:104B7000059802F055FD4A9802F052FD069802F0A1
:104B80004FFD4A9802F04CFD069802F049FD4A9804
:104B900002F046FD379802F043FD4A9802F040FDCE
:104BA0002D9802F04DFD62201A9002F039FD4A98CE
:104BB00002F036FD0520179002F032FD4A9802F00F
:104BC0002FFD8420289002F02BFD4A9802F028FD4A
:104BD000F020429002F024FD4A9802F021FD1820B6
:104BE000079002F01DFD4A9802F01AFDA42002F081
:104BF00017FD4A9802F014FD079802F011FD4A983B
:104C000002F00EFD5020439002F00AFD4A9802F097
:104C100007FD0C2002F004FD4A9802F001FD172068
:104C20000A9002F0FDFC4A9802F0FAFC952002F08E
:104C3000F7FC4A9802F0F4FCF320449002F0F0FCF8
:104C40004A9802F0EDFCE620319002F0E9FC4A9827
:104C500002F0E6FCC52002F0F3FC339802F0E0FC21
:104C60004A9802F0DDFC4420409002F0D9FC4A98BA
:104C700002F0D6FC652002F0D3FC4A9802F0D0FC8A
:104C80007620349002F0CCFC4A9802F0C9FC8820CF
:104C90003C9002F0C5FC4A9802F0C2FC089802F071
:104CA000CFFC099802F0BCFC4A9802F0B9FC0A98C3
:104CB00002F0B6FC4A9802F0B3FC219802F0B0FC76
:104CC0004A9802F0ADFCC7201F9002F0B9FC4A9848
:104CD00002F0A6FC4A9802F0A3FC4A9802F0A0FC5D
:104CE0004A9802F09DFCC82002F0AAFC4A9802F003
:104CF00097FC4A9802F094FC4A9802F091FC4A987A
:104D000002F08EFCC92002F09BFC4A9802F088FC5D
:104D10004A9802F085FC4A9802F082FC4A9802F018
:104D20007FFC4A9802F07CFC4A9802F079FC4A9891
:104D300002F076FC4A9802F073FC4A9802F070FC8C
:104D40004A9802F06DFC4A9802F06AFC4A9802F018
:104D500067FC4A9802F064FC4A9802F061FC4A98A9
:104D600002F05EFC4A9802F05BFCE020159002F035
:104D700067FC16200C9002F053FC4A9802F050FC9D
:104D80001C20199002F04CFC4A9802F049FC0B9848
:104D900002F046FC4A9802F043FC0D9802F040FCF9
:104DA0004A9802F03DFC462002F03AFC4A9802F094
:104DB00037FC52200E9002F033FC4A9802F030FC8F
:104DC000489802F02DFC4A9802F02AFC7A200F90B5
:104DD00002F026FC4A9802F023FC109802F020FC16
:104DE0004A9802F01DFC99203E9002F019FC4A9866
:104DF00002F016FCA820119002F012FC4A9802F072
:104E00000FFCB920129002F00BFC4A9802F008FC4B
:104E10002D9802F005FC4A9802F002FCCA2013907B
:104E200002F0FEFB4A9802F0FBFBD220149002F045
:104E3000F7FB4A9802F0F4FBD92002F0F1FB4A9804
:104E400002F0EEFB159802F0EBFB4A9802F0E8FB4B
:104E5000449802F0E5FB4A9802F0E2FBE12002F000
:104E6000EFFB0C9802F0DCFB4A9802F0D9FB199892
:104E700002F0D6FB4A9802F0D3FB222002F0D0FBCE
:104E80004A9802F0CDFB0D9802F0CAFB4A9802F056
:104E9000C7FB4520399002F0C3FB4A9802F0C0FBE3
:104EA0000E9802F0BDFB4A9802F0BAFB489802F057
:104EB000B7FB4A9802F0B4FB0F9802F0B1FB4A9896
:104EC00002F0AEFB109802F0ABFB4A9802F0A8FB90
:104ED0003E9802F0A5FB4A9802F0A2FB119802F05E
:104EE0009FFB4A9802F09CFB129802F099FB4A98AB
:104EF00002F096FB2D9802F093FB4A9802F090FB8B
:104F0000139802F08DFB4A9802F08AFB149802F085
:104F100087FB4A9802F084FBD82002F081FB4A9874
:104F200002F07EFB159802F07BFB4A9802F078FBBA
:104F3000449802F075FB4A9802F072FB169802F052
:104F40007FFB179802F06CFB4A9802F069FB0B207C
:104F500002F066FB4A9802F063FB1B2002F060FB44
:104F60004A9802F05DFB3420329002F059FB4A98D7
:104F700002F056FB409802F053FB4A9802F050FBB7
:104F80004F2002F04DFB4A9802F04AFB612002F0EC
:104F900047FB4A9802F044FB792002F041FB4A9813
:104FA00002F03EFB3C9802F03BFB4A9802F038FBD3
:104FB00097201B9002F034FB4A9802F031FBA620A8
:104FC0001C9002F02DFB4A9802F02AFB1D9802F07B
:104FD00027FB4A9802F024FB1E9802F021FB4A9816
:104FE00002F01EFB1F9802F01BFB4A9802F018FB10
:104FF000D120209002F014FB4A9802F011FBD62039
:1050000002F00EFB4A9802F00BFBDD20229002F02A
:1050100007FB4A9802F004FB449802F001FB4A980F
:1050200002F0FEFAE32002F00BFB179802F0F8FA08
:105030004A9802F0F5FA189802F0F2FA4A9802F04B
:10504000EFFA199802F0ECFA4A9802F0E9FA3320E4
:10505000389002F0E5FA4A9802F0E2FA409802F03D
:10506000DFFA4A9802F0DCFA439802F0D9FA4A983B
:1050700002F0D6FA1A9802F0D3FA4A9802F0D0FA5F
:10508000782002F0CDFA4A9802F0CAFA3C9802F071
:10509000C7FA4A9802F0C4FA1B9802F0C1FA4A987B
:1050A00002F0BEFA1C9802F0BBFA4A9802F0B8FA75
:1050B0001D9802F0B5FA4A9802F0B2FA1E9802F072
:1050C000AFFA4A9802F0ACFA1F9802F0A9FA4A988F
:1050D00002F0A6FA209802F0A3FA4A9802F0A0FA89
:1050E000D52002F09DFA4A9802F09AFA229802F02E
:1050F00097FA4A9802F094FA449802F091FA4A9882
:1051000002F08EFAE42002F09BFA219802F088FA6D
:105110004A9802F085FA219802F082FA4A9802F041
:105120007FFA239802F07CFA4A9802F079FA2A2052
:1051300002F076FA4A9802F073FA249802F070FAB4
:105140004A9802F06DFA4B20259002F069FA4A98CD
:1051500002F066FA269802F063FA4A9802F060FAC2
:105160007420279002F05CFA4A9802F059FA2898C5
:1051700002F056FA4A9802F053FA9320299002F06E
:105180004FFA4A9802F04CFAA2202A9002F048FA0C
:105190004A9802F045FA2B9802F042FA4A9802F037
:1051A0003FFABE202C9002F03BFA4A9802F038FAFF
:1051B0002D9802F035FA4A9802F032FACD202E905E
:1051C00002F02EFA4A9802F02BFAD3202F9002F028
:1051D00027FA4A9802F024FA229802F021FA4A9813
:1051E00002F01EFA449802F01BFA4A9802F018FAEC
:1051F000E52002F025FA4A9802F012FA4A9802F0E5
:105200000FFA4A9802F00CFA4A9802F009FA239829
:1052100002F006FA4A9802F003FA499802F000FAFE
:105220004A9802F0FDF9249802F0FAF94A9802F03F
:10523000F7F9259802F0F4F94A9802F0F1F9269866
:1052400002F0EEF94A9802F0EBF9279802F0E8F93B
:105250004A9802F0E5F9289802F0E2F94A9802F03B
:10526000DFF9299802F0DCF94A9802F0D9F92A9876
:1052700002F0D6F94A9802F0D3F92B9802F0D0F94F
:105280004A9802F0CDF92C9802F0CAF94A9802F037
:10529000C7F92D9802F0C4F94A9802F0C1F92E9886
:1052A00002F0BEF94A9802F0BBF92F9802F0B8F963
:1052B0004A9802F0B5F9309802F0B2F94A9802F033
:1052C000AFF9449802F0ACF94A9802F0A9F9319884
:1052D00002F0B6F9479802F0A3F94A9802F0A0F953
:1052E000329802F09DF94A9802F09AF956203690C9
:1052F00002F096F94A9802F093F9349802F090F986
:105300004A9802F08DF977203B9002F089F94A988B
:1053100002F086F966203F9002F082F94A9802F086
:105320007FF93C9802F07CF94A9802F079F93E98AE
:1053300002F076F94A9802F073F9BB203D9002F032
:105340006FF94A9802F06CF93E9802F069F94A98B0
:1053500002F066F93F9802F063F94A9802F060F9AA
:1053600055204C9002F05CF94A9802F059F94C989B
:1053700002F056F94A9802F053F9399802F050F9C0
:105380004A9802F04DF9432002F04AF94A9802F097
:1053900047F9409802F044F94A9802F041F9E720B1
:1053A00002F04EF9339802F03BF94A9802F038F9CE
:1053B0004C9802F035F94A9802F032F9349802F02C
:1053C0002FF94A9802F02CF93F9802F029F94A98EF
:1053D00002F026F96720359002F022F94A9802F08F
:1053E0001FF9359802F01CF94A9802F019F9872044
:1053F0003A9002F015F94A9802F012F93E9802F03C
:105400000FF94A9802F00CF93D9802F009F94A9810
:1054100002F006F93E9802F003F94A9802F000F90A
:105420003B9802F0FDF84A9802F0FAF8409802F032
:10543000F7F84A9802F0F4F8369802F0F1F84A9832
:1054400002F0EEF8379802F0EBF84A9802F0E8F82C
:10545000389802F0E5F84A9802F0E2F8399802F03C
:10546000DFF84A9802F0DCF8E82002F0E9F84A9800
:1054700002F0D6F84A9802F0D3F83E9802F0D0F83D
:105480004A9802F0CDF83A9802F0CAF84A9802F029
:10549000C7F83C9802F0C4F84A9802F0C1F83B986B
:1054A00002F0BEF84A9802F0BBF83F9802F0B8F854
:1054B0004A9802F0B5F83C9802F0B2F84A9802F027
:1054C000AFF8419802F0ACF84A9802F0A9F83D987C
:1054D00002F0A6F84A9802F0A3F83E9802F0A0F86D
:1054E0004A9802F09DF83F9802F09AF84A9802F024
:1054F00097F84C9802F094F84A9802F091F84C987A
:1055000002F08EF84A9802F08BF8409802F088F882
:105510004A9802F085F8409802F082F84A9802F022
:105520007FF84C9802F07CF84A9802F079F8E9206C
:1055300002F086F8419802F073F84A9802F070F889
:105540004A9802F06DF84A9802F06AF84A9802F018
:1055500077F8419802F064F8CF2002F071F84A9889
:1055600002F05EF84A9802F05BF84A9802F058F8A8
:105570004A9802F055F84A9802F052F84A9802F018
:105580004FF84A9802F04CF84A9802F049F84A98C5
:1055900002F046F84A9802F043F84A9802F040F8C0
:1055A0004A9802F03DF84A9802F03AF84A9802F018
:1055B00037F84A9802F034F84A9802F031F84A98DD
:1055C00002F02EF8429802F03BF84A9802F028F8D0
:1055D000439802F025F84A9802F022F84A9802F01F
:1055E0001FF84A9802F01CF8449802F029F84A98EB
:1055F00002F016F8F92002F023F8062002F010F865
:10560000459802F00DF8499802F00AF84A9802F01D
:1056100007F8469802F014F84C9802F001F8479801
:1056200002F00EF84898FEF71BFB499802F008F8C4
:10563000352002F005F84A9801F0F2FF512001F000
:10564000FFFF4B9801F0ECFF532001F0F9FF4D985C
:1056500001F0E6FF4C9801F0F3FF822001F0E0FF3B
:105660004D9801F0EDFF4EB080BD000080B5B4B0A4
:105670004FF4704019905521329101F0FBFF4FF229
:1056800001001A90AA211B9101F0F4FF4FF20200D1
:105690001C9052211D9101F0EDFF4FF203001E906E
:1056A00008211F9101F0E6FF4FF204002090012134
:1056B000289101F0DFFF4FF430400D21009101F0FF
:1056C000D9FF00994BF2010001F0D4FF00994BF291
:1056D000020001F0CFFF4FF43640239034210D91AA
:1056E00001F0C8FF0D994BF2016001F0C3FF0D9965
:1056F0004BF2026001F0BEFF00994FF4314021905F
:1057000001F0B8FF00994BF20110229001F0B2FFB6
:1057100000994BF2021001F0ADFF0D994FF43740A4
:10572000249001F0A7FF0D994BF20170259001F034
:10573000A1FF0D994BF2027001F09CFF4FF4324033
:105740000021319101F096FF31994BF2012001F0D7
:1057500091FF31994BF2022001F08CFF4FF4384059
:1057600027902421029101F085FF02994BF6010058
:10577000299001F07FFF02994BF602002A9001F078
:1057800079FF28994FF43F4001F074FF4FF4334004
:105790000F21019101F06EFF01994BF2013001F0F0
:1057A00069FF01994BF2023001F064FF0D994FF44B
:1057B000394001F05FFF0D994BF6011001F05AFFDF
:1057C0000D994BF6021001F055FF1F994FF435402B
:1057D00001F050FF1F994BF2015001F04BFF1F9950
:1057E0004BF2025001F046FF4FF4424003212B914F
:1057F00001F040FF02994FF43A4001F03BFF02995B
:105800004BF6012001F036FF02994BF6022001F021
:1058100031FF31994FF43C402C9001F02BFF4BF6B7
:1058200001402D907821339101F024FF31994BF6FE
:1058300002402E9001F01EFF31994FF43D4001F0DF
:1058400019FF33994BF6015001F014FF31994BF6D3
:10585000025001F00FFF31994FF43E4001F00AFF72
:105860004BF60160642101F005FF31994FF451407E
:1058700001F000FF4DF201103321179101F0FAFE03
:1058800031994DF2021001F0F5FE0D994DF2031021
:1058900001F0F0FE31994DF2041001F0EBFE4DF2F3
:1058A00005103A21039101F0E5FE31994DF2061001
:1058B00001F0E0FE4DF207104A21049101F0DAFEFA
:1058C00031994DF2081001F0D5FE4DF209105C211E
:1058D000059101F0CFFE31994DF20A1001F0CAFE98
:1058E0004DF20B108121069101F0C4FE31994DF269
:1058F0000C1001F0BFFE4DF20D10A621079101F032
:10590000B9FE31994DF20E1001F0B4FE4DF20F10B8
:10591000E521089101F0AEFE28994DF2101001F03A
:10592000A9FE4DF211101321099101F0A3FE28994F
:105930004DF2121001F09EFE4DF2131054210A9107
:1059400001F098FE28994DF2141001F093FE4DF2EB
:10595000151082210B9101F08DFE28994DF2161041
:1059600001F088FE4DF21710CA210C9101F082FE61
:105970004DF2181002212F9101F07CFE31994DF269
:10598000191001F077FE2F994DF21A1001F072FEF6
:1059900028994DF21B1001F06DFE2F994DF21C104D
:1059A00001F068FE0D994DF21D1001F063FE2F9974
:1059B0004DF21E1001F05EFE4DF21F1067210E9198
:1059C00001F058FE2F994DF2201001F053FE4DF2D8
:1059D000211084210F9101F04DFE2F994DF22210DC
:1059E00001F048FE4DF22310A421109101F042FE77
:1059F0002F994DF2241001F03DFE4DF22510B721F4
:105A0000119101F037FE2F994DF2261001F032FE70
:105A10004DF22710CF21129101F02CFE2F994DF25B
:105A2000281001F027FE4DF22910DE21139101F01C
:105A300021FE2F994DF22A1001F01CFE4DF22B1081
:105A4000F221149101F016FE2F994DF22C1001F065
:105A500011FE4DF22D10FE21159101F00BFE2B9938
:105A60004DF22E1001F006FE4DF22F10102116916E
:105A700001F000FE2B994DF2301001F0FBFD17995B
:105A80004DF2311001F0F6FD2B994DF2321001F07C
:105A9000F1FD4DF233106D21189101F0EBFD3199BC
:105AA0004FF4524001F0E6FD17994DF2012001F04C
:105AB000E1FD31994DF2022001F0DCFD0D994DF22E
:105AC000032001F0D7FD31994DF2042001F0D2FD01
:105AD00003994DF2052001F0CDFD31994DF20620DC
