:020000040800F2
:10000000A04501203D03000875360008232C000898
:1000100071360008550900082D3F00080000000057
:100020000000000000000000000000007D02000849
:100030008B0A000800000000D9020008E73A000817
:100040006103000861030008610300086103000800
:1000500061030008610300086103000861030008F0
:1000600061030008610300086103000861030008E0
:1000700061030008610300086103000861030008D0
:1000800061030008610300086103000861030008C0
:1000900061030008610300086103000861030008B0
:1000A00061030008610300086103000861030008A0
:1000B00061030008113B00086103000861030008A8
:1000C0006103000861030008610300086103000880
:1000D000610300081D3F0008610300086103000878
:1000E0006103000861030008610300086103000860
:1000F0006103000861030008610300086103000850
:10010000610300086103000861030008610300083F
:10011000610300086103000861030008610300082F
:100120006103000861030008590900086909000813
:10013000610300086103000861030008610300080F
:1001400061030008610300086103000861030008FF
:1001500061030008610300086103000861030008EF
:1001600061030008610300086103000861030008DF
:10017000610300086103000861030008000000003B
:10018000610300086103000800F002F800F067F85E
:100190000AA090E8000C82448344AAF10107DA45E2
:1001A00001D100F05CF8AFF2090EBAE80F0013F0CD
:1001B000010F18BFFB1A43F0010318475CAC0000A5
:1001C0007CAC00000A444FF0000C10F8013B13F027
:1001D000070408BF10F8014B1D1108BF10F8015BA0
:1001E000641E05D010F8016B641E01F8016BF9D193
:1001F00013F0080F1EBF10F8014BAD1C0C1B09D1EA
:100200006D1E58BF01F801CBFAD505E014F8016B5B
:1002100001F8016B6D1EF9D59142D6D370470000ED
:100220000023002400250026103A28BF78C1FBD8FF
:10023000520728BF30C148BF0B607047642900F0E7
:100240008581782900F0BE81732900F0E3820020C7
:1002500070471FB50AF0AAFD1FBD10B510BD00F014
:1002600047FB1146FFF7F5FF07F008FA00F065FBC2
:1002700003B4FFF7F2FF03BC03F08EFE2C4B1968AA
:100280000868B0E8F04F80F30988BFF36F8F4FF034
:10029000000080F3118870470000000008480068E3
:1002A000006880F308884FF0000080F3148862B67D
:1002B00061B6BFF34F8FBFF36F8F00DF00BF00BF8A
:1002C00008ED00E0DFF80C00016841F47001016006
:1002D000704700BF88ED00E0EFF30980BFF36F8F38
:1002E000134B1A681EF0100F08BF20ED108A20E98A
:1002F000F04F106009B44FF0500080F31188BFF345
:100300004F8FBFF36F8F09F05BFD4FF0000080F35C
:10031000118809BC19680868B0E8F04F1EF0100F8A
:1003200008BFB0EC108A80F30988BFF36F8F704765
:1003300090000020EFF30580704700000C48016832
:1003400041F4700101600B4880470B480047FEE70D
:10035000FEE7FEE7FEE7FEE7FEE7FEE7FEE7FEE775
:10036000FEE7000005480649044A064B70470000B6
:1003700088ED00E0FD3A000889010008A041012055
:10038000A0450120A0410120704753EA020C00F073
:1003900069802DE9F04B4FF00006002B1FBFB3FA28
:1003A00083F503FA05F424FA05F65E4012BF1643FE
:1003B000B2FA82F502FA05F4C5F120051EBF22FA51
:1003C00005FC44EA0C04203556EA044C4FEA144478
:1003D00018BF641C4FF000084FF00009904271EB09
:1003E000030C39D3002919BFB1FA81F701FA07F6D6
:1003F000B0FA80F700FA07F6C7F120071EBF20FA0F
:1004000007FC46EA0C062037B6FBF4FCA7EB050711
:10041000103F07F01F0BCBF120060CFA0BFB2CFA58
:1004200006F644BFB3460026202FA4BF5E464FF019
:10043000000B5BEA060C08BF4FF0010B19EB0B0930
:10044000ABFB027C48EB0608C01B06FB02CC0BFB97
:1004500003CC71EB0C01C1E70B460246414648460E
:10046000BDE8F08B13B54FF000004FF00001AFF383
:100470000080BDE81C4070470FB4044910B503AAC2
:10048000029800F0CBF910BC5DF814FB14000020BA
:100490002DE9F0410E460446002020622046E16826
:1004A000884730B3252805D0D4E901219047206A38
:1004B000401CF2E7E168204600278847050018D075
:1004C000A5F14100192802D820354FF400673246C3
:1004D000294620462760FFF7B1FE40B1012804D02D
:1004E000F61D26F007060836D8E7361DD6E728465B
:1004F000DAE7206ABDE8F08170B50C460546012AAE
:1005000005D02878800600D5EA69002302E001239F
:1005100005E05B1C934202D2E05C0028F9D1A86997
:10052000E618C01AA861286A184428622846AFF362
:10053000008004E0D5E9012114F8010B9047B44292
:10054000F8D32846AFF3008070BD00002DE9F041DC
:100550000646002410687529314616A510D0AFF361
:100560000080002802DA404213A507E031688A07BC
:1005700001D512A502E0490704D511A5012401E027
:10058000AFF3008000210A2206F1240709E0B0FB46
:10059000F2FCB0FBF2F302FB1C003030785418463A
:1005A000491C0028F3D123462A463046BDE8F041D5
:1005B00000F0ACB8000000002D0000002B0000008F
:1005C0002000000070B504460D4621461068AFF3C8
:1005D00000802188090502D50F4A7A4402E00E4ABC
:1005E0007A440E32002104F1240305E000F00F06E6
:1005F0000009965D5E54491C0028F7D1207800233D
:10060000000704D5702D02D009B102231132204613
:10061000BDE8704000F07AB812A80000032A40F24A
:10062000308010F0030C00F0158011F8013BBCF194
:10063000020F624498BF11F801CB00F8013B38BFAC
:1006400011F8013BA2F1040298BF00F801CB38BFBA
:1006500000F8013B11F0030300F0F280083AC0F00B
:10066000088051F8043B083A51F804CBA0E8081080
:10067000F5E7121D5CBF51F8043B40F8043BAFF3B3
:100680000080D20724BF11F8013B11F801CB48BF0D
:1006900011F8012B24BF00F8013B00F801CB48BF43
:1006A00000F8012B704702F0FF0343EA032242EAFD
:1006B000024200F0F9B84FF0000200B5134694462C
:1006C0009646203922BFA0E80C50A0E80C50B1F1AA
:1006D0002001BFF4F7AF090728BFA0E80C5048BFBE
:1006E0000CC05DF804EB890028BF40F8042B08BF5C
:1006F000704748BF20F8022B11F0804F18BF00F858
:10070000012B704770477047704770472DE9F047DD
:100710000D4699469246044600F124080168880671
:1007200004D5E06921F01001216000E00120A84219
:1007300001DD471B00E00027A1697A1902EB0900DF
:10074000081AA0612078C00602D42046AFF30080CA
:10075000002608E0D4E901211AF806009047206A33
:10076000401C761C20624E45F4DB2078C0060AD57A
:100770002046AFF3008006E0D4E901213020904705
:10078000206A401C2062381EA7F10107F4DC07E054
:10079000D4E9012118F805009047206A401C206226
:1007A000281EA5F10105F3DC2046AFF30080207878
:1007B000000602D50220BDE8F0870120FBE700001B
:1007C00001694A1C02610878704700B58FB0CDE915
:1007D00001310021059105497944CDE90310114605
:1007E0006846FFF755FE0FB000BD0000E5FFFFFFB4
:1007F00010B5436913B1AFF3008001E0FFF77CFE51
:10080000012010BD127800F124010A7000224A7004
:100810000122EDE711684FF0FF32E9E7074B70B5B1
:100820000D467B44FFF7D1FF0446284600F05CF8F4
:1008300010B14FF0FF3070BD204670BDDF380000B2
:1008400010B5203AC0F00B80B1E81850203AA0E86B
:100850001850B1E81850A0E81850BFF4F5AF5FEA9F
:10086000027C24BFB1E81850A0E8185044BF18C952
:1008700018C0BDE810405FEA827C24BF51F8043BF9
:1008800040F8043B08BF7047D20728BF31F8023B4D
:1008900048BF11F8012B28BF20F8023B48BF00F8E1
:1008A000012B70474FF000020429C0F0128010F0B5
:1008B000030C3FF402AFCCF1040CBCF1020F18BFE3
:1008C00000F8012BA8BF20F8022BA1EB0C01FFF7C9
:1008D000F4BE5FEAC17C24BF00F8012B00F8012BB5
:1008E00048BF00F8012B7047007B00F08000704784
:1008F000754600F02BF8AE4605006946534620F0D9
:100900000700854618B020B5FFF72CFDBDE8204054
:100910004FF000064FF000074FF000084FF0000BBB
:1009200021F00701AC46ACE8C009ACE8C009ACE86E
:10093000C009ACE8C0098D46704710B50446AFF356
:1009400000802046BDE81040FFF792BC0048704789
:100950003C41012000BFFEE710B5024800F074F9E9
:1009600010BD0000F803002010B5024800F06CF93B
:1009700010BD0000580400200146087810381823E4
:10098000B0FBF3F20848805CC865032A05D9086803
:100990006FF30900001D886503E008686FF3090024
:1009A0008865886D70470000CEAD000801460020C4
:1009B0008A6A8B69CBB932B1012A0DD0022A03D0E1
:1009C000032A10D10EE000BFCB6A03F08073B3F1AD
:1009D000807F00D1012007E0CB6AB3F1C07F00D156
:1009E000012001E000E000BF34E08B69B3F5005F57
:1009F0001AD132B1012A07D0022A03D0032A11D119
:100A00000AE000BF01200EE0CB6A03F08073B3F16F
:100A1000807F00D1012006E0CB6AB3F1C07F00D116
:100A2000012000E000BF15E032B1012A05D0022A02
:100A300004D0032A0CD103E000BF00BF012008E06E
:100A4000CB6A03F08073B3F1807F00D1012000E016
:100A500000BF00BF704730B50468246824F48024C8
:100A600005682C60046863608468402C04D10468C5
:100A7000A2600468E16003E00468A1600468E260C9
:100A800030BD01E002F0E0FDFCE7704770B50446C0
:100A90001D460023B5F5804F13D154F822300C4881
:100AA0000340D1E9000640EA06108E6840EA0620BD
:100AB0008E8940EA06408E693043034344F8223071
:100AC00003E06FF0704044F82200002070BD000089
:100AD0000000F0CF10B503460022086853F820202C
:100AE00012480240D1E901042043CC6820430C693C
:100AF00020434C6920438C692043CC6920430C6A15
:100B000020434C6A20438C6A2043CC6A2043CC6B40
:100B100020430C6B204302438868082801D142F02F
:100B20004002086843F82020002010BD8000F0FF3C
:100B300030B503460024501C53F8204004F04044D4
:100B4000D1E9000540EA05108D6840EA05208D894D
:100B500040EA0545088A401E45EA0055087D801E8A
:100B600045EA00608D6928430443501C43F8204047
:100B7000002030BD70B50446A56D00F079FB064637
:100B800094F83500022808D08020606500BF00205E
:100B900084F8340000BF012070BD2068006820F098
:100BA0001600216808602068406920F080002168F4
:100BB0004861206C08B9A06C28B12068006820F05A
:100BC0000800216808602068006820F001002168A2
:100BD00008600FE000F04CFB801B05280AD920209C
:100BE000606500BF002084F8340000BF032084F853
:100BF0003500D1E72068006800F001000028E9D145
:100C000094F85C103F208840A86000BF002084F862
:100C1000340000BF012084F835000020BCE7014605
:100C200091F83500022803D08020486501207047E4
:100C3000052081F835000868006820F001000A6886
:100C400010600020F3E70000F8B504460020009093
:100C50008C4800684FF41651B0FBF1F7A56D2E6873
:100C600094F85C1008208840304098B120680068F3
:100C700000F0040070B12068006820F004002168D2
:100C8000086094F85C1008208840A860606D40F00F
:100C90000100606594F85C1001208840304068B124
:100CA0002068406900F0800040B194F85C10012099
:100CB0008840A860606D40F00200606594F85C10A8
:100CC00004208840304068B12068006800F00200CD
:100CD00040B194F85C1004208840A860606D40F03A
:100CE0000400606594F85C1010208840304078B3B0
:100CF0002068006800F0080050B394F85C101020E1
:100D00008840A8602068006800F4802080B12068D6
:100D1000006800F4002028B9206CC8B12046216C7E
:100D2000884715E0A06C98B12046A16C88470FE079
:100D30002068006800F4807028B92068006820F0FE
:100D4000080021680860206C10B12046216C88479B
:100D500094F85C10202088403040002865D020683E
:100D6000006800F0100000285FD094F85C1020208C
:100D70008840A86094F83500052828D120680068CC
:100D800020F01600216808602068406920F080008B
:100D900021684861206C08B9A06C28B120680068FF
:100DA00020F008002168086094F85C103F2088401B
:100DB000A86000BF002084F8340000BF012084F840
:100DC0003500206D10B12046216D8847F8BD2068A0
:100DD000006800F4802080B12068006800F40020E2
:100DE00028B9606C10B12046616C88471DE0E06B4B
:100DF000D8B12046E16B884717E02068006800F40E
:100E0000807068B92068006820F0100021680860D0
:100E100000BF002084F8340000BF012084F83500B2
:100E2000E06B10B12046E16B8847606D38B3606DB0
:100E300000F00100F0B1052084F83500206800685A
:100E400020F001002168086000BF0098401C00905D
:100E5000B84200D905E02068006800F001000028D1
:100E6000F3D100BF00BF002084F8340000BF012090
:100E700084F83500E06C10B12046E16C884700BF73
:100E8000A4E70000000000202DE9F0410446002501
:100E900000F0EEF9074614B90120BDE8F081606A60
:100EA00000B100BF00BF002084F8340000BF022062
:100EB00084F835002068006820F00100216808608F
:100EC0000AE000F0D5F9C01B052805D9202060658F
:100ED000032084F83500E0E72068006800F0010096
:100EE0000028EED12068056821480540D4E90101B9
:100EF0000843E16808432169084361690843A1691F
:100F00000843E1690843216A08430543606A0428ED
:100F100003D1D4E90B01084305432068056020682C
:100F2000456925F00705606A0543606A04280DD10C
:100F3000A06A0543E06A48B12046FFF737FD28B1B3
:100F400040206065012084F83500A6E720684561EF
:100F50002046FFF711FD064694F85C103F208840BC
:100F6000B06000206065012084F83500002094E71F
:100F70003F8010F02DE9F04704460D4616461F4607
:100F80004FF00008D4F8589000BF94F834000128BE
:100F900002D10220BDE8F087012084F8340000BFB0
:100FA00094F83500012825D1022084F8350000206E
:100FB00060653B46324629462046FFF74CFD94F8D3
:100FC0005C103F208840C9F808002068006840F0A5
:100FD000160021680860206C28B12068006840F085
:100FE0000800216808602068006840F0010021685E
:100FF000086006E000BF002084F8340000BF4FF016
:1010000002084046C6E7000070B5044600F030F91B
:1010100006462546681C10B104480078054400BF08
:1010200000F026F9801BA842FAD370BD24000020EE
:10103000F8B502460B460025002400200021DEE022
:10104000012606FA01F51E6806EA0504AC4275D1D0
:101050001E7906F00306012E04D01E7906F0030661
:10106000022E13D190684F000326BE40B0434F00BC
:10107000DE68BE4030439060506801268E40B04329
:101080001E79C6F300168E40304350601E7906F07C
:101090000306032E09D0D0684F000326BE40B0439C
:1010A0004F009E68BE403043D0601E7906F00306B4
:1010B000022E13D1CF0802F1200656F827004E0762
:1010C000F70E0F26BE40B0434F07FF0E1E69BE400D
:1010D0003043CF0802F1200646F8270010684F0081
:1010E0000326BE40B0431E7906F003064F00BE4003
:1010F000304310605E6806F08056B6F1805F7DD1A7
:1011000000BF00260096404E366846F480463E4FAB
:101110003E603E46366806F48046009600BF00BF3B
:101120003A4E8F0856F827008E07370F0F26BE401D
:10113000B043374EB24202D1002624E05EE0354E85
:10114000B24201D101261EE0334EB24201D1022645
:1011500019E0324EB24201D1032614E0304EB242C1
:1011600001D104260FE02F4EB24201D105260AE03C
:101170002D4EB24201D1062605E02C4EB24201D1DD
:10118000072600E008268F073F0FBE4030431F4E62
:101190008F0846F82700264E3068A0435E6806F4A4
:1011A0008036B6F5803F00D12043214E3060361D99
:1011B0003068A0435E6806F40036B6F5003F00D103
:1011C00020431B4E361D3060361D3068A0435E68DC
:1011D00006F48016B6F5801F00D12043144E083661
:1011E0003060361D3068A0435E6806F40016B6F520
:1011F000001F00D120430E4E0C363060491C1029D0
:10120000FFF41EAFF8BD000044380240083801402A
:10121000000002400004024000080240000C0240AE
:10122000001002400014024000180240001C02405E
:10123000003C0140024613690B400BB1012000E065
:101240000020704710B5426921EA020302EA010456
:1012500043EA0443836110BD0AB1816101E00B04DC
:101260008361704701480068000C7047002004E06B
:1012700001480068704700001C00002070B504465B
:101280000CB9012070BD94F83D0028B9002084F805
:101290003C00204600F006FB242084F83D00206836
:1012A000006820F00100216808602068006840F4B0
:1012B0000040216808602068006820F40040216830
:1012C000086000F067FC05465C496068884206D803
:1012D0005B48854201D2012007E0002005E0594823
:1012E000854201D2012000E00020012800D1C9E799
:1012F0005548B5FBF0F62068406820F03F003043C9
:10130000216848604D496068884201D8701C07E038
:101310004FF4967070434FF47A71B0FBF1F0401CBB
:101320002168096A21F03F010843216808624349A6
:101330006068884214D8681E61684900B0FBF1F00B
:10134000401CC0F30B00042801D204203DE0681EBD
:1013500061684900B0FBF1F0401CC0F30B0034E0C1
:10136000A06838B9681E616801EB4101B0FBF1F07B
:10137000401C0AE0681E616801EBC10202EB01112A
:10138000B0FBF1F0401C40F48040C0F30B0008B902
:1013900001201AE0A06848B9681E616801EB4101AC
:1013A000B0FBF1F0401CC0F30B000CE0681E61685C
:1013B00001EBC10202EB0111B0FBF1F0401CC0F3E4
:1013C0000B0040F4804040F400402168C9694CF6AD
:1013D000FF72914308432168C861D4E907010843BB
:1013E0002168096821F0C001084321680860D4E938
:1013F000031008432168896848F2FF32914308438B
:1014000021688860D4E9050108432168C96821F092
:10141000FF0108432168C8602068006840F00100AF
:101420002168086000202064202084F83D0000200E
:10143000206384F83E0000BF24E70000A08601007E
:1014400080841E0000093D0040420F002DE9FC5F32
:1014500004460F4690469946DDE90CAB0E9EFFF719
:1014600007FF054694F83D00202870D1192301227A
:10147000B0492046009501F043FD10B10220BDE8BF
:10148000FC9F00BF94F83C00012801D10220F6E740
:10149000012084F83C0000BF2068006800F00100D3
:1014A00028B92068006840F00100216808602068C1
:1014B000006820F4006021680860222084F83D0064
:1014C000402084F83E0000202064C4F824A0A4F842
:1014D0002AB0608D20859848E0624B4642463946E6
:1014E0002046CDE9006501F0BDFB08B10120C6E74B
:1014F000208D88B900BF00200190206840690190CC
:1015000020688069019000BF00BF2068006840F437
:1015100000702168086040E0208D012818D1206803
:10152000006820F480602168086000BF00200190FE
:1015300020684069019020688069019000BF00BF69
:101540002068006840F400702168086025E0EFE042
:10155000208D022816D12068006820F48060216860
:1015600008602068006840F400602168086000BFDF
:1015700000200190206840690190206880690190F6
:1015800000BF0AE000BF0020019020684069019080
:1015900020688069019000BF00BFBAE0208D032859
:1015A0007ED8208D012815D12A463146204601F0EB
:1015B0004CFD08B1012062E720680069616A08708B
:1015C000606A401C6062208D401E2085608D401E38
:1015D00060859EE0208D02282AD13346002257499B
:1015E0002046009501F08CFC08B1012047E72068F7
:1015F000006840F400702168086020680069616A32
:101600000870606A401C6062208D401E2085608DDD
:10161000401E608520680069616A0870606A401C2D
:101620006062208D401E2085608D401E608570E0C8
:101630003346002241492046009501F061FC08B183
:1016400001201CE72068006820F4806021680860A1
:1016500020680069616A0870606A401C6062208DC1
:10166000401E2085608D401E608533460022334930
:101670002046009501F044FC08B10120FFE62068F7
:10168000006840F400702168086020680069616AA1
:101690000870606A401C6062208D401E208500E05A
:1016A00010E0608D401E608520680069616A0870E6
:1016B000606A401C6062208D401E2085608D401E47
:1016C000608526E02A463146204601F0BEFC08B17E
:1016D0000120D4E620680069616A0870606A401CD5
:1016E0006062208D401E2085608D401E60852068D0
:1016F0004069C0F3800060B120680069616A0870C9
:10170000606A401C6062208D401E2085608D401EF6
:101710006085208D00287FF441AF202084F83D00B3
:10172000002084F83E0000BF84F83C0000BFA6E61D
:101730000220A4E6020010000000FFFF04000100E8
:101740002DE9FC5F04460F4690469946DDE90CAB57
:101750000E9EFFF78DFD054694F83D0020287DD1B3
:10176000192301224D492046009501F0C9FB10B113
:101770000220BDE8FC9F00BF94F83C00012801D185
:101780000220F6E7012084F83C0000BF20680068D2
:1017900000F0010028B92068006840F001002168CD
:1017A00008602068006820F400602168086021203B
:1017B00084F83D00402084F83E0000202064C4F8F6
:1017C00024A0A4F82AB0608D20853548E0624B46FD
:1017D000424639462046CDE9006501F0F3FA08B1EA
:1017E0000120C6E731E02A463146204601F06DFC73
:1017F00050B1206C042805D12068006840F40070C6
:10180000216808600120B4E7606A007821680861F7
:10181000606A401C6062208D401E2085608D401EE5
:10182000608520684069C0F3800070B1208D60B190
:10183000606A007821680861606A401C6062208DDF
:10184000401E2085608D401E6085208D0028CAD1F5
:101850002A463146204601F025FB00E01CE050B14D
:10186000206C042805D12068006840F400702168CD
:10187000086001207DE72068006840F4007021685E
:101880000860202084F83D00002084F83E0000BF5E
:1018900084F83C0000BF6CE702206AE702001000F9
:1018A0000000FFFF70470000034800680349097803
:1018B00008440149086070471C00002024000020F3
:1018C00010B50A48006840F40070084908600846EE
:1018D000006840F480600860032000F07FF80F206B
:1018E00000F006F800F02AF8002010BD003C02408D
:1018F00070B504460E4800784FF47A71B1FBF0F0F1
:101900000C490968B1FBF0F5284600F051FE08B11A
:10191000012070BD102C07D200222146501E00F07D
:101920001EF80548046001E00120F2E70020F0E71E
:101930002400002000000020200000207047014605
:101940000846002809DB00F01F0301229A404309E2
:101950009B0003F1E023C3F8002100BF70472DE98D
:10196000F05F80460D461646002702F0F9FA07465A
:1019700039462A46334601F00700C0F1070ABAF19A
:10198000040F02D94FF0040A01E0C0F1070AD14662
:1019900000F1040ABAF1070F02D24FF0000A01E089
:1019A000A0F1030AD4464FF0010A0AFA09FAAAF193
:1019B000010A0AEA020A0AFA0CFA4FF0010B0BFAC2
:1019C0000CFBABF1010B0BEA030B4AEA0B042146BB
:1019D000404602F0CDFABDE8F09F000000BF00F0E5
:1019E0000702064B19684FF6FF031940044B0B43DF
:1019F00043EA0221014B196000BF70470CED00E083
:101A00000000FA0570B504460D460CB9012070BD02
:101A10005848006800F00700A84209D255490D70E7
:101A20000846006800F00700A84201D00120EEE758
:101A3000207800F0020002281DD1207800F0040078
:101A4000042805D14C48006840F4E0504A49086039
:101A5000207800F00800082805D14748006840F4C5
:101A60006040454908604448006820F0F000A168E3
:101A7000084341490860207800F00100A8B360687D
:101A8000012807D13C4808380068C0F34040B8B985
:101A90000120BCE76068022802D06068032807D1F3
:101AA000354808380068C0F3406048B90120AEE707
:101AB000314808380068C0F3400008B90120A6E7A3
:101AC0002D48006820F00300616808432A49086037
:101AD000FFF7CEFB064609E0FFF7CAFB801B41F289
:101AE0008831884202D9032091E707E02248006844
:101AF00000F00C006168B0EB810FEDD11D4800686B
:101B000000F00700A84209D91A490D70084600687C
:101B100000F00700A84201D0012078E7207800F00B
:101B20000400042807D11448006820F4E050E1685C
:101B3000084311490860207800F00800082808D1FF
:101B40000D48006820F46040216940EAC1000A495C
:101B5000086000F03FF808490968C1F30311074A1B
:101B6000515CC8400649086006480068FFF7C0FE9F
:101B700000204CE7003C024008380240B6AD0008A7
:101B8000000000202000002001480068704700008D
:101B90000000002000B5FFF7F7FF04490968C1F312
:101BA0008221034A515CC84000BD00000838024051
:101BB000C6AD000800B5FFF7E7FF04490968C1F3A7
:101BC0004231034A515CC84000BD00000838024061
:101BD000C6AD00082DE9F047002400250026A146E7
:101BE0002548006800F00C0020B1042805D0082822
:101BF0003AD105E0DFF8849039E0DFF8849036E0F0
:101C00001D48001F006800F03F041B48001F0068CB
:101C100000F4800078B11A481749091F0968C1F318
:101C20008811A0FB01700146224600233846FEF7CA
:101C3000ACFB05460EE011480F49091F0968C1F3C6
:101C40008811A0FB01700146224600233846FEF7AA
:101C50009CFB05460848001F0068C0F30140401C7B
:101C60004600B5FBF6F902E0DFF8109000BF00BFB8
:101C70004846BDE8F0870000083802400024F40020
:101C800000127A00F8B504460CB90120F8BD20789E
:101C900000F00100002874D0F948006800F00C0042
:101CA00004280DD0F648006800F00C00082813D175
:101CB000F348001F006800F48000B0F5800F0BD1DE
:101CC000EF4808380068C0F34040002859D06068E9
:101CD000002856D10120D9E700BF6068B0F5803FE9
:101CE00008D1E7480838006840F48030E4490839F2
:101CF00008601EE06068B0F5A02F0DD1E0480838FC
:101D0000006840F48020DE49083908600846006811
:101D100040F4803008600CE0D9480838006820F4AE
:101D20008030D749083908600846006820F48020D0
:101D3000086000BF606890B1FFF79AFA054606E0B8
:101D4000FFF796FA401B642801D903209EE7CC4890
:101D500008380068C0F340400028F1D011E0FFF7D8
:101D600087FA054606E0FFF783FA401B642801D98D
:101D700003208BE7C24808380068C0F340400028C1
:101D8000F1D1207800F0020002285FD1BC48006841
:101D900000F00C0058B1BA48006800F00C000828A8
:101DA0001CD1B748001F006800F48000B0B9B448E7
:101DB00008380068C0F3400020B1E068012801D075
:101DC000012063E7AE480838006820F0F800216978
:101DD00040EAC100AA490839086037E0E06800B36A
:101DE0000120A8490860FFF743FA054606E0FFF71F
:101DF0003FFA401B022801D9032047E7A0480838D2
:101E00000068C0F340000028F1D09D480838006801
:101E100020F0F800216940EAC100994908390860BA
:101E200014E0002097490860FFF722FA054606E013
:101E3000FFF71EFA401B022801D9032026E790482D
:101E400008380068C0F340000028F1D1207800F085
:101E5000080008282CD16069A8B101208A490860CF
:101E6000FFF706FA054606E0FFF702FA401B0228D4
:101E700001D903200AE782486C300068C0F34000B3
:101E80000028F1D014E000207F490860FFF7F0F946
:101E9000054606E0FFF7ECF9401B022801D90320B4
:101EA000F4E677486C300068C0F340000028F1D1B8
:101EB000207800F00400042870D1002770483830E2
:101EC000006800F0805090B900BF002000906C487E
:101ED0003830006840F08050694938310860084661
:101EE000006800F08050009000BF00BF01276748E5
:101EF000006800F48070B0B96448006840F48070F5
:101F000062490860FFF7B4F9054606E0FFF7B0F94B
:101F1000401B022801D90320B8E65C48006800F4A1
:101F200080700028F2D000BFA068012808D1544872
:101F30006830006840F001005149683108601DE0D8
:101F4000A06805280DD14E486830006840F00400B4
:101F50004B49683108600846006840F0010008609D
:101F60000CE047486830006820F0010044496831BF
:101F700008600846006820F00400086000BFA06800
:101F8000A8B1FFF775F9054609E0FFF771F9401BA5
:101F900041F28831884202D9032077E626E03848AA
:101FA00068300068C0F340000028EED013E0FFF76F
:101FB0005FF9054608E0FFF75BF9401B41F2883105
:101FC000884201D9032061E62D4868300068C0F3DB
:101FD00040000028EFD1012F07D129483830006890
:101FE00020F0805026493831086000BFA0690028E1
:101FF00045D02348006800F00C0008285DD0A06997
:10200000022845D100201F490866FFF731F905462F
:1020100006E0FFF72DF9401B022801D9032035E621
:10202000174808380068C0F340600028F1D1D4E9AF
:1020300007010843616A40EA81110122A06AC2EBEC
:10204000500041EA00412C20005D41EA00600C494B
:10205000091F086001200B490866FFF709F90546CA
:1020600006E0FFF705F9401B022801D903200DE621
:10207000034808380068C0F340600028F1D049E008
:102080000838024000004742800E4742007000407E
:10209000002021490866FFF7EBF8054606E0FFF748
:1020A000E7F8401B022801D90320EFE51B48006830
:1020B000C0F340600028F2D12CE0A069012800D1D3
:1020C000E4E51648001D0668A069012820D006F442
:1020D0008001E06981421BD106F03F01206A814204
:1020E00016D147F6C0703040616AB0EB811F0FD146
:1020F00006F440310122A06AC2EB5000B1EB004F60
:1021000006D106F070612C20005DB1EB006F01D0AC
:102110000120BBE50020B9E500004742003802403D
:10212000704710B504460CB9012010BD606A38B97B
:102130006068B0F5827F00D105E00021E16102E036
:10214000002121616161A06AB0F5005F00D100BF8C
:1021500094F8510028B9002084F85000204600F07F
:102160004FF8022084F851002068006820F04000F9
:1021700021680860A08800F48270218901F404417C
:102180000843A18901F400610843217C01F00201A8
:102190000843217D01F001010843218B01F4007106
:1021A0000843217F01F0380108432021095D01F037
:1021B00080010843218D01F4005108432168086023
:1021C0000421A06901EA104094F8241001F01001E4
:1021D000084321684860A06AB0F5005F03D1A08D74
:1021E00080B2216808612068C06920F4006021681D
:1021F000C86100206065012084F85100002094E748
:1022000010B586B004462A49206888424DD100BFE7
:1022100000BF002000902748006840F002002549D8
:1022200008600846006800F00200009000BF00BF90
:1022300000BF00BF00BF002000900846006840F0CB
:10224000020008600846006800F00200009000BF2D
:1022500000BF00BF00BF00BF00200090084600681C
:1022600040F0020008600846006800F0020000909C
:1022700000BF00BF00BF0820019002200290012093
:102280000390022004900520059001A90A48FEF75A
:10229000CFFE1020019001A90748FEF7C9FE2020BB
:1022A000019001A90448FEF7C3FE06B010BD00006E
:1022B000003001403038024000040240034A016807
:1022C000914202D10121024A117070470030014051
:1022D00026000020704700002DE9F04704460E4616
:1022E00017461D464FF0000A00BF94F85000012821
:1022F00002D10220BDE8F087012084F8500000BF21
:1023000094F85180D4F80490B8F1010F0AD0B9F5CF
:10231000827F04D1A06810B9B8F1040F02D04FF049
:10232000020A8FE00EB107B115B94FF0010A89E03A
:1023300094F85100042802D0052084F851000020B0
:1023400060652663A586E586A763A587E587206483
:102350006064A06AB0F5005F0DD100BF206800681E
:1023600020F40050216808602068006840F40050A4
:102370002168086000BF94F85100042806D1354850
:10238000E16C08643448E16CC86305E03348E16CF3
:1023900008643348E16CC8633248E16CC8640020CB
:1023A000E16C0865E38FD4F800C00CF10C01A26B5E
:1023B000E06CFEF7DFFD48B1606D40F01000606535
:1023C0004FF0010A012084F851003BE0206840688A
:1023D00040F00100216848600020A16C0864A16CF5
:1023E000C863A16CC864A16C0865E38ED4F800C012
:1023F0000CF10C02216BA06CFEF7BCFD48B1606DC6
:1024000040F0100060654FF0010A012084F851008F
:1024100018E02068006800F04000402805D02068DF
:10242000006840F04000216808602068406840F083
:102430002000216848602068406840F00200216860
:10244000486000BF00BF002084F8500000BF504625
:1024500050E700009F360008BB360008AD36000884
:102460007F37000877360008044A0168914204D19A
:102470000121034A1170034A117070470030014076
:102480002600002027000020704770B504460E4645
:1024900015460CB9012070BD94F8490028B90020F8
:1024A00084F84800204600F01DF804F10801206877
:1024B000FEF710FB3146A2682068FEF739FB29467B
:1024C000236BD4E90102FEF7E1FAA168206850F815
:1024D000210040F00100A268216841F8220000209C
:1024E000D9E7000010B586B0044600BF0020009078
:1024F0002248006840F00100204908600846006852
:1025000000F00100009000BF00BF00BF002000905D
:102510001A480838006840F008001849083908606F
:102520000846006800F00800009000BF00BF00BF30
:10253000002000900846006840F01000086008463F
:10254000006800F01000009000BF00BF4CF2037064
:1025500001900220029001200390022004900C20A0
:10256000059001A90648FEF763FD4FF680700190C3
:1025700001A90448FEF75CFD06B010BD38380240E2
:10258000000C024000100240042808D14FF0E02166
:10259000096941F004014FF0E022116107E04FF0BA
:1025A000E021096921F004014FF0E0221161704738
:1025B00070B504462546681EB0F1807F01D3012026
:1025C0000FE0681E4FF0E02148610F214FF0FF300F
:1025D00001F0CEFC00204FF0E02188610720086167
:1025E000002070BD70477047704710B504462068E2
:1025F0000069C0F34000D8B12068C068C0F3400053
:10260000B0B16FF0020021680861012020772068D6
:10261000806900F0030018B12046FFF7E5FF05E0F0
:10262000204600F0ADF8204600F0ABF800202077FF
:1026300020680069C0F38000D8B12068C068C0F38A
:102640008000B0B16FF0040021680861022020779B
:102650002068806900F4407018B12046FFF7C4FF7D
:1026600005E0204600F08CF8204600F08AF80020B3
:10267000207720680069C0F3C000D8B12068C06826
:10268000C0F3C000B0B16FF00800216808610420F9
:1026900020772068C06900F0030018B12046FFF7DA
:1026A000A3FF05E0204600F06BF8204600F069F833
:1026B0000020207720680069C0F30010D8B120689E
:1026C000C068C0F30010B0B16FF01000216808615D
:1026D000082020772068C06900F4407018B12046B7
:1026E000FFF782FF05E0204600F04AF8204600F0A0
:1026F00048F8002020772068006900F0010058B1F8
:102700002068C06800F0010030B16FF0010021685E
:102710000861204600F036F820680069C0F3C01058
:1027200058B12068C068C0F3C01030B16FF08000AD
:10273000216808612046FFF755FF20680069C0F353
:10274000801058B12068C068C0F3801030B16FF0BD
:10275000400021680861204600F026F820680069E2
:10276000C0F3401058B12068C068C0F3401030B1C9
:102770006FF02000216808612046FFF734FF10BD8C
:102780007047704710B504460548844206D100BF23
:102790004FF480610348FEF755FD00BF10BD0000F7
:1027A0000403002000140240704770477047000087
:1027B0002DE9F84F0446206805682068C66820683F
:1027C00047694FF00009CA4605F00F09B9F1000F3B
:1027D0000AD105F0200038B106F0200020B12046D3
:1027E00001F0D3F9BDE8F88FB9F1000F72D007F00E
:1027F000010018B906F4907000286BD005F00100B4
:1028000030B106F4807018B1206C40F001002064F3
:1028100005F0040030B107F0010018B1206C40F061
:102820000200206405F0020030B107F0010018B189
:10283000206C40F00400206405F0080048B106F068
:10284000200010B907F0010018B1206C40F008001A
:102850002064206C70B305F0200028B106F0200041
:1028600010B1204601F091F920684069C0F3801A48
:10287000206C00F0080010B9BAF1000F23D02046F8
:1028800001F058F92068406900F04000402816D156
:102890002068406920F0400021684861A06B50B179
:1028A0005648A16B0865A06BFEF7B9F910B1A06B93
:1028B000016D88470CE02046FFF778FF08E02046CE
:1028C000FFF774FF04E02046FFF770FF002020644C
:1028D00088E7FFE7206B012879D105F01000002878
:1028E00075D006F01000002871D000BF00200090C5
:1028F00020680068009020684068009000BF00BF1A
:102900002068406900F04000402839D1A06B006881
:1029100040681FFA80F8B8F1000F30D0A08D404514
:102920002DDDA4F82E80A06BC069B0F5807F1FD08C
:102930002068C06820F480702168C8602068406901
:1029400020F00100216848612068406920F04000C3
:1029500021684861202084F83E0000202063206820
:10296000C06820F010002168C860A06BFEF702F973
:10297000A08DE28D801A81B22046FFF716FF31E765
:10298000A08DE18D401A1FFA80F8E08DE8B1B8F112
:10299000000F1AD02068C06820F490702168C860C9
:1029A0002068406920F0010021684861202084F8F7
:1029B0003E00002020632068C06820F010002168DD
:1029C000C86041462046FFF7F0FE0BE7FFE705F041
:1029D000800030B106F0800018B1204601F06DFA99
:1029E00000E705F0400030B106F0400018B1204685
:1029F00001F0BBF8F6E600BFF4E60000213B00085A
:102A000010B504460CB9012010BDA06900B100E06A
:102A100000BF94F83D0028B9002084F83C0020460F
:102A200000F028F8242084F83D002068C06820F4D5
:102A300000502168C860204601F006F9206800694E
:102A400020F49040216808612068406920F02A0045
:102A5000216848612068C06840F400502168C8605F
:102A600000202064202084F83D0084F83E000020EF
:102A7000CAE7000010B586B004462E492068884297
:102A800055D100BF00BF002000902B48006840F0E7
:102A90001000294908600846006800F01000009006
:102AA00000BF00BF00BF00BF00BF00200090224851
:102AB0001438006840F001001F49143908600846C6
:102AC000006800F00100009000BF00BF00BF00BF21
:102AD00000BF002000900846006840F00100086038
:102AE0000846006800F00100009000BF00BF00BF72
:102AF00048150190022002900120039002200490CA
:102B00000720059001A90D48FEF792FA4FF4806066
:102B100001900720059001A90848FEF789FA2520B1
:102B2000FEF70DFF032211462520FEF718FF06B021
:102B300010BD000000100140443802400000024077
:102B400070B504460D46164694F83E00202816D16E
:102B500005B10EB9012070BD00BF94F83C000128FA
:102B600001D10220F7E7012084F83C0000BF0020DB
:102B7000206332462946204601F07CF9EBE702202B
:102B8000E9E7000010B504462049206888423BD19F
:102B90001F48008800F4004088BB1D48008800F4EE
:102BA000804070B11B4800780A2803D000201849E3
:102BB000088024E01648008840F40040144908804A
:102BC0001DE0144800780D2806D11148008840F413
:102BD00080400F49088012E00E4800780C490988AF
:102BE000C1F30D010C4A505409480088401C0849A3
:102BF000088008460088C72801DD002008800122DF
:102C000004490648FFF79CFF10BD0000001001407A
:102C1000180000201A0000204801002010020020A7
:102C2000704700BFFEE7014608684069C0F3802096
:102C3000B0B16FF480600A68506100200863202002
:102C400081F83D00002081F83E00086C40F004004F
:102C5000086400BF002081F83C0000BF01207047DD
:102C60000020FCE72DE9F84304460F461546994637
:102C7000DDE908862068006840F48060216808600B
:102C80002068006840F48070216808604346002294
:102C90004FF001112046009600F032F960B1206833
:102CA000006800F48070B0F5807F02D14FF40070AE
:102CB00020640320BDE8F88307F0FE002168086166
:102CC000334642463E49204600F05DF908B10120F6
:102CD000F0E700BF00200090206840690090206865
:102CE0008069009000BF00BF32464146204600F098
:102CF000ECF950B1206C042805D12068006840F43C
:102D00000070216808600120D4E7B9F1010F03D1F8
:102D1000E8B22168086117E0C5F30720216808615F
:102D200032464146204600F0D0F950B1206C0428CC
:102D300005D12068006840F4007021680860012017
:102D4000B8E7E8B22168086132464146204600F003
:102D5000BCF950B1206C042805D12068006840F40B
:102D60000070216808600120A4E72068006840F432
:102D7000807021680860434600224FF00111204610
:102D8000009600F0BDF858B12068006800F480702B
:102D9000B0F5807F02D14FF400702064032089E7F2
:102DA000F8B240F001002168086133464246044908
:102DB000204600F0E8F808B101207BE7002079E721
:102DC000020001002DE9F84304468846154699465D
:102DD000DDE908672068006840F4807021680860B9
:102DE000334600224FF001112046009700F088F88A
:102DF00060B12068006800F48070B0F5807F02D177
:102E00004FF4007020640320BDE8F88308F0FE0052
:102E1000216808613B4632462149204600F0B3F85C
:102E200008B10120F0E700BF002000902068406951
:102E3000009020688069009000BF00BF3A4631468C
:102E4000204600F042F950B1206C042805D12068DA
:102E5000006840F40070216808600120D4E7B9F1EF
:102E6000010F03D1E8B22168086117E0C5F307201C
:102E7000216808613A463146204600F026F950B1F3
:102E8000206C042805D12068006840F40070216897
:102E900008600120B8E7E8B2216808610020B3E7C4
:102EA0000200010070B504460D46164620E020469B
:102EB000FFF7B9FE08B1012070BD681CC0B1FEF774
:102EC000D7F9801BA84200D895B9002020632020A4
:102ED00084F83D00002084F83E00206C40F0200083
:102EE000206400BF002084F83C0000BF0120E3E71D
:102EF00020684069C0F380000028D8D00020DBE7BC
:102F00002DE9F04104460D4617461E46DDF81880AF
:102F10001CE0701CD0B1FEF7ABF9A0EB0800B0428A
:102F200000D89EB900202063202084F83D000020B6
:102F300084F83E00206C40F02000206400BF002098
:102F400084F83C0000BF0120BDE8F081C5F30740D4
:102F500001280AD120684069A9B20840A9B2884274
:102F600001D101200BE0002009E020688069A9B2AE
:102F70000840A9B2884201D1012000E00020B842F7
:102F8000C7D00020E0E72DE9F04104460D46164683
:102F90001F463DE020684069C0F38020E8B120680A
:102FA000006840F40070216808606FF48060216858
:102FB000486100202063202084F83D00002084F830
:102FC0003E00206C40F00400206400BF002084F824
:102FD0003C0000BF0120BDE8F081701CC0B1FEF7CD
:102FE00047F9C01BB04200D896B9002020632020CA
:102FF00084F83D00002084F83E00206C40F0200062
:10300000206400BF002084F83C0000BF0120E2E7FC
:10301000C5F3074001280AD120684069A9B20840D9
:10302000A9B2884201D101200BE0002009E020680C
:103030008069A9B20840A9B2884201D1012000E00C
:1030400000200028A6D00020C5E770B504460D4634
:10305000164632E020684069C0F30010A0B16FF05E
:1030600010002168486100202063202084F83D0082
:10307000002084F83E00206C206400BF002084F80B
:103080003C0000BF012070BDFEF7F2F8801BA84293
:1030900000D895B900202063202084F83D0000204E
:1030A00084F83E00206C40F02000206400BF002027
:1030B00084F83C0000BF0120E5E720684069C0F3C8
:1030C00080100028C6D00020DDE770B504460D460C
:1030D000164620E02046FFF7A6FD08B1012070BD8E
:1030E000681CC0B1FEF7C4F8801BA84200D895B98F
:1030F00000202063202084F83D00002084F83E005A
:10310000206C40F02000206400BF002084F83C00C8
:1031100000BF0120E3E720684069C0F3C010002829
:10312000D8D00020DBE700002DE9F0470024611E25
:1031300000250E4600220027002300202BE0DFF8A8
:103140004CC25CF820C0A44503D9DFF840C25CF84B
:103150002040DFF838C25CF820C08C4503D2DFF88D
:103160002CC25CF82010DFF828C25CF820C0AC4507
:1031700003D9DFF81CC25CF82050DFF814C25CF8F9
:1031800020C0B44503D2DFF808C25CF8206000F12B
:10319000010C1FFA8CF06428D1DB601800EE900A55
:1031A000F8EE600AB0EE003A80EE831A601A00EE84
:1031B000900AB8EE600AA81900EE900AF8EE600ACC
:1031C000B0EE003AC0EE831AA81B00EE900AB8EEEB
:1031D000602A00EE901AF8EE600A9FED6E3AF0EE6B
:1031E000602A40EE032A4FF0000801203BE0DFF8A0
:1031F0009CC15CF820C000EE90CAF8EE600AF4EEC4
:10320000E20AF1EE10FA2ADDDFF880C15CF82090C6
:10321000A0F1010CDFF874A15AF82CC0E1451ED9C9
:10322000D4465CF8209000F1010C5AF82CC0E1451E
:1032300015D97FB1A0EB07091FFA89FCBCF1190F62
:1032400007DDBCF1960F04DA634402F101091FFAAD
:1032500089F200BF074600F10A0C1FFA8CF000F15A
:10326000010C1FFA8CF06328C1DB002A49DD9BB3F7
:1032700003EE903AB8EE634A03EE902AF8EE633A12
:10328000C4EE234AB0EE643ADFED433A83EE834A5C
:10329000F0EE440ADFED413AF4EEE30AF1EE10FA03
:1032A0001BDBDFED3F3AF4EEE30AF1EE10FA14D83F
:1032B0003C48D0ED003A9FED3C4A63EE843A9FEDE6
:1032C0003B4A40EE843A3A48C0ED003AD0ED003A2D
:1032D0003448C0ED003A13E013E0DFED313AF4EE8C
:1032E000E30AF1EE10FA0BDD2E4890ED004ADFED17
:1032F000314AF1EE083A44EE243A2D48C0ED003A46
:1033000000BFB5EEC01AF1EE10FA3DDDF5EEC01AC1
:10331000F1EE10FA38DDB5EEC00AF1EE10FA33DD49
:10332000C2EE213A80EE014AC3EE844AB0EE643A1E
:10333000DFED213AB3EE014A44EE433AF0EE630A80
:10334000DFED1E3AF4EEE30AF1EE10FA03DDDFEDF5
:103350001B3AF0EE630ADFED1A3AF4EEE30AF1EEFF
:1033600010FA03D2DFED163AF0EE630A1548D0EDFD
:10337000003A9FED154A63EE843A9FED144A40EE01
:10338000843AC0ED003A00BFBDE8F087AC3F0120B1
:103390001C3E01209A99193F0080BB450000204245
:1033A00000000C4338010020CDCC4C3FCDCC4C3E2E
:1033B000280100203333733F0000D0420000C84290
:1033C00000008C422C0100206666663FCDCCCC3DCF
:1033D00030B505460C4647F2305084420FD29FED7F
:1033E000170A174880ED000A9FED140A154880ED72
:1033F000000A0020144908801449087030BD1448A0
:103400001149098840F8215012480F49098840F8AD
:1034100021400D480088401C0B4908800846008860
:10342000642804DB00200880012008490870074850
:10343000007808B1FFF778FE00BFDFE7000000006A
:10344000280100202C01002024010020260100205A
:103450001C3E0120AC3F012000B587B0142102A81A
:10346000FDF729F900BF002001902148006840F0D5
:1034700002001F4908600846006800F00200019041
:1034800000BF00BF00BF0020019019481030006845
:1034900040F400101649103108600846006800F436
:1034A0000010019000BF00BFC020029012200390C6
:1034B00001200490032005900420069002A90D48E5
:1034C000FDF7B6FD0C480D4908600D484860002125
:1034D0000A488160C1604FF480410161002141616F
:1034E0008161C1610162FDF7C9FE07B000BD000046
:1034F0003038024000040240005400404C030020D9
:10350000801A060008B500200090FFF7A5FF694665
:10351000FF2000F037F89DF80000152800D008BD06
:1035200040210C2000F078F80A20FDF76DFDC02145
:10353000022000F071F80021032000F06DF84F2107
:10354000082000F069F80321092000F065F8272120
:103550000A2000F061F824210C2000F05DF82421FD
:103560000D2000F059F80021042000F055F800214A
:10357000052000F051F80021062000F04DF800BFB2
:10358000CDE700003EB504460D46642001210B4600
:103590002246CDE900510290AE210448FDF756FFC6
:1035A00008B901203EBD0020FCE700004C030020CC
:1035B00030B585B004460D466420062103AA0123D8
:1035C000CDE9002102900722AE211248FDF73EFF0F
:1035D000E8B99DF80C0000049DF80D1040EA0120A8
:1035E0009DF80E10084320602068C0F31100206091
:1035F0009DF80F0000049DF8101040EA01209DF88E
:103600001110084328602868C0F31100286005B035
:1036100030BD00004C03002013B584B00446642084
:10362000012105AA0B46CDE9002102902246AE21D8
:103630000448FEF785F810B9012006B010BD00203F
:10364000FBE700004C03002010B507490748FFF7CF
:10365000AFFF0548016805480068FFF7B9FE642020
:1036600006F0E6F910BD0000340100203001002012
:1036700000BFFEE7704770B50546AC6B2068406838
:1036800020F0030021684860606D40F01000606524
:10369000012084F851002046FEF742FD70BD70B550
:1036A0000446A56B2846FEF715FE70BD70B50446AE
:1036B000A56B2846FEF7E8FE70BD7CB50546AC6BF1
:1036C00000200190FDF7D4FD06462868006800F44C
:1036D0008070B0F5807F4DD02068406820F02000D9
:1036E00021684860A06AB0F5005F0FD16423012211
:1036F00011462046009600F01BF918B1606D40F0AD
:10370000020060652068C068019000BFA06850B9E1
:103710006068B0F5827F06D12068406820F0030021
:103720002168486005E02068406820F001002168B9
:10373000486032466421204600F079F808B1202024
:1037400060650020E087012084F8510020688068CF
:1037500000F01000102807D1606D40F00200606595
:103760004FF6EF7021688860606D18B12046FEF753
:10377000D7FC7CBD2046FEF7A1FD00BFF9E77CB574
:103780000546AC6B00200190FDF772FD06462868E7
:10379000006800F48070B0F5807F43D020684068F6
:1037A00020F0200021684860A06AB0F5005F0FD1CA
:1037B0006423012211462046009600F0B9F818B1A2
:1037C000606D40F0020060652068C068019000BF35
:1037D00032466421204600F075F818B1606D40F063
:1037E000200060652068406820F003002168486080
:1037F0000020E086E087012084F85100206880687E
:1038000000F01000102807D1606D40F002006065E4
:103810004FF6EF7021688860606D18B12046FEF7A2
:103820007FFC7CBD2046FEF71FFE00BFF9E7F8B520
:1038300004460E4615466068B0F5827F0DD1A0683B
:10384000B0F5004F03D0A068B0F5806F05D12068B7
:10385000006820F04000216808606068B0F5827F51
:103860001FD1A068B0F5806F0DD0334600228021B3
:103870002046009500F05CF808B3606D40F0200031
:1038800060650320F8BD33460022012120460095E3
:1038900000F04EF898B1606D40F0200060650320A4
:1038A000F0E73346002201212046009500F040F861
:1038B00028B1606D40F0200060650320E2E7002041
:1038C000E0E700007CB504460D4616461648006841
:1038D0001821B0FBF1F01549B0FBF1F04FF47A710B
:1038E000484301906068B0F5827F0DD12B460022DD
:1038F00080212046009600F01BF898B1606D40F0E2
:103900002000606503207CBD00BF019800B908E07D
:103910000198401E019020688068C0F3C010002804
:10392000F3D100BF0020EEE70000002040420F006E
:103930002DE9F84F04460D4690461E46DDF82890C6
:10394000FDF796FCA0EB0900371AFDF791FC8246C3
:103950002C480068C0F3CB307843009045E0701CE1
:10396000002842D0FDF784FCA0EB0A00B84200D248
:10397000A7BB2068406820F0E000216848606068CC
:10398000B0F5827F0DD1A068B0F5004F03D0A068DC
:10399000B0F5806F05D12068006820F040002168F4
:1039A0000860A06AB0F5005F0DD100BF2068006814
:1039B00020F40050216808602068006840F400503E
:1039C0002168086000BF012084F8510000BF00207A
:1039D00084F8500000BF0320BDE8F88FFFE700988F
:1039E00000B900270098401E009020688068284099
:1039F000A84201D1012000E000204045AFD10020C5
:103A0000EAE70000000000202DE9F0470C46DDE960
:103A10000867002100258C4600BF60E04FF00108D8
:103A200008FA01F504EA050CAC4557D1D0F800803E
:103A30004FEA410A4FF0030909FA0AF928EA09088E
:103A4000C0F80080D0F800804FEA410902FA09F975
:103A500048EA0908C0F80080012A01D0022A27D1CB
:103A6000D0F808804FEA410A4FF0030909FA0AF931
:103A700028EA0908C0F80880D0F808804FEA410910
:103A800006FA09F948EA0908C0F80880D0F8049055
:103A90004FF0010808FA01F829EA0809C0F8049073
:103AA000D0F8048003FA01F948EA0908C0F8048054
:103AB000D0F80C804FEA410A4FF0030909FA0AF9DD
:103AC00028EA0908C0F80C80D0F80C804FEA4109B8
:103AD00007FA09F948EA0908C0F80C80491C1029BE
:103AE0009CD3BDE8F08710B5FDF7DEFE06F0D0FCF4
:103AF000012801D006F096FA10BD000003480068C6
:103B000040F47000014908607047000088ED00E053
:103B100010B50248FEF769FD10BD00000403002047
:103B200070B50546AC6B0020E085E0842046FEF7CA
:103B30003DFE70BD0168C96821F490710268D160D2
:103B40000168496921F0010102685161016B012995
:103B500005D10168C96821F010010268D1602021F7
:103B600080F83E1000210163704710B504462068BC
:103B7000C06820F040002168C860202084F83D0023
:103B80002046FFF74DF8002010BD70B5044694F8AC
:103B90003E00222856D1A068B0F5805F0CD1206984
:103BA00050B90025A66A20684068C0F3080030803C
:103BB000A06A801CA06215E0A56A0026A068B0F586
:103BC000805F03D0A06828B9206918B920684068D0
:103BD000287004E02068406800F07F002870A06A28
:103BE000401CA062E08D401E80B2E08540BB206892
:103BF000C06820F020002168C8602068C06820F4F8
:103C000080702168C8602068406920F00100216848
:103C10004861202084F83E00206B01280AD12068EA
:103C2000C06820F010002168C860A18D2046FEF712
:103C3000BCFD02E02046FEF7A5FF0020206370BD1A
:103C40000020FCE70220FAE72DE9F84F044620683F
:103C5000006920F44050E168084321680861216947
:103C6000A068084361690843E1690843009020683F
:103C7000C06849F20C618843009908432168C86014
:103C80002068406920F44070A169084321684861B8
:103C900076492068884203D075492068884203D15C
:103CA000FDF788FF814602E0FDF774FF8146E06979
:103CB000B0F5004F6CD102206168A0FB01500346B3
:103CC0001920A9FB007001462A463846FCF75DFB27
:103CD0006421B0FBF1F04FEA001A02206168A0FBFA
:103CE00001510B461920A9FB00712A463846FCF702
:103CF0004CFB834602206168A0FB0150034619205B
:103D0000A9FB00712A463846FCF73FFB6421B0FB53
:103D1000F1F000EBC00101EB0010ABEB80003221B1
:103D200001EBC0006421B0FBF1F000F0F8000AEBF9
:103D3000400A02206168A0FB015003461920A9FB3C
:103D4000007001462A463846FCF71FFB83460220D6
:103D50006168A0FB015003461920A9FB00712A46A7
:103D60003846FCF712FB6421B0FBF1F000EBC00118
:103D700001EB0010ABEB8000322101EBC0006421AD
:103D8000B0FBF1F000F007005044216888606AE061
:103D900004206168A0FB015003461920A9FB0070B4
:103DA00001462A463846FCF7F0FA8246042061684C
:103DB000A0FB015003461920A9FB007001462A46CA
:103DC0003846FCF7E2FA6421B0FBF1F000EBC001E9
:103DD00001EB0010AAEB8000322101EB00106421FE
:103DE000B0FBF1F000F0F00A04206168A0FB017064
:103DF00003461920A9FB00513A462846FCF7C5FAAC
:103E00006421B0FBF1F00AEB001A04206168A0FB0A
:103E100001510B461920A9FB00712A463846FCF7D0
:103E2000B4FA834604206168A0FB015003461920C0
:103E3000A9FB007001462A463846FCF7A6FA642121
:103E4000B0FBF1F000EBC00101EB0010ABEB800028
:103E5000322101EB00106421B0FBF1F000F00F0003
:103E6000504421688860BDE8F88F000000100140D0
:103E70000014014010B5034699629A85DA85002046
:103E80001864222083F83E0000BF002083F83C0025
:103E900000BF1868C06840F480701C68E060186853
:103EA000406940F001001C6860611868C06840F01B
:103EB00020001C68E060002010BD014691F83D0024
:103EC000212828D18868B0F5805F0BD1086948B9EE
:103ED0000A6A1088C0F308000B685860086A801CE2
:103EE000086205E00B6A581C086218780B68586075
:103EF000C88C401E80B2C88458B90868C06820F0D9
:103F000080000B68D8600868C06840F040000B680B
:103F1000D860002070470220FCE7000010B502487E
:103F2000FEF746FC10BD00001002002000BFFEE7B7
:103F300070B50621302004F0E9FF302004F0F6FED1
:103F40000546062D03D00621302004F0DFFF0024B3
:103F500003E006F0E5FD601C84B2C82CF9DB70BDFF
:103F600002480068C0F30220704700000CED00E03A
:103F700010B5002804DB0A07130E054A135406E0A7
:103F80000A07140E034A00F00F031B1FD45410BD80
:103F900000E400E018ED00E000BF704700F0010110
:103FA000194A1160C0F34001184AC2F88412C0F3E4
:103FB0008001154A08321160C0F30011121F116010
:103FC000C0F34011104A3C321160C0F38011104A16
:103FD0001160C0F3C0110C4A38321160C0F30021E7
:103FE0000B4A121D1160C0F34021074A34321160A0
:103FF000C0F38021044A14321160C0F3C021024A88
:104000000C3211607047000080824242000043423F
:104010009002434200F00101104A1160C0F34001D8
:104020000F4AC2F8BC12C0F380010C4A383A116042
:10403000C0F3C001121D1160C0F30011094A1160E4
:10404000C0F34011121D1160C0F38011121D1160E8
:10405000C109054AC2F8A81270470000B88241425F
:10406000008041429C0242420000424270B5044638
:104070000420FEF789FA0A48046025464FF47A7056
:1040800045434FF0E020006940F002004FF0E0218E
:10409000086108464561006940F00100086170BD93
:1040A0001000002030B50446002504E04FF47A707B
:1040B00000F004F86D1CA542F8D330BD70B503467E
:1040C00000224FF0E02675690D4E366803FB06F4BA
:1040D0004FF0E026B16910E04FF0E026B069884269
:1040E0000BD0884202D20E1A324402E02E1A0E443D
:1040F00032440146A24200D300E0EDE700BF70BDAC
:104100001000002000BF054A126802F04002002A99
:10411000F9D0C2B2014B5A60704700000010014054
:104120001CB50648012100238022CDE9001004A11E
:10413000064806F07DF905F0D9FD1CBD04000020FD
:1041400073746172745F7461736B0000F18F0008A7
:1041500000B587B000BF00BF00200190384800685C
:1041600040F01000364908600846006800F0100072
:10417000019000BF00BF00BF00BF00BF0020019042
:104180000846006840F0100008600846006800F02B
:104190001000019000BF00BF00BF00BF00BF0020A3
:1041A00001900846006840F010000860084600686A
:1041B00000F01000019000BF00BF00BF00BF00BFB3
:1041C000002001900846006840F0010008600846A1
:1041D000006800F00100019000BF00BF00BF102088
:1041E000029000200390012004900220059002A973
:1041F0001448FCF71DFF08200290002003900120C6
:1042000004900220059002A90E48FCF711FF04203B
:10421000029000200390012004900220059002A942
:104220000848FCF705FF01200290002003900220BF
:104230000490059002A90448FCF7FAFE07B000BDFF
:1042400030380240001002400000024070B50446C1
:10425000002609480588408845430021084603F0A8
:104260009BF803F071F900BF02E004480480761C5B
:10427000AE42FAD370BD0000A40200208000006CA2
:1042800010B5044658488471002C58D1F020564986
:1042900008804FF4A07048800846808845F210518D
:1042A000884210D14FF430504F4908814FF42850C4
:1042B00048814FF42C5088814FF4F07008804FF4FF
:1042C000487048801AE04848808841F66311884267
:1042D0000DD12C20444908812B2048812A20888137
:1042E0004FF4F07008804FF44870488006E02C20AE
:1042F0003D4908812A2048812B2088813A488088BE
:1043000045F21031884205D03748808847F29671CF
:10431000884206D14FF4A070334908804FF4F07002
:1043200048803148808849F60601884258D14FF4C8
:10433000F0702D4908804FF44870488050E04FF4E9
:10434000A07029490880F02048800846808845F2FE
:104350001051884210D14FF43050234908814FF456
:10436000285048814FF42C5088814FF448700880C1
:104370004FF4F070488020E01B48808841F66311BC
:10438000884205D01848808849F6060188420DD138
:104390002C20154908812A2048812B2088814FF440
:1043A000487008804FF4F070488006E02C200E49D9
:1043B00008812A2048812B2088810B48808845F27B
:1043C0001031884205D00848808847F296718842AB
:1043D00006D14FF4F070044908804FF4A070488073
:1043E000002002F0BBFE10BDA402002010B5CF20BB
:1043F00003F09EF8002003F08FF8C12003F08CF842
:10440000302003F089F8ED2003F092F8642003F0E7
:1044100083F8032003F080F8122003F07DF8812058
:1044200003F07AF8E82003F083F8852003F074F8AD
:10443000102003F071F87A2003F06EF8CB2003F01F
:1044400077F8392003F068F82C2003F065F8002095
:1044500003F062F8342003F05FF8022003F05CF808
:10446000F72003F065F8202003F056F8EA2003F067
:104470005FF8002003F050F8002003F04DF8C02052
:1044800003F056F81B2003F047F8C12003F050F862
:10449000012003F041F8C52003F04AF8302003F072
:1044A0003BF8302003F038F8C72003F041F8B7207C
:1044B00003F032F8362003F03BF8482003F02CF8E4
:1044C0003A2003F035F8552003F026F8B12003F028
:1044D0002FF8002003F020F81A2003F01DF8B62072
:1044E00003F026F80A2003F017F8A22003F014F8CE
:1044F000F22003F01DF8002003F00EF8262003F050
:1045000017F8012003F008F8E02003F011F80F205D
:1045100003F002F82A2002F0FFFF282002F0FCFF3F
:10452000082002F0F9FF0E2002F0F6FF082002F04A
:10453000F3FF542002F0F0FFA92002F0EDFF43202A
:1045400002F0EAFF0A2002F0E7FF0F2002F0E4FF8A
:10455000002002F0E1FF002002F0DEFF002002F068
:10456000DBFF002002F0D8FFE12002F0E1FF002095
:1045700002F0D2FF152002F0CFFF172002F0CCFF8F
:10458000072002F0C9FF112002F0C6FF062002F04A
:10459000C3FF2B2002F0C0FF562002F0BDFF3C20DD
:1045A00002F0BAFF052002F0B7FF102002F0B4FFBE
:1045B0000F2002F0B1FF3F2002F0AEFF3F2002F0DB
:1045C000ABFF0F2002F0A8FF2B2002F0B1FF00206C
:1045D00002F0A2FF002002F09FFF012002F09CFFEA
:1045E0003F2002F099FF2A2002F0A2FF002002F0F3
:1045F00093FF002002F090FF002002F08DFFEF20DB
:1046000002F08AFF112002F093FF7820FFF74AFDA5
:10461000292002F08DFF10BD10B5FF2002F088FFA9
:10462000FF2002F079FF982002F076FF062002F0CA
:1046300073FFBC2002F07CFF012002F06DFF0F2011
:1046400002F06AFF612002F067FFFF2002F064FFC2
:10465000012002F061FF012002F05EFF0B2002F05A
:104660005BFF102002F058FF372002F055FF632057
:1046700002F052FFFF2002F04FFFFF2002F04CFF3C
:10468000012002F049FF012002F046FF002002F065
:1046900043FF002002F040FFFF2002F03DFF5220C8
:1046A00002F03AFF012002F037FF002002F034FF51
:1046B000402002F031FFBD2002F03AFF012002F05D
:1046C0002BFF232002F028FF452002F025FF672062
:1046D00002F022FF012002F01FFF232002F01CFF46
:1046E000452002F019FF672002F016FFBE2002F0FD
:1046F0001FFF002002F010FF012002F00DFFAB2091
:1047000002F00AFF602002F007FF222002F004FFFF
:10471000222002F001FF222002F0FEFE222002F001
:10472000FBFE222002F0F8FEC72002F001FF362037
:1047300002F0F2FEED2002F0FBFE7F2002F0ECFE24
:104740000F2002F0E9FEC02002F0F2FE0F2002F07E
:10475000E3FE0B2002F0E0FE0A2002F0DDFEFC206A
:1047600002F0E6FE082002F0D7FEDF2002F0E0FEB5
:10477000002002F0D1FE002002F0CEFE002002F068
:10478000CBFE002002F0C8FE002002F0C5FE202073
:1047900002F0C2FEF32002F0CBFE742002F0BCFE59
:1047A000B42002F0C5FE002002F0B6FE002002F0A8
:1047B000B3FE002002F0B0FEF72002F0B9FE822026
:1047C00002F0AAFEB12002F0B3FE002002F0A4FE27
:1047D000132002F0A1FE132002F09EFEF22002F050
:1047E000A7FE802002F098FE042002F095FE4020F3
:1047F00002F092FE282002F08FFEC12002F098FE07
:10480000172002F089FE882002F086FE882002F040
:1048100083FE202002F080FEE02002F089FE0020CE
:1048200002F07AFE0A2002F077FE122002F074FEF7
:10483000102002F071FE0E2002F06EFE202002F029
:104840006BFECC2002F068FE072002F065FE062019
:1048500002F062FE0B2002F05FFE0E2002F05CFE12
:104860000F2002F059FE0D2002F056FE152002F036
:1048700053FE102002F050FE002002F04DFEE12019
:1048800002F056FE002002F047FE0B2002F044FE2C
:10489000132002F041FE0D2002F03EFE0E2002F039
:1048A0003BFE1B2002F038FE712002F035FE062090
:1048B00002F032FE062002F02FFE0A2002F02CFE4B
:1048C0000F2002F029FE0E2002F026FE0F2002F03B
:1048D00023FE152002F020FE0C2002F01DFE002019
:1048E00002F01AFE2A2002F023FE002002F014FE3D
:1048F000002002F011FE012002F00EFEDF2002F087
:104900000BFE2B2002F014FE002002F005FE00201A
:1049100002F002FE032002F0FFFD1F2002F0FCFD6A
:104920003A2002F005FE552002F0F6FD362002F096
:10493000FFFD002002F0F0FD112002F0F9FD7820CB
:10494000FFF7B0FB292002F0F3FD1420FFF7AAFBCC
:104950002C2002F0EDFD10BD10B5ED2002F0E8FDB9
:10496000012002F0D9FDFE2002F0D6FDEE2002F07B
:10497000DFFDDE2002F0D0FD212002F0CDFDF12090
:1049800002F0D6FD012002F0C7FDDF2002F0D0FDCD
:10499000102002F0C1FDC42002F0CAFD8F2002F0F9
:1049A000BBFDC62002F0C4FD002002F0B5FDE220F0
:1049B00002F0B2FDE22002F0AFFDE22002F0ACFD19
:1049C000BF2002F0B5FDAA2002F0A6FDB02002F043
:1049D000AFFD0D2002F0A0FD002002F09DFD0D2096
:1049E00002F09AFD002002F097FD112002F094FDE4
:1049F000002002F091FD192002F08EFD002002F04F
:104A00008BFD212002F088FD002002F085FD2D2085
:104A100002F082FD002002F07FFD3D2002F07CFDCF
:104A2000002002F079FD5D2002F076FD002002F00A
:104A300073FD5D2002F070FD002002F06DFDB120DD
:104A400002F076FD802002F067FD002002F064FD98
:104A50008B2002F061FD002002F05EFD962002F046
:104A60005BFD002002F058FDB22002F061FD002045
:104A700002F052FD002002F04FFD022002F04CFD3A
:104A8000002002F049FD032002F046FD002002F064
:104A900043FDB32002F04CFD002002F03DFD00205C
:104AA00002F03AFD002002F037FD002002F034FD54
:104AB000002002F031FD002002F02EFD002002F067
:104AC0002BFD002002F028FD002002F025FD002033
:104AD00002F022FD002002F01FFD002002F01CFD6C
:104AE000002002F019FD002002F016FD002002F067
:104AF00013FD002002F010FD002002F00DFD00204B
:104B000002F00AFD002002F007FD002002F004FD83
:104B1000002002F001FD002002F0FEFC002002F067
:104B2000FBFC002002F0F8FCB42002F001FD8B2019
:104B300002F0F2FC002002F0EFFC962002F0ECFC08
:104B4000002002F0E9FCA12002F0E6FC002002F0C7
:104B5000E3FCB52002F0ECFC022002F0DDFC0020BA
:104B600002F0DAFC032002F0D7FC002002F0D4FCB3
:104B7000042002F0D1FC002002F0CEFCB62002F0AE
:104B8000D7FC002002F0C8FC002002F0C5FCB720D2
:104B900002F0CEFC002002F0BFFC002002F0BCFCC2
:104BA0003F2002F0B9FC002002F0B6FC5E2002F0CB
:104BB000B3FC002002F0B0FC642002F0ADFC002049
:104BC00002F0AAFC8C2002F0A7FC002002F0A4FC5A
:104BD000AC2002F0A1FC002002F09EFCDC2002F0E0
:104BE0009BFC002002F098FC702002F095FC002055
:104BF00002F092FC902002F08FFC002002F08CFC6E
:104C0000EB2002F089FC002002F086FCDC2002F0A0
:104C100083FC002002F080FCB82002F089FC002018
:104C200002F07AFC002002F077FC002002F074FC15
:104C3000002002F071FC002002F06EFC002002F067
:104C40006BFC002002F068FC002002F065FCBA203A
:104C500002F06EFC242002F05FFC002002F05CFCFD
:104C6000002002F059FC002002F056FCC12002F0A6
:104C70005FFC202002F050FC002002F04DFC54208C
:104C800002F04AFC002002F047FCFF2002F044FC46
:104C9000002002F041FCC22002F04AFC0A2002F08F
:104CA0003BFC002002F038FC042002F035FC002020
:104CB00002F032FCC32002F03BFC3C2002F02CFC52
:104CC000002002F029FC3A2002F026FC002002F02D
:104CD00023FC392002F020FC002002F01DFC3720CC
:104CE00002F01AFC002002F017FC3C2002F014FC39
:104CF000002002F011FC362002F00EFC002002F031
:104D00000BFC322002F008FC002002F005FC2F20F2
:104D100002F002FC002002F0FFFB2C2002F0FCFB62
:104D2000002002F0F9FB292002F0F6FB002002F03F
:104D3000F3FB262002F0F0FB002002F0EDFB242024
:104D400002F0EAFB002002F0E7FB242002F0E4FB83
:104D5000002002F0E1FB232002F0DEFB002002F045
:104D6000DBFB3C2002F0D8FB002002F0D5FB362014
:104D700002F0D2FB002002F0CFFB322002F0CCFB8D
:104D8000002002F0C9FB2F2002F0C6FB002002F039
:104D9000C3FB2C2002F0C0FB002002F0BDFB292049
:104DA00002F0BAFB002002F0B7FB262002F0B4FBB1
:104DB000002002F0B1FB242002F0AEFB002002F044
:104DC000ABFB242002F0A8FB002002F0A5FB23206F
:104DD00002F0A2FB002002F09FFBC42002F0A8FB1F
:104DE000622002F099FB002002F096FB052002F001
:104DF00093FB002002F090FB842002F08DFB00204A
:104E000002F08AFBF02002F087FB002002F084FB16
:104E1000182002F081FB002002F07EFBA42002F0AB
:104E20007BFB002002F078FB182002F075FB0020CD
:104E300002F072FB502002F06FFB002002F06CFBCE
:104E40000C2002F069FB002002F066FB172002F044
:104E500063FB002002F060FB952002F05DFB002068
:104E600002F05AFBF32002F057FB002002F054FB43
:104E7000E62002F051FB002002F04EFBC52002F0BC
:104E800057FB322002F048FB002002F045FB442093
:104E900002F042FB002002F03FFB652002F03CFBE9
:104EA000002002F039FB762002F036FB002002F0F1
:104EB00033FB882002F030FB002002F02DFBC620DF
:104EC00002F036FB202002F027FB002002F024FB3A
:104ED000172002F021FB002002F01EFB012002F04F
:104EE0001BFB002002F018FBC72002F021FB002072
:104EF00002F012FB002002F00FFB002002F00CFB7E
:104F0000002002F009FBC82002F012FB002002F092
:104F100003FB002002F000FB002002F0FDFA00205D
:104F200002F0FAFAC92002F003FB002002F0F4FAC2
:104F3000002002F0F1FA002002F0EEFA002002F068
:104F4000EBFA002002F0E8FA002002F0E5FA002077
:104F500002F0E2FA002002F0DFFA002002F0DCFAB0
:104F6000002002F0D9FA002002F0D6FA002002F068
:104F7000D3FA002002F0D0FA002002F0CDFA00208F
:104F800002F0CAFA002002F0C7FAE02002F0D0FADC
:104F9000162002F0C1FA002002F0BEFA1C2002F036
:104FA000BBFA002002F0B8FA212002F0B5FA002086
:104FB00002F0B2FA362002F0AFFA002002F0ACFAAA
:104FC000462002F0A9FA002002F0A6FA522002F0D0
:104FD000A3FA002002F0A0FA642002F09DFA00205B
:104FE00002F09AFA7A2002F097FA002002F094FA7E
:104FF0008B2002F091FA002002F08EFA992002F044
:105000008BFA002002F088FAA82002F085FA00202E
:1050100002F082FAB92002F07FFA002002F07CFA56
:10502000C42002F079FA002002F076FACA2002F0D9
:1050300073FA002002F070FAD22002F06DFA00201C
:1050400002F06AFAD92002F067FA002002F064FA4E
:10505000E02002F061FA002002F05EFAF32002F094
:105060005BFA002002F058FAE12002F061FA162003
:1050700002F052FA002002F04FFA1C2002F04CFA23
:10508000002002F049FA222002F046FA002002F045
:1050900043FA362002F040FA002002F03DFA4520A3
:1050A00002F03AFA002002F037FA522002F034FA05
:1050B000002002F031FA642002F02EFA002002F003
:1050C0002BFA7A2002F028FA002002F025FA8B2031
:1050D00002F022FA002002F01FFA992002F01CFAD6
:1050E000002002F019FAA82002F016FA002002F0BF
:1050F00013FAB92002F010FA002002F00DFAC420D1
:1051000002F00AFA002002F007FACA2002F004FABC
:10511000002002F001FAD22002F0FEF9002002F095
:10512000FBF9D82002F0F8F9002002F0F5F9E020B0
:1051300002F0F2F9002002F0EFF9F32002F0ECF9AE
:10514000002002F0E9F9E22002F0F2F9052002F075
:10515000E3F9002002F0E0F90B2002F0DDF9002075
:1051600002F0DAF91B2002F0D7F9002002F0D4F99E
:10517000342002F0D1F9002002F0CEF9442002F0F0
:10518000CBF9002002F0C8F94F2002F0C5F9002049
:1051900002F0C2F9612002F0BFF9002002F0BCF970
:1051A000792002F0B9F9002002F0B6F9882002F067
:1051B000B3F9002002F0B0F9972002F0ADF9002019
:1051C00002F0AAF9A62002F0A7F9002002F0A4F943
:1051D000B72002F0A1F9002002F09EF9C22002F0EF
:1051E0009BF9002002F098F9C72002F095F9002001
:1051F00002F092F9D12002F08FF9002002F08CF930
:10520000D62002F089F9002002F086F9DD2002F0B4
:1052100083F9002002F080F9F32002F07DF90020EC
:1052200002F07AF9E32002F083F9052002F074F924
:10523000002002F071F90A2002F06EF9002002F05D
:105240006BF91C2002F068F9002002F065F93320A8
:1052500002F062F9002002F05FF9442002F05CF9EC
:10526000002002F059F9502002F056F9002002F017
:1052700053F9622002F050F9002002F04DF9782035
:1052800002F04AF9002002F047F9882002F044F9C0
:10529000002002F041F9972002F03EF9002002F0D0
:1052A0003BF9A62002F038F9002002F035F9B720CA
:1052B00002F032F9002002F02FF9C22002F02CF99E
:1052C000002002F029F9C72002F026F9002002F0A0
:1052D00023F9D12002F020F9002002F01DF9D52099
:1052E00002F01AF9002002F017F9DD2002F014F99B
:1052F000002002F011F9F32002F00EF9002002F074
:105300000BF9E42002F014F9012002F005F9002065
:1053100002F002F9012002F0FFF8002002F0FCF890
:10532000022002F0F9F8002002F0F6F82A2002F03C
:10533000F3F8002002F0F0F83C2002F0EDF8002035
:1053400002F0EAF84B2002F0E7F8002002F0E4F85F
:105350005D2002F0E1F8002002F0DEF8742002F097
:10536000DBF8002002F0D8F8842002F0D5F8002005
:1053700002F0D2F8932002F0CFF8002002F0CCF82F
:10538000A22002F0C9F8002002F0C6F8B32002F013
:10539000C3F8002002F0C0F8BE2002F0BDF80020E3
:1053A00002F0BAF8C42002F0B7F8002002F0B4F816
:1053B000CD2002F0B1F8002002F0AEF8D32002F0C8
:1053C000ABF8002002F0A8F8DD2002F0A5F80020DC
:1053D00002F0A2F8F32002F09FF8002002F09CF8FF
:1053E000E52002F0A5F8002002F096F8002002F077
:1053F00093F8002002F090F8002002F08DF80220CF
:1054000002F08AF8002002F087F8292002F084F8E0
:10541000002002F081F83C2002F07EF8002002F02B
:105420007BF84B2002F078F8002002F075F85D2040
:1054300002F072F8002002F06FF8742002F06CF8AD
:10544000002002F069F8842002F066F8002002F0E3
:1054500063F8932002F060F8002002F05DF8A220CB
:1054600002F05AF8002002F057F8B32002F054F886
:10547000002002F051F8BE2002F04EF8002002F0A9
:105480004BF8C42002F048F8002002F045F8CD2087
:1054900002F042F8002002F03FF8D32002F03CF87E
:1054A000002002F039F8DC2002F036F8002002F08B
:1054B00033F8F32002F030F8002002F02DF8E62057
:1054C00002F036F8112002F027F8002002F024F84C
:1054D000342002F021F8002002F01EF8562002F0DD
:1054E0001BF8002002F018F8762002F015F80020D2
:1054F00002F012F8772002F00FF8002002F00CF80A
:10550000662002F009F8002002F006F8882002F078
:1055100003F8002002F000F8992001F0FDFF0020C0
:1055200001F0FAFFBB2001F0F7FF002001F0F4FFCB
:10553000992001F0F1FF002001F0EEFF662001F05C
:10554000EBFF002001F0E8FF552001F0E5FF00200F
:1055500001F0E2FF552001F0DFFF002001F0DCFF49
:10556000452001F0D9FF002001F0D6FF432001F0D3
:10557000D3FF002001F0D0FF442001F0CDFF002038
:1055800001F0CAFFE72001F0D3FF322001F0C4FF91
:10559000002001F0C1FF552001F0BEFF002001F006
:1055A000BBFF762001F0B8FF002001F0B5FF6620B8
:1055B00001F0B2FF002001F0AFFF672001F0ACFF67
:1055C000002001F0A9FF672001F0A6FF002001F0F4
:1055D000A3FF872001F0A0FF002001F09DFF99208C
:1055E00001F09AFF002001F097FFBB2001F094FF2B
:1055F000002001F091FF992001F08EFF002001F0C2
:105600008BFF772001F088FF002001F085FF442008
:1056100001F082FF002001F07FFF562001F07CFFA7
:10562000002001F079FF232001F076FF002001F037
:1056300073FF332001F070FF002001F06DFF452063
:1056400001F06AFF002001F067FFE82001F070FF21
:10565000002001F061FF002001F05EFF992001F0C1
:105660005BFF002001F058FF872001F055FF00206C
:1056700001F052FF882001F04FFF002001F04CFFA5
:10568000772001F049FF002001F046FF662001F07D
:1056900043FF002001F040FF882001F03DFF002083
:1056A00001F03AFFAA2001F037FF002001F034FF9B
:1056B000BB2001F031FF002001F02EFF992001F006
:1056C0002BFF002001F028FF662001F025FF0020BD
:1056D00001F022FF552001F01FFF002001F01CFF08
:1056E000552001F019FF002001F016FF442001F0C1
:1056F00013FF002001F010FF442001F00DFF0020F7
:1057000001F00AFF552001F007FF002001F004FF1F
:10571000E92001F00DFFAA2001F0FEFE002001F0BB
:10572000FBFE002001F0F8FE002001F0F5FE002055
:1057300001F0FEFEAA2001F0EFFECF2001F0F8FEFE
:10574000002001F0E9FE002001F0E6FE002001F05B
:10575000E3FE002001F0E0FE002001F0DDFE00206D
:1057600001F0DAFE002001F0D7FE002001F0D4FEA7
:10577000002001F0D1FE002001F0CEFE002001F05B
:10578000CBFE002001F0C8FE002001F0C5FE002085
:1057900001F0C2FE002001F0BFFE002001F0BCFEBF
:1057A000002001F0B9FEF02001F0C2FE002001F05F
:1057B000B3FE502001F0B0FE002001F0ADFE00204D
:1057C00001F0AAFE002001F0A7FEF32001F0B0FED8
:1057D000002001F0A1FEF92001F0AAFE062001F050
:1057E0009BFE102001F098FE292001F095FE00207C
:1057F00001F092FE3A2001F09BFE552001F08CFE54
:10580000112001F095FE6420FEF74CFC292001F0E8
:105810008FFE352001F08CFE002001F07DFE51202E
:1058200001F086FEFF2001F077FE532001F080FE9C
:105830002C2001F071FE552001F07AFE822001F04B
:105840006BFE2C2001F074FE10BD10B555214FF4F5
:10585000704001F083FEAA214FF2010001F07EFEAC
:1058600052214FF2020001F079FE08214FF20300AD
:1058700001F074FE01214FF2040001F06FFE0D21D2
:105880004FF4304001F06AFE0D214BF2010001F0AF
:1058900065FE0D214BF2020001F060FE34214FF451
:1058A000364001F05BFE34214BF2016001F056FE00
:1058B00034214BF2026001F051FE0D214FF43140D2
:1058C00001F04CFE0D214BF2011001F047FE0D21BD
:1058D0004BF2021001F042FE34214FF4374001F048
:1058E0003DFE34214BF2017001F038FE34214BF2C1
:1058F000027001F033FE00214FF4324001F02EFE21
:1059000000214BF2012001F029FE00214BF2022080
:1059100001F024FE24214FF4384001F01FFE242121
:105920004BF6010001F01AFE24214BF6020001F0B3
:1059300015FE01214FF43F4001F010FE0F214FF4FE
:10594000334001F00BFE0F214BF2013001F006FE57
:105950000F214BF2023001F001FE34214FF43940A7
:1059600001F0FCFD34214BF6011001F0F7FD34216C
:105970004BF6021001F0F2FD08214FF4354001F022
:10598000EDFD08214BF2015001F0E8FD08214BF23A
:10599000025001F0E3FD03214FF4424001F0DEFD2F
:1059A00024214FF43A4001F0D9FD24214BF6012087
:1059B00001F0D4FD24214BF6022001F0CFFD00219F
:1059C0004FF43C4001F0CAFD78214BF6014001F054
:1059D000C5FD00214BF6024001F0C0FD00214FF44F
:1059E0003D4001F0BBFD78214BF6015001F0B6FDC2
:1059F00000214BF6025001F0B1FD00214FF43E4072
:105A000001F0ACFD64214BF6016001F0A7FD00211F
:105A10004FF4514001F0A2FD33214DF2011001F08D
:105A20009DFD00214DF2021001F098FD34214DF250
:105A3000031001F093FD00214DF2041001F08EFDE2
:105A40003A214DF2051001F089FD00214DF20610BA
:105A500001F084FD4A214DF2071001F07FFD002185
:105A60004DF2081001F07AFD5C214DF2091001F0B1
:105A700075FD00214DF20A1001F070FD81214DF2FB
:105A80000B1001F06BFD00214DF20C1001F066FDD2
:105A9000A6214DF20D1001F061FD00214DF20E1016
:105AA00001F05CFDE5214DF20F1001F057FD0121E1
:105AB0004DF2101001F052FD13214DF2111001F0C2
:105AC0004DFD01214DF2121001F048FD54214DF21F
:105AD000131001F043FD01214DF2141001F03EFDC1
