:020000040800F2
:10000000B05D012061020008452C0008FF2B0008AC
:10001000412C0008BF080008C1550008000000007E
:10002000000000000000000000000000A101000826
:100030009D09000800000000FD010008012F0008D4
:100040008502000885020008850200088502000874
:100050008502000885020008850200088502000864
:100060008502000885020008850200088502000854
:100070008502000885020008850200088502000844
:100080008502000885020008850200088502000834
:100090008502000885020008850200088502000824
:1000A0008502000885020008850200088502000814
:1000B0008502000885020008850200088502000804
:1000C00085020008850200088502000885020008F4
:1000D0008502000825330008850200088502000813
:1000E00085020008850200088502000885020008D4
:1000F00085020008850200088502000885020008C4
:1001000085020008850200088502000885020008B3
:1001100085020008850200088502000885020008A3
:100120008502000885020008850200088502000893
:100130008502000885020008850200088502000883
:10014000850200088502000885020008492C000885
:100150008502000885020008850200088502000863
:100160008502000885020008850200088502000853
:1001700085020008850200088502000800000000D2
:100180008502000885020008DFF810D000F048FB67
:100190000048004769940008AFF30080B05D01207B
:1001A0002C4B19680868B0E8F04F80F30988BFF35A
:1001B0006F8F4FF0000080F311887047000000003F
:1001C00008480068006880F308884FF0000080F35A
:1001D000148862B661B6BFF34F8FBFF36F8F00DF35
:1001E00000BF00BF08ED00E0DFF80C00016841F43B
:1001F00070010160704700BF88ED00E0EFF30980F7
:10020000BFF36F8F134B1A681EF0100F08BF20ED5D
:10021000108A20E9F04F106009B44FF0500080F3CD
:100220001188BFF34F8FBFF36F8F0AF01BFD4FF0A4
:10023000000080F3118809BC19680868B0E8F04F25
:100240001EF0100F08BFB0EC108A80F30988BFF3CE
:100250006F8F704718000020EFF305807047000093
:100260000948016841F47001016008488047084866
:100270000047FEE7FEE7FEE7FEE7FEE7FEE7FEE7F4
:10028000FEE7FEE7FEE7000088ED00E0152F00081E
:10029000890100082DE9F05F0546002092469B4643
:1002A00088460646814640241BE02846414647468C
:1002B000224600F001F953465A46C01A914110D324
:1002C00011461846224600F0E8F82D1A67EB01089F
:1002D0004F4622460120002100F0DFF817EB00090D
:1002E0004E41201EA4F10104DFDC484631462A4677
:1002F0004346BDE8F09F40EA01039B0703D009E0B5
:1003000008C9121F08C0042AFAD203E011F8013B01
:1003100000F8013B521EF9D27047D2B201E000F85A
:10032000012B491EFBD270470022F6E710B5134699
:100330000A4604461946FFF7F0FF204610BD2DE996
:10034000FE4F81EA030404F0004421F000410094D0
:100350004FF0000B23F0004350EA01045ED052EA54
:1003600003045BD0C3F30A54C1F30A552C44A4F22E
:10037000F3340194A0FB0254C1F3130141F4801142
:10038000C3F3130343F4801301FB024400FB034E49
:10039000840A970A44EA815447EA8357A4FB076812
:1003A00002958D0A05FB07854FEA932C04FB0C543C
:1003B0002705029D4FEA065847EA1637B5EB0805B0
:1003C0006EEB070C870E920E47EA811742EA831202
:1003D000A7FB0201B6EB0B0164EB00042B0D43EA13
:1003E0000C335E1844EB1C50DA465146E7FB020121
:1003F000C5F313044FEA0B3343EA14534FEA0432B4
:10040000019C43EA0603A4F10C040294009CCDE98C
:1004100000B400F070F803B0BDE8F08F0020014692
:10042000F9E70EB540F2334102910021CDE9001108
:100430000A460B4600F05FF803B000BDC1F30A5254
:1004400010B5C1F3130140F2FF3341F480119A4219
:1004500001DA002010BD40F233439A42A2F2334247
:1004600003DC524200F028F810BD904010BD30B5BA
:100470000B46014600202022012409E021FA02F562
:100480009D4205D303FA02F5491B04FA02F52844FC
:10049000151EA2F10102F1DC30BD202A04DB203A56
:1004A00000FA02F1002070479140C2F1200320FAC7
:1004B00003F3194390407047202A04DB203A21FAC5
:1004C00002F00021704721FA02F3D040C2F120026D
:1004D000914008431946704710B5141E73F100048B
:1004E00008DA401C41F1000192185B411A4301D126
:1004F00020F0010010BD2DE9F04D92469B4611B150
:10050000B1FA81F202E0B0FA80F220329046FFF7B1
:10051000C4FF04460F4640EA0A0041EA0B01534675
:100520005A46084313D0114653EA010019D0C8F1C6
:1005300040025046FFF7C0FF05460E46504659465A
:100540004246FFF7AAFF084305D0012004E02046F9
:100550003946BDE8F08D0020054346EAE0762C439D
:1005600037430A986305E40AA0EB08000022FD0A5D
:1005700044EA47540A3002D500200146E9E7010564
:1005800010196941DDE9084500196941BDE8F04DE0
:10059000A2E72DE9FE4F804681EA0300C00F0C461A
:1005A000009021F0004123F00045B8EB0200A94182
:1005B00005D24046214690461C460B46024623F093
:1005C0000040104347D0270DC7F30A00C3F30A5178
:1005D0000290401A019040286BDAC3F3130040F4F4
:1005E000801B0098924620B10023D2EB030A63EBF4
:1005F0000B0B01985946C0F140025046FFF74DFFE2
:1006000006460D4650465946019A00F01BF910EB7C
:1006100008006141002487EA115284EAE7731A4313
:1006200040D0009A62B3019A012A4FEA075215DCC2
:10063000001B61EB02014FF0004202EA0752CDE9D4
:100640000042001C41F5801132462B46FFF753FF54
:1006500003B0BDE8F08F40462146F9E7001B61EB8F
:100660000201001C41F5801300185B412018A2F51F
:10067000001747EB030140EAD570B6196D4111E050
:100680006D084FEA360645EAC0754FEA0752001B6F
:1006900061EB0201001C41F5801149084FEA30006E
:1006A0000019514132462B4603B0BDE8F04FFFF729
:1006B00013BF0098012240000023D0EB020263EB3D
:1006C000E073009821464FEAE074B8EB000061EB5C
:1006D0000401E9E783F000435BE781F0004158E75C
:1006E0002DE9F04D81EA030404F0004B21F00045B0
:1006F00014464FF0000A23F0004150EA050220D0D2
:1007000054EA01021DD0C5F30A570246C5F313038C
:10071000C1F31300C1F30A5640F4801543F480136B
:10072000A7EB0608101BD64608F2FD3873EB050050
:1007300002D308F1010801E092185B41B8F1000F03
:1007400003DA00200146BDE8F08D00204FF480114F
:10075000064684460EE0171B73EB050705D3121BF4
:1007600063EB050306434CEA010C49084FEA3000ED
:1007700092185B4150EA0107EDD152EA030012D012
:1007800082EA040083EA0501084305D0101BAB414F
:1007900006D20122002306E000224FF0004302E0CF
:1007A0006FF0010253101AEB06004CEB085110EBEE
:1007B0000A0041EB0B01BDE8F04DFFF78DBEC1F320
:1007C0000A52C1F3130140F2FF3341F480119A42FF
:1007D00002DA00200146704740F233439A42A2F207
:1007E000334202DC5242FFF767BEFFF756BE0000FD
:1007F00030B5041E71F1000404DB4FF000444042A8
:1008000064EB0101141E73F1000405DB1C464FF07C
:100810000043524263EB0403994208BF904230BD4B
:10082000064C074D06E0E06840F0010394E807003D
:1008300098471034AC42F6D3FFF7AAFC00BA000880
:1008400020BA0008202A06DBCB17203A41FA02F032
:1008500043EAE07306E041FA02F3D040C2F120021D
:10086000914008431946704770B58C1810F8015B29
:1008700015F0070301D110F8013B2A1106D110F839
:10088000012B03E010F8016B01F8016B5B1EF9D13D
:100890002B0705D40023521E0DD401F8013BFAE7C3
:1008A00010F8013BCB1A921C03E013F8015B01F82E
:1008B000015B521EF9D5A142D8D3002070BD00BF04
:1008C000FEE7000010B50346042B15D007DC7BB112
:1008D000012B0ED0022B0DD0032B3CD10BE0202B93
:1008E0000BD0212B1CD0222B33D0232B33D131E042
:1008F00032E031E030E02FE02EE008784C7840EA3A
:1009000004208C7840EA0440CC7840EA0460144C1F
:10091000206008792071487960718879A0711BE0A6
:100920000F48007808700E480088000A48700C488C
:100930000068000C88700A480068000EC8700848FB
:1009400000790871064840794871054880798871B6
:1009500002E001E000E000BF00BF002010BD000089
:100960002C0200200020704710B50349034802F014
:1009700031FE002010BD00002058012088540120C5
:1009800070B505460C46044802F0FFFD2846216874
:1009900005F0E0FA002070BD885401207047000087
:1009A00070B504461D460023B5F5804F13D154F8A9
:1009B00022300C480340D1E9000640EA06108E6858
:1009C00040EA06208E8940EA06408E6930430343A0
:1009D00044F8223003E06FF0704044F82200002019
:1009E00070BD00000000F0CF10B50346002208687B
:1009F00053F8202012480240D1E901042043CC687A
:100A000020430C6920434C6920438C692043CC6906
:100A100020430C6A20434C6A20438C6A2043CC6AF2
:100A20002043CC6B20430C6B20430243886808288A
:100A300001D142F04002086843F82020002010BD98
:100A40008000F0FF30B503460024501C53F82040CE
:100A500004F04044D1E9000540EA05108D6840EA01
:100A600005208D8940EA0545088A401E45EA005563
:100A7000087D801E45EA00608D6928430443501CB0
:100A800043F82040002030BD70B50A480468001DBE
:100A90000568001D0668344454B108220649204602
:100AA00002F0AFF8042204491031284602F0A9F8F8
:100AB00070BD0000107AFF1F12020020F0B504463E
:100AC0000A46216894F82050012D01D0022D7ED1D4
:100AD000424901F50071086840F0010008600868AB
:100AE00020F47C5008600868566A40EA06200860D6
:100AF000107D00F01F06012000FA06F3C869984334
:100B0000C861A1F50071D069C8B9D1F80C02984349
:100B1000C1F80C02908880B2968940EA064601F539
:100B20001070576940F83760108880B2168940EA23
:100B3000064601F51070576900EBC7004660D069A2
:100B4000012819D1D1F80C021843C1F80C02908881
:100B500080B2168840EA064601F51070576940F8E1
:100B60003760908980B2168940EA064601F5107018
:100B7000576900EBC7004660906928B9D1F80402B4
:100B80009843C1F8040204E0D1F804021843C1F804
:100B90000402106928B9D1F814029843C1F814026C
:100BA00004E0D1F814021843C1F81402106A0128B5
:100BB00004D1D1F81C021843C1F81C02D1F800027C
:100BC00020F00100C1F800020020F0BDFFE7606ADC
:100BD00040F4802060620120F7E7000000640040DC
:100BE00070B504460CB9012070BD94F8200010B90E
:100BF000204600F0AFF82068006820F0020021686D
:100C0000086000F0C5FA05460DE000F0C1FA401B8F
:100C10000A2808D9606A40F400306062052084F830
:100C200020000120E0E72068406800F00200002872
:100C3000EBD12068006840F001002168086000F0F6
:100C4000A7FA05460DE000F0A3FA401B0A2808D9D0
:100C5000606A40F400306062052084F820000120C2
:100C6000C2E72068406800F001000028EBD0207E39
:100C7000012806D12068006840F0800021680860E3
:100C800005E02068006820F0800021680860607E30
:100C9000012806D12068006840F040002168086003
:100CA00005E02068006820F0400021680860A07E10
:100CB000012806D12068006840F020002168086003
:100CC00005E02068006820F0200021680860E07ED0
:100CD000012806D12068006820F010002168086013
:100CE00005E02068006840F0100021680860207F5F
:100CF000012806D12068006840F0080021680860DB
:100D000005E02068006820F0080021680860607F26
:100D1000012806D12068006840F0040021680860BE
:100D200005E02068006820F0040021680860D4E92C
:100D30000201084321690843616908436168491E4B
:100D400008432168C86100206062012084F8200007
:100D5000002049E710B586B004462849206888423B
:100D60004AD100BF00BF002000902548006840F035
:100D70000100234908600846006800F00100009067
:100D800000BF00BF00BF00BF00BF002000900846AA
:100D9000006840F0010008600846006800F00100AB
:100DA000009000BF00BF00BF00BF002000901448AB
:100DB0001030006840F0007011491031086008469A
:100DC000006800F00070009000BF00BF8814019020
:100DD0000220029001200390022004900920059037
:100DE00001A9084800F0BCF84FF40060019001A987
:100DF000044800F0B5F800BF06B010BD0064004024
:100E0000303802400000024070B5044694F82000DB
:100E1000012822D1022084F820002068006820F0F8
:100E200001002168086000F0B3F905460DE000F00C
:100E3000AFF9401B0A2808D9606A40F400306062AC
:100E4000052084F82000012070BD2068406800F073
:100E500001000028EBD16062F6E7606A40F40020F0
:100E600060620120F0E770B50446A56D00F090F9CE
:100E7000064694F83500022808D08020606500BF3F
:100E8000002084F8340000BF012070BD2068006895
:100E900020F01600216808602068406920F080007A
:100EA00021684861206C08B9A06C28B120680068EE
:100EB00020F00800216808602068006820F0010028
:100EC000216808600FE000F063F9801B05280AD94B
:100ED0002020606500BF002084F8340000BF03209C
:100EE00084F83500D1E72068006800F00100002890
:100EF000E9D194F85C103F208840A86000BF002032
:100F000084F8340000BF012084F835000020BCE7DD
:100F1000014691F83500022803D080204865012061
:100F20007047052081F835000868006820F001004E
:100F30000A6810600020F3E770B5044600F028F955
:100F400006462546681C10B104480078054400BFD9
:100F500000F01EF9801BA842FAD370BD14000020D7
:100F6000F8B502460B460025002400200021DEE0F3
:100F7000012606FA01F51E6806EA0504AC4275D1A1
:100F80001E7906F00306012E04D01E7906F0030632
:100F9000022E13D190684F000326BE40B0434F008D
:100FA000DE68BE4030439060506801268E40B043FA
:100FB0001E79C6F300168E40304350601E7906F04D
:100FC0000306032E09D0D0684F000326BE40B0436D
:100FD0004F009E68BE403043D0601E7906F0030685
:100FE000022E13D1CF0802F1200656F827004E0733
:100FF000F70E0F26BE40B0434F07FF0E1E69BE40DE
:101000003043CF0802F1200646F8270010684F0051
:101010000326BE40B0431E7906F003064F00BE40D3
:10102000304310605E6806F08056B6F1805F7DD177
:1010300000BF00260096404E366846F480463E4F7C
:101040003E603E46366806F48046009600BF00BF0C
:101050003A4E8F0856F827008E07370F0F26BE40EE
:10106000B043374EB24202D1002624E05EE0354E56
:10107000B24201D101261EE0334EB24201D1022616
:1010800019E0324EB24201D1032614E0304EB24292
:1010900001D104260FE02F4EB24201D105260AE00D
:1010A0002D4EB24201D1062605E02C4EB24201D1AE
:1010B000072600E008268F073F0FBE4030431F4E33
:1010C0008F0846F82700264E3068A0435E6806F475
:1010D0008036B6F5803F00D12043214E3060361D6A
:1010E0003068A0435E6806F40036B6F5003F00D1D4
:1010F00020431B4E361D3060361D3068A0435E68AD
:1011000006F48016B6F5801F00D12043144E083631
:101110003060361D3068A0435E6806F40016B6F5F0
:10112000001F00D120430E4E0C363060491C1029A0
:10113000FFF41EAFF8BD00004438024008380140FB
:10114000000002400004024000080240000C02407F
:10115000001002400014024000180240001C02402F
:10116000003C014010B5426921EA020302EA010491
:1011700043EA0443836110BD0AB1816101E00B04BD
:101180008361704701480068000C7047002004E04C
:1011900001480068704700000C0000200348006808
:1011A0000349097808440149086070470C00002091
:1011B0001400002010B50A48006840F40070084987
:1011C00008600846006840F480600860032000F072
:1011D0007FF80F2000F006F800F02AF8002010BD7C
:1011E000003C024070B504460E4800784FF47A7116
:1011F000B1FBF0F00C490968B1FBF0F5284601F0AD
:10120000A9FA08B1012070BD102C07D20022214696
:10121000501E00F01EF80548046001E00120F2E7CE
:101220000020F0E714000020000000201000002043
:10123000704701460846002809DB00F01F03012221
:101240009A4043099B0003F1E023C3F8002100BF4B
:1012500070472DE9F05F80460D461646002704F0E2
:10126000C1F9074639462A46334601F00700C0F166
:10127000070ABAF1040F02D94FF0040A01E0C0F1E5
:10128000070AD14600F1040ABAF1070F02D24FF063
:10129000000A01E0A0F1030AD4464FF0010A0AFA5D
:1012A00009FAAAF1010A0AEA020A0AFA0CFA4FF04C
:1012B000010B0BFA0CFBABF1010B0BEA030B4AEA37
:1012C0000B042146404604F095F9BDE8F09F00006C
:1012D00000BF00F00702064B19684FF6FF031940E4
:1012E000044B0B4343EA0221014B196000BF7047D6
:1012F0000CED00E00000FA057047024610684162FC
:1013000000207047F0B5034615461868446A21B9B5
:1013100044EA05401E68B06219E01868806A04EB70
:101320001044002208E0186800F5827050F822008E
:1013300004EB1044501CC2B2481E9042F3D844EA59
:101340000547186800F582704E1E40F82670002090
:10135000F0BD000010B50446012003490870D4F820
:10136000040402F0D4FC10BDDB01002070B504467B
:101370000D46C5EBC50304F13C0101EB8301CA68CE
:101380002946D4F8040402F00AFC70BD70B5044686
:101390000D46C5EBC50304F5FE7101EB8301CA6878
:1013A0002946D4F8040402F06BFC70BD10B5044665
:1013B000002003490870D4F8040402F0ABFC10BD0F
:1013C000DB01002070B504460E4606F08000802840
:1013D0000AD106F00F00C0EBC00104F13C0000EBA5
:1013E00081050120687009E006F00F00C0EBC00124
:1013F00004F5FE7000EB81050020687006F00F0018
:10140000287000BF94F8BC03012801D1022070BDF0
:10141000012084F8BC0300BF2946206803F030FA9D
:1014200000BF002084F8BC0300BF00BFEFE770B529
:1014300004460E4606F00F006168884201D901207B
:1014400070BD06F0800080280AD106F00F00C0EBC6
:10145000C00104F13C0000EB81050120687009E047
:1014600006F00F00C0EBC00104F5FE7000EB810533
:10147000002068700020A87006F00F00287000BFE0
:1014800094F8BC03012801D10220D9E7012084F897
:10149000BC0300BF2946206803F0D8FC00BF002031
:1014A00084F8BC0300BF00BFCAE7024601F00F008A
:1014B000C0EBC00302F5FE7000EB8300806970474B
:1014C0002DE9F04705460E4690461F464FF00009AD
:1014D00006F0800080280AD106F00F00C0EBC001A2
:1014E00005F13C0000EB81040120607009E006F08A
:1014F0000F00C0EBC00105F5FE7000EB8104002079
:10150000607006F00F002070C4F80880E770607803
:1015100008B12078E080022F01D10020207100BFA7
:1015200095F8BC03012802D10220BDE8F087012014
:1015300085F8BC0300BF2146286803F0BDF800BF52
:10154000002085F8BC0300BF4846EEE72DE9F041D6
:1015500004460E461746984606F00F00C0EBC00141
:1015600004F5FE7000EB8105EF60C5F814800020E3
:10157000A861687006F00F0028702069012800D16A
:101580002F6106F00F0028B9227C2946206803F05D
:1015900039FB04E0227C2946206803F0EBFC0020A4
:1015A000BDE8F08170B504460D4605F00F00616896
:1015B000884201D9012070BD05F0800080280AD141
:1015C00005F00F00C0EBC00104F13C0000EB810608
:1015D0000120707007E0C5EBC50104F5FE7000EB5B
:1015E0008106002070700120B07005F00F0030708F
:1015F00000BF94F8BC03012801D10220DBE70120E1
:1016000084F8BC0300BF3146206803F066FC05F097
:101610000F0028B9217C04F57172206803F0DEFB0D
:1016200000BF002084F8BC0300BF00BFC3E72DE962
:10163000F04104460E461746984606F00F00C0EBF0
:10164000C00104F13C0000EB8105EF60C5F8148097
:101650000020A8610120687006F00F002870206942
:10166000012800D12F6106F00F0028B9227C2946FD
:10167000206803F0C7FA04E0227C2946206803F0C2
:1016800079FC0020BDE8F0812DE9FE4F044620687A
:101690000290029D206803F058FE00287DD120684A
:1016A00003F0ACFE08B9BDE8FE8F206803F0A6FE8B
:1016B00000F00200022805D12068406900F0020015
:1016C00021684861206803F099FE00F0100010289E
:1016D00046D12068806920F0100021688861029856
:1016E000D0F8209009F00F00C0EBC00104F5FE70A7
:1016F00000EB810BC9F3434002281AD147F6F07082
:1017000009EA000030B3C9F30A12DBF80C100298A2
:1017100003F079FEC9F30A11DBF80C000844CBF89A
:101720000C00C9F30A11DBF818000844CBF81800C4
:1017300010E0C9F3434006280CD1082204F571716A
:10174000029803F060FEC9F30A11DBF818000844A0
:10175000CBF818002068806940F01000216888618B
:10176000206803F04BFE00F40020B0F5002F52D1AA
:101770000026206803F012FE824649E00AF00100CC
:10178000E8B3F1B2206803F02CFE804608F00100B7
:1017900058B1012105F5306000E021E200EB461070
:1017A00081603146204601F089FA08F008000828D7
:1017B00009D1082105F5306000EB46108160314603
:1017C000204601F049FA08F01000102805D1102138
:1017D00005F5306000EB4610816008F020002028FD
:1017E00005D1202105F5306000EB4610816008F43A
:1017F0000050B0F5005F08D14FF4005100E004E064
:1018000005F5306000EB46108160761C4FEA5A0AFD
:10181000BAF1000FB2D1206803F0F0FD00F480208F
:10182000B0F5802F7ED1206803F0AEFD8246002601
:1018300083E00AF0010000287CD0F1B2206803F0B8
:10184000B7FD804608F00100F0B306F00F0101205B
:101850008840019040F634004159019821EA000087
:1018600040F634014851012105F5106000EB4610A7
:1018700081602069012824D1C6EBC60104F13C0037
:1018800000EB8100C6EBC602C16804F13C0000EB2E
:10189000820080680144C6EBC60204F13C0000EB04
:1018A0008200C1606EB9C6EBC60104F13C0000EBDA
:1018B0008100406928B904F571720121206803F0A4
:1018C0008DFAF1B2204600E001E0FFF74FFD08F08D
:1018D0000800082805D1082105F5106000EB461026
:1018E000816008F01000102805D1102105F5106066
:1018F00000EB4610816008F04000402805D14021EF
:1019000005F5106000EB4610816008F00200022827
:1019100005D1022105F5106000EB4610816008F04A
:10192000800001E00DE005E0802803D1314620462B
:1019300001F082FA761C4FEA5A0ABAF1000F7FF4DE
:1019400078AF206803F05AFD00F00040B0F1004F7E
:101950001CD140F60400405920F0010140F604007B
:10196000415194F8F403012807D1002084F8F403CE
:1019700000212046FFF7C0FC02E0204600F067FA95
:101980002068406900F0004021684861206803F049
:1019900035FD00F40060B0F5006F0ED140F6080090
:1019A000405900F0010010B1204600F0A7FA20686D
:1019B000406900F4006021684861206803F01EFD62
:1019C00000F48050B0F5805F7DD140F604004059AE
:1019D00020F0010140F6040041511021206803F07D
:1019E00089FC00273EE04FF67F3105F5106000EBE3
:1019F0004710816005F5106000EB4710006820F487
:101A0000001105F5106000EB4710016005F510604E
:101A100000EB4710006840F0006105F5106000EB36
:101A2000471001604FF67F3105F5306000EB47103D
:101A3000816005F5306000EB4710006820F400116C
:101A400005F5306000EB4710016005F5306000EBF4
:101A50004710006840F0006105F5306000EB47106A
:101A600001607F1C6068B842BDD840F61C00405938
:101A700040F0011140F61C004151206B70B1D5F8C7
:101A8000840840F00B01C5F8841840F64400405922
:101A900040F00B0140F6440041510FE040F61400C5
:101AA000405942F22B01084340F614014851081FE7
:101AB000405940F00B014FF401604151D5F8000846
:101AC00020F4FE6000E00DE0C5F80008217C04F57C
:101AD0007172206803F082F92068406900F4805038
:101AE00021684861206803F089FC00F40050B0F5DB
:101AF000005F17D1206802F047FE206803F012FC57
:101B0000E06000F0C9FA0090227B2068009903F0A1
:101B1000C5FC204600F082F92068406900F40050BE
:101B200021684861206803F069FC00F0080008287B
:101B300008D1204600F092F92068406900F00800C2
:101B400021684861206803F059FC00F48010B0F56A
:101B5000801F0AD100263146204600F043F8206855
:101B6000406900F4801021684861206803F046FC59
:101B700000F40010B0F5001F0AD1002631462046BF
:101B800000F039F82068406900F4001021684861CD
:101B9000206803F033FC00F08040B0F1804F08D1A2
:101BA0002046FFF7D7FB2068406900F0804021689D
:101BB0004861206803F022FC00F0040004280FD1E3
:101BC0002068D0F8049009F00400042802D12046CF
:101BD000FFF7ECFB2068406840EA09002168486094
:101BE00000BF60E570B504460D462946D4F80404EC
:101BF00002F0F4F870BD70B504460D462946D4F8DD
:101C0000040402F003F970BD70B58AB0044614B93B
:101C100001200AB070BD266894F8BD0328B90020E1
:101C200084F8BC03204600F0A3F8032084F8BD0329
:101C3000F06B00F4807008B900212161206802F087
:101C4000D9FF282204F110016846FEF754FB94E8FE
:101C50000F0002F0ADFD20B1022084F8BD03012089
:101C6000D7E70021206803F0DFFB002531E00121E8
:101C7000C5EBC50204F13C0000EB82004170C5EBEE
:101C8000C50104F13C0000F82150C5EBC50100EB93
:101C90008100C5800021C5EBC50204F13C0000EBCA
:101CA0008200C170C5EBC50204F13C0000EB82006C
:101CB0008160C5EBC50204F13C0000EB8200C1600D
:101CC000C5EBC50204F13C0000EB82004161681CD9
:101CD000C5B26068A842CAD800252AE00021C5EB39
:101CE000C50204F5FE7000EB82004170C5EBC50132
:101CF00004F5FE7000F821500021C5EBC50200EB91
:101D00008200C170C5EBC50204F5FE7000EB8200D5
:101D10008160C5EBC50204F5FE7000EB8200C16076
:101D2000C5EBC50204F5FE7000EB82004161681C42
:101D3000C5B26068A842D1D8282204F110016846D3
:101D4000FEF7D9FA94E80F0002F064FE20B10220F9
:101D500084F8BD0301205CE7002084F838000120EE
:101D600084F8BD03206802F043FE002051E7000024
:101D700010B586B00446142101A8FEF7D5FA2068F4
:101D8000B0F1A04F43D100BF2248006840F080006E
:101D90002049086000BF002000901E4810300068F5
:101DA00040F480401B49103108600846006800F488
:101DB0008040009000BF00BF00BF00BF0020009027
:101DC0001448001F006840F001001249091F086014
:101DD0000846006800F00100009000BF00BF4FF40B
:101DE000C050019002200290002003900320049034
:101DF0000A20059001A90848FFF7B2F80322002144
:101E00004320FFF726FA4320FFF713FA00E000BF54
:101E100006B010BD343802400000024070B50446E0
:101E20000125E06810B1022804D101E0002503E09B
:101E3000012501E0012500BF00BFD4F8040402F031
:101E40001DF82946D4F8040402F06FF870BD10B5EF
:101E50000446D4F8040402F047F810BD10B5044657
:101E6000D4F8040402F04BF810BD70B504460D46DA
:101E700000BF94F8BC03012801D1022070BD0120ED
:101E800084F8BC0300BF84F838502946206803F06A
:101E9000E6FA00BF002084F8BC0300BF00BFEDE7F6
:101EA00010B5044604F57171D4F8040402F052F838
:101EB00010BD70B50446256800BF94F8BC03012826
:101EC00001D1022070BD012084F8BC0300BFA06ACC
:101ED000012806D1A069012803D0A86B40F4803006
:101EE000A863206803F0E8F9206802F06FFD00BFE6
:101EF000002084F8BC0300BF00BFE3E710B5044630
:101F0000002003490870D4F8040402F070F810BDF2
:101F1000DB01002070B504460D460CB9012070BDF0
:101F20005848006800F00700A84209D255490D70D2
:101F30000846006800F00700A84201D00120EEE743
:101F4000207800F0020002281DD1207800F0040063
:101F5000042805D14C48006840F4E0504A49086024
:101F6000207800F00800082805D14748006840F4B0
:101F70006040454908604448006820F0F000A168CE
:101F8000084341490860207800F00100A8B3606868
:101F9000012807D13C4808380068C0F34040B8B970
:101FA0000120BCE76068022802D06068032807D1DE
:101FB000354808380068C0F3406048B90120AEE7F2
:101FC000314808380068C0F3400008B90120A6E78E
:101FD0002D48006820F00300616808432A49086022
:101FE000FFF7D6F8064609E0FFF7D2F8801B41F26A
:101FF0008831884202D9032091E707E0224800682F
:1020000000F00C006168B0EB810FEDD11D48006855
:1020100000F00700A84209D91A490D700846006867
:1020200000F00700A84201D0012078E7207800F0F6
:102030000400042807D11448006820F4E050E16847
:10204000084311490860207800F00800082808D1EA
:102050000D48006820F46040216940EAC1000A4947
:10206000086000F03FF808490968C1F30311074A06
:10207000515CC8400649086006480068FFF7B2F89E
:1020800000204CE7003C024008380240C4B9000878
:102090000000002010000020014800687047000088
:1020A0000000002000B5FFF7F7FF04490968C1F3FD
:1020B0008221034A515CC84000BD0000083802403C
:1020C000D4B9000800B5FFF7E7FF04490968C1F378
:1020D0004231034A515CC84000BD0000083802404C
:1020E000D4B900082DE9F047002400250026A146B8
:1020F0002548006800F00C0020B1042805D008280D
:102100003AD105E0DFF8849039E0DFF8849036E0DA
:102110001D48001F006800F03F041B48001F0068B6
:1021200000F4800078B11A481749091F0968C1F303
:102130008811A0FB01700146224600233846FEF7B5
:10214000A9F805460EE011480F49091F0968C1F3B7
:102150008811A0FB01700146224600233846FEF795
:1021600099F805460848001F0068C0F30140401C6C
:102170004600B5FBF6F902E0DFF8109000BF00BFA3
:102180004846BDE8F0870000083802400024F4000B
:1021900000127A00F8B504460CB90120F8BD207889
:1021A00000F00100002874D0F948006800F00C002D
:1021B00004280DD0F648006800F00C00082813D160
:1021C000F348001F006800F48000B0F5800F0BD1C9
:1021D000EF4808380068C0F34040002859D06068D4
:1021E000002856D10120D9E700BF6068B0F5803FD4
:1021F00008D1E7480838006840F48030E4490839DD
:1022000008601EE06068B0F5A02F0DD1E0480838E6
:10221000006840F48020DE490839086008460068FC
:1022200040F4803008600CE0D9480838006820F499
:102230008030D749083908600846006820F48020BB
:10224000086000BF606890B1FEF7A2FF054606E097
:10225000FEF79EFF401B642801D903209EE7CC486F
:1022600008380068C0F340400028F1D011E0FEF7C4
:102270008FFF054606E0FEF78BFF401B642801D95F
:1022800003208BE7C24808380068C0F340400028AC
:10229000F1D1207800F0020002285FD1BC4800682C
:1022A00000F00C0058B1BA48006800F00C00082893
:1022B0001CD1B748001F006800F48000B0B9B448D2
:1022C00008380068C0F3400020B1E068012801D060
:1022D000012063E7AE480838006820F0F800216963
:1022E00040EAC100AA490839086037E0E06800B355
:1022F0000120A8490860FEF74BFF054606E0FEF7FF
:1023000047FF401B022801D9032047E7A0480838AF
:102310000068C0F340000028F1D09D4808380068EC
:1023200020F0F800216940EAC100994908390860A5
:1023300014E0002097490860FEF72AFF054606E0F2
:10234000FEF726FF401B022801D9032026E790480C
:1023500008380068C0F340000028F1D1207800F070
:10236000080008282CD16069A8B101208A490860BA
:10237000FEF70EFF054606E0FEF70AFF401B0228A7
:1023800001D903200AE782486C300068C0F340009E
:102390000028F1D014E000207F490860FEF7F8FE25
:1023A000054606E0FEF7F4FE401B022801D9032093
:1023B000F4E677486C300068C0F340000028F1D1A3
:1023C000207800F00400042870D1002770483830CD
:1023D000006800F0805090B900BF002000906C4869
:1023E0003830006840F0805069493831086008464C
:1023F000006800F08050009000BF00BF01276748D0
:10240000006800F48070B0B96448006840F48070DF
:1024100062490860FEF7BCFE054606E0FEF7B8FE1E
:10242000401B022801D90320B8E65C48006800F48C
:1024300080700028F2D000BFA068012808D154485D
:102440006830006840F001005149683108601DE0C3
:10245000A06805280DD14E486830006840F004009F
:102460004B49683108600846006840F00100086088
:102470000CE047486830006820F0010044496831AA
:1024800008600846006820F00400086000BFA068EB
:10249000A8B1FEF77DFE054609E0FEF779FE401B78
:1024A00041F28831884202D9032077E626E0384895
:1024B00068300068C0F340000028EED013E0FEF75B
:1024C00067FE054608E0FEF763FE401B41F28831D7
:1024D000884201D9032061E62D4868300068C0F3C6
:1024E00040000028EFD1012F07D12948383000687B
:1024F00020F0805026493831086000BFA0690028CC
:1025000045D02348006800F00C0008285DD0A06981
:10251000022845D100201F490866FEF739FE05460E
:1025200006E0FEF735FE401B022801D9032035E600
:10253000174808380068C0F340600028F1D1D4E99A
:1025400007010843616A40EA81110122A06AC2EBD7
:10255000500041EA00412C20005D41EA00600C4936
:10256000091F086001200B490866FEF711FE0546A9
:1025700006E0FEF70DFE401B022801D903200DE600
:10258000034808380068C0F340600028F1D049E0F3
:102590000838024000004742800E47420070004069
:1025A000002021490866FEF7F3FD054606E0FEF728
:1025B000EFFD401B022801D90320EFE51B4800680E
:1025C000C0F340600028F2D12CE0A069012800D1BE
:1025D000E4E51648001D0668A069012820D006F42D
:1025E0008001E06981421BD106F03F01206A8142EF
:1025F00016D147F6C0703040616AB0EB811F0FD131
:1026000006F440310122A06AC2EB5000B1EB004F4A
:1026100006D106F070612C20005DB1EB006F01D097
:102620000120BBE50020B9E5000047420038024028
:1026300070B504460E4615460CB9012070BD94F8DD
:10264000490028B9002084F84800204600F01CF812
:1026500004F108012068FEF7C7F93146A268206836
:10266000FEF7F0F92946236BD4E90102FEF798F949
:10267000A168206850F8210040F00100A26821689C
:1026800041F822000020D9E710B586B0044600BF0B
:10269000002000902248006840F0010020490860B6
:1026A0000846006800F00100009000BF00BF00BFB6
:1026B000002000901A480838006840F008001849C7
:1026C000083908600846006800F00800009000BF64
:1026D00000BF00BF002000900846006840F01000D6
:1026E00008600846006800F01000009000BF00BFBE
:1026F0004CF203700190022002900120039002200E
:1027000004900C20059001A90648FEF729FC4FF61D
:102710008070019001A90448FEF722FC06B010BDAC
:1027200038380240000C024000100240042808D152
:102730004FF0E021096941F004014FF0E0221161FE
:1027400007E04FF0E021096921F004014FF0E02299
:102750001161704770B504462546681EB0F1807F50
:1027600001D301200FE0681E4FF0E02148610F21E6
:102770004FF0FF3002F03EFF00204FF0E021886173
:1027800007200861002070BD704770472DE9F84FA1
:102790000446206805682068C668206847694FF0CD
:1027A0000009CA4605F00F09B9F1000F0AD105F07A
:1027B000200038B106F0200020B1204600F0E9FBEF
:1027C000BDE8F88FB9F1000F72D007F0010018B919
:1027D00006F4907000286BD005F0010030B106F4CB
:1027E000807018B1206C40F00100206405F00400F6
:1027F00030B107F0010018B1206C40F002002064F5
:1028000005F0020030B107F0010018B1206C40F073
:102810000400206405F0080048B106F0200010B95B
:1028200007F0010018B1206C40F008002064206C13
:1028300070B305F0200028B106F0200010B120464A
:1028400000F0A7FB20684069C0F3801A206C00F0FC
:10285000080010B9BAF1000F23D0204600F06EFB3B
:102860002068406900F04000402816D12068406987
:1028700020F0400021684861A06B50B15648A16B20
:102880000865A06BFEF744FB10B1A06B016D884793
:102890000CE02046FFF779FF08E02046FFF775FFC0
:1028A00004E02046FFF771FF0020206488E7FFE77F
:1028B000206B012879D105F01000002875D006F0B2
:1028C0001000002871D000BF002000902068006830
:1028D000009020684068009000BF00BF20684069F9
:1028E00000F04000402839D1A06B006840681FFA12
:1028F00080F8B8F1000F30D0A08D40452DDDA4F850
:102900002E80A06BC069B0F5807F1FD02068C068A2
:1029100020F480702168C8602068406920F00100C0
:10292000216848612068406920F0400021684861C2
:10293000202084F83E00002020632068C06820F03A
:1029400010002168C860A06BFEF78DFAA08DE28DA3
:10295000801A81B22046FFF717FF31E7A08DE18D85
:10296000401A1FFA80F8E08DE8B1B8F1000F1AD0D4
:102970002068C06820F490702168C86020684069B1
:1029800020F0010021684861202084F83E000020EA
:1029900020632068C06820F010002168C8604146AC
:1029A0002046FFF7F1FE0BE7FFE705F0800030B1AE
:1029B00006F0800018B1204600F083FC00E705F027
:1029C000400030B106F0400018B1204600F0D1FAC6
:1029D000F6E600BFF4E60000292F000810B5044613
:1029E0000CB9012010BDA06900B100E000BF94F84F
:1029F0003D0028B9002084F83C00204600F028F86B
:102A0000242084F83D002068C06820F4005021682C
:102A1000C860204600F01CFB2068006920F490404C
:102A2000216808612068406920F02A002168486117
:102A30002068C06840F400502168C860002020640D
:102A4000202084F83D0084F83E000020CAE7000002
:102A500010B586B004462E492068884255D100BF83
:102A600000BF002000902B48006840F0100029496A
:102A700008600846006800F01000009000BF00BF2A
:102A800000BF00BF00BF002000902248143800683B
:102A900040F001001F49143908600846006800F042
:102AA0000100009000BF00BF00BF00BF00BF0020BA
:102AB00000900846006840F0010008600846006881
:102AC00000F00100009000BF00BF00BF481501905A
:102AD000022002900120039002200490072005901C
:102AE00001A90D48FEF73CFA4FF4806001900720E1
:102AF000059001A90848FEF733FA2520FEF799FB57
:102B0000032211462520FEF7A4FB06B010BD0000ED
:102B100000100140443802400000024070B50446F5
:102B20000D46164694F83E00202816D105B10EB980
:102B3000012070BD00BF94F83C00012801D10220A3
:102B4000F7E7012084F83C0000BF002020633246F4
:102B50002946204600F092FBEBE70220E9E700005F
:102B600010B504462049206888423BD11F480088A0
:102B700000F4004088BB1D48008800F4804070B11C
:102B80001B4800780A2803D000201849088024E058
:102B90001648008840F40040144908801DE014489D
:102BA00000780D2806D11148008840F480400F4974
:102BB000088012E00E4800780C490988C1F30D0125
:102BC0000C4A505409480088401C084908800846AF
:102BD0000088C72801DD002008800122044906483A
:102BE000FFF79CFF10BD000000100140080000200E
:102BF0000A0000200C030020D4030020704700BF0F
:102C0000FEE730B50B46002100BF16E00A24B4EB06
:102C1000107F05D9302404EB107403F8114005E04F
:102C2000412404EB10740A3C03F811400001002514
:102C30004C00641C1D554C1CE1B29142E6DB30BDDA
:102C400000BFFEE77047000010B50248FEF71CFD0C
:102C500010BD0000804F01202DE9F04704460D46CD
:102C600026683746D6F8408007F5306000EB4510FF
:102C7000D0F80890104880450BD909F40040B0F511
:102C8000004F06D14FF4004107F5306000EB4510CE
:102C900081602046FFF704F90748804508D920697C
:102CA000012805D104F571720121206802F096F81F
:102CB0000020BDE8F08700000A30544F2DE9F047AE
:102CC00005460C46D5F800804646D8F8409006F5F3
:102CD000306000EB441087682869012873D107F041
:102CE000080008280FD1524881450BD907F400404D
:102CF000B0F5004F06D14FF4004106F5306000EB0F
:102D00004410816091E007F02000202806D12021A6
:102D100006F5306000EB4410816086E007F0280083
:102D200000280ED1424881450CD907F40040B0F587
:102D3000004F07D14FF4004106F5306000EB44101E
:102D4000816072E0C4EBC40105F5FE7000EB810008
:102D5000816806F5306000EB44100069C0F3120092
:102D6000091AC4EBC40205F5FE7000EB8200816114
:102D7000C4EBC40105F5FE7000EB8100C4EBC40296
:102D8000C16805F5FE7000EB820080680144C4EB69
:102D9000C40205F5FE7000EB8200C1606CB9C4EBA3
:102DA000C40105F5FE7000EB8100406928B905F506
:102DB00071720121286802F011F8E1B22846FEF78D
:102DC000E5FA32E0FFE71B4881451BD107F40040DC
:102DD000B0F5004F07D14FF4004106F5306000EB2D
:102DE0004410816021E007F02000202805D1202137
:102DF00006F5306000EB44108160E1B22846FEF732
:102E0000C5FA12E06CB9C4EBC40105F5FE7000EB25
:102E10008100406928B905F571720021286801F028
:102E2000DDFFE1B22846FEF7B1FA0020BDE8F087E9
:102E30000A30544F0A31544F2DE9F84F07460E46D9
:102E4000D7F80090C846C6EBC60107F13C0000EB7E
:102E50008104D4E90510884202D90120BDE8F88F29
:102E6000D4E90501451AA068A84200D2A568E81C6B
:102E70004FEA900A17E0D4E90501451AA068A84274
:102E800000D2A568E81C4FEA900A387CABB2F2B2D7
:102E900000904846E16802F075FBE0682844E06075
:102EA000A0692844A06108F5106000EB4610806915
:102EB00080B2504506D3D4E90510884202D2606939
:102EC0000028D8D1D4E9050188420ED806F00F01B8
:102ED000012000FA01FB40F6340050F8080020EA17
:102EE0000B0040F6340141F808000020B6E730B589
:102EF00001460A461378521C147843EA042030BD78
:102F000010B5FEF74BF908F015FA012801D007F0CB
:102F1000DBFF10BD0348006840F470000149086001
:102F20007047000088ED00E070B50546AC6B0020EE
:102F3000E085E0842046FFF728FC70BD0168C96881
:102F400021F490710268D1600168496921F00101A2
:102F500002685161016B012905D10168C96821F03E
:102F600010010268D160202180F83E100021016329
:102F7000704710B504462068C06820F04000216802
:102F8000C860202084F83D002046FFF737FE00206F
:102F900010BD70B5044694F83E00222856D1A068B2
:102FA000B0F5805F0CD1206950B90025A66A206871
:102FB0004068C0F308003080A06A801CA06215E061
:102FC000A56A0026A068B0F5805F03D0A06828B984
:102FD000206918B920684068287004E020684068BB
:102FE00000F07F002870A06A401CA062E08D401EA7
:102FF00080B2E08540BB2068C06820F020002168D6
:10300000C8602068C06820F480702168C8602068AB
:10301000406920F0010021684861202084F83E00CA
:10302000206B01280AD12068C06820F010002168B8
:10303000C860A18D2046FFF7A7FB02E02046FFF7FE
:103040008FFD0020206370BD0020FCE70220FAE71E
:103050002DE9F84F04462068006920F44050E168EB
:103060000843216808612169A06808436169084331
:10307000E169084300902068C06849F20C61884308
:10308000009908432168C8602068406920F44070B6
:10309000A16908432168486176492068884203D0C5
:1030A00075492068884203D1FFF70CF8814602E099
:1030B000FEF7F8FF8146E069B0F5004F6CD10220C1
:1030C0006168A0FB015003461920A9FB007001466E
:1030D0002A463846FDF7DEF86421B0FBF1F04FEAEE
:1030E000001A02206168A0FB01510B461920A9FBC0
:1030F00000712A463846FDF7CDF883460220616804
:10310000A0FB015003461920A9FB00712A4638464E
:10311000FDF7C0F86421B0FBF1F000EBC00101EB5A
:103120000010ABEB8000322101EBC0006421B0FB4A
:10313000F1F000F0F8000AEB400A02206168A0FB01
:10314000015003461920A9FB007001462A46384663
:10315000FDF7A0F8834602206168A0FB01500346FA
:103160001920A9FB00712A463846FDF793F864211F
:10317000B0FBF1F000EBC00101EB0010ABEB800005
:10318000322101EBC0006421B0FBF1F000F0070038
:103190005044216888606AE004206168A0FB015007
:1031A00003461920A9FB007001462A463846FDF760
:1031B00071F8824604206168A0FB01500346192083
:1031C000A9FB007001462A463846FDF763F86421E2
:1031D000B0FBF1F000EBC00101EB0010AAEB8000A6
:1031E000322101EB00106421B0FBF1F000F0F00A95
:1031F00004206168A0FB017003461920A9FB00515F
:103200003A462846FDF746F86421B0FBF1F00AEB98
:10321000001A04206168A0FB01510B461920A9FB8C
:1032200000712A463846FDF735F883460420616868
:10323000A0FB015003461920A9FB007001462A4655
:103240003846FDF727F86421B0FBF1F000EBC00130
:1032500001EB0010ABEB8000322101EB0010642188
:10326000B0FBF1F000F00F00504421688860BDE829
:10327000F88F0000001001400014014010B5034613
:1032800099629A85DA8500201864222083F83E002E
:1032900000BF002083F83C0000BF1868C06840F4FD
:1032A00080701C68E0601868406940F001001C688C
:1032B00060611868C06840F020001C68E060002071
:1032C00010BD014691F83D00212828D18868B0F54D
:1032D000805F0BD1086948B90A6A1088C0F30800FA
:1032E0000B685860086A801C086205E00B6A581C6D
:1032F000086218780B685860C88C401E80B2C88479
:1033000058B90868C06820F080000B68D860086869
:10331000C06840F040000B68D86000207047022071
:10332000FCE7000010B50248FFF730FA10BD0000BE
:10333000D40300202DE9F04104460D46D4F8C472B0
:10334000D4F8BC0210B90320BDE8F081D4F8BC6207
:1033500005EB850104F1140000EB8100406808B31F
:1033600005EB850104F1140000EB8100C5EBC502FB
:10337000416807F13C0000EB82008068B1FBF0F28D
:1033800000FB121070B9002105EB850204F1140056
:1033900000EB8200416000231A462946204600F0D7
:1033A00030FE0FE00020C6F81402D4F8C002006915
:1033B00040B1D6F80802D4F8C0122A460B6906F5C7
:1033C000047198470020BFE770B504460E46D4F854
:1033D000BC52D4F8BC0208B9032070BD3146204667
:1033E00000F0A8FCC5F80C02D5F80402D4F8C0120D
:1033F000CA6805F5037190470020EEE770B50446F2
:103400000D468121204600F0C0FB002121870121CB
:10341000204600F0BAFB0021A4F878118221204652
:1034200000F0B3FB0021A4F84C10A4F84E10D4F81F
:10343000BC0258B1D4F8C012486880470020D4F8C4
:10344000BC1206F003F90020C4F8BC02002070BDD5
:1034500070B50546D5F8BC420CB9032070BDD5F84F
:10346000C00278B194F80002FF280BD094F8012232
:1034700094F80002D5F8C0128B6821469847FF20C7
:1034800084F800020020E9E701460A20088001488C
:1034900070470000CC00002001464320088001480E
:1034A0007047000054010020014643200880014875
:1034B00070470000100100200146432008800148A9
:1034C000704700009801002070B504460E464FF486
:1034D0000771002006F0CCF8054625B90020C4F895
:1034E000BC02022070BDC4F8BC52207CA0B94FF4CD
:1034F000007302228121204600F0A0FC01212187D7
:103500004B020222204600F099FC0121A4F8781118
:103510001021A4F84E1012E04023022281212046FF
:1035200000F08CFC0121218740230222204600F07C
:1035300085FC0121A4F878111021A4F84E1008236D
:1035400003228221204600F079FC0121A4F84C10CE
:10355000D4F8C012086880470020C5F81402C5F8E6
:103560001802207C40B94FF4007301212046D5F8A1
:10357000042200F073FC06E0402301212046D5F828
:10358000042200F06BFC0020ACE770B50446D4F8D0
:10359000BC52D4F8BC0208B9032070BD207C40B9ED
:1035A0004FF4007301212046D5F8042200F056FCA8
:1035B00006E0402301212046D5F8042200F04EFC0D
:1035C0000020EAE7024609B903207047C2F8C0129A
:1035D0000020FAE702460B46D2F8BC1209B90320D4
:1035E0007047C1F804320020FAE72DE9FC41054696
:1035F0000C46D5F8BC62002001900090804616B9B8
:103600000320BDE8FC81207800F0600078B320281A
:103610006FD1E08818B3207800F0800098B1E2887C
:103620006078D5F8C0128B6831469847E088072843
:1036300001D9072000E0E08807463A46314628468F
:1036400000F0D3F812E0607886F80002A07986F8DE
:103650000102E2883146284600F0A6F806E06078CC
:10366000D5F8C01200228B682146984748E0FFE752
:10367000607830B1012831D00A2813D00B282ED120
:1036800021E095F89C02032805D1022269462846CC
:1036900000F0ABF805E02146284600F079F84FF03D
:1036A000030823E095F89C02032805D1012201A913
:1036B000284600F09AF805E02146284600F068F810
:1036C0004FF0030812E095F89C02032805D021462C
:1036D000284600F05DF84FF0030807E006E02146B9
:1036E000284600F055F84FF0030800BF00BF07E080
:1036F000FFE72146284600F04BF84FF0030800BFD3
:1037000000BF40467DE770B504460D46D4F8B802C8
:1037100028B1D4F8B80229464268204690470020D4
:1037200070BD70B504460D4694F89C02012804D083
:10373000022803D003280CD101E000BF00BF688835
:10374000012805D10020C4F8A402204600F05EF84C
:1037500004E02946204600F01BF800BF00BF70BD02
:1037600070B506460C4615462B46224600213046CB
:1037700000F074FB002070BD70B506460C4615467F
:103780002B4622460021304600F03BFC002070BD55
:1037900070B504460D468021204600F016FC00213D
:1037A000204600F012FC70BD70B504460E4615466A
:1037B0000320C4F894024FF4AC700551001D05516C
:1037C0002B4632460021204600F048FB002070BD09
:1037D00010B504460520C4F8940200231A46194681
:1037E000204600F03BFB002010BD70B504460E469D
:1037F00015460220C4F89402A561E5612B463246C5
:103800000021204600F0FDFB002070BD10B50446ED
:103810000420C4F8940200231A461946204600F0FA
:10382000F0FB002010BD70B504460D46E888012865
:1038300004D029462046FFF7ABFF1EE094F89C0217
:10384000012804D0022803D0032810D109E000BFCA
:103850000020A060012204F108012046FFF7C5FF07
:103860000AE00122211D2046FFF7BFFF04E02946A0
:103870002046FFF78DFF00BF00BF70BDF8B50446BE
:103880000E460020009000270025708800120828AE
:1038900075D2DFE800F0C7040C20C7C7A5B5207CAF
:1038A000D4F8B4120A68694690470746C1E0207C04
:1038B00040B9D4F8B802816A6846884707460220B2
:1038C000787007E0D4F8B802C16A684688470746AE
:1038D00002207870ADE0B078062878D2DFE800F0FA
:1038E0000316293C5063D4F8B402406838B1207CF8
:1038F000D4F8B4124A6869469047074605E0314655
:103900002046FFF745FF681CC5B267E0D4F8B40253
:10391000806838B1207CD4F8B4128A686946904730
:10392000074605E031462046FFF732FF681CC5B266
:1039300054E0D4F8B402C06838B1207CD4F8B41292
:10394000CA6869469047074605E031462046FFF7BA
:103950001FFF681CC5B241E0D4F8B402006938B159
:10396000207CD4F8B4120A6969469047074605E0FE
:1039700031462046FFF70CFF681CC5B22EE051E02F
:10398000D4F8B402406938B1207CD4F8B4124A6942
:1039900069469047074605E031462046FFF7F8FEA6
:1039A000681CC5B21AE0D4F8B402806940B1207C2A
:1039B000D4F8B4128A6969469047074606E006E0E3
:1039C00031462046FFF7E4FE681CC5B206E03146EA
:1039D0002046FFF7DDFE681CC5B200BF00BF28E02F
:1039E000207C30B9D4F8B802416B68468847074656
:1039F00005E031462046FFF7CBFE681CC5B218E053
:103A0000207C40B9D4F8B802016B68468847074665
:103A10000720787005E031462046FFF7B9FE681CA4
:103A2000C5B206E031462046FFF7B2FE681CC5B2BB
:103A300000BF00BF05B1F8BDF088C0B1BDF80000FF
:103A400080B1F088BDF80010884202DDBDF80000AA
:103A500000E0F0880090BDF8002039462046FFF7CE
:103A6000C4FE07E031462046FFF792FE02E0204602
:103A7000FFF7CCFE00BFDEE7014600200A4602E069
:103A8000431CD8B2521C1378002BF9D1704770B583
:103A900004460D4694F89C02012804D0022803D065
:103AA00003281AD101E000BF00BFE888022804D033
:103AB00029462046FFF76CFE14E00120E060D4F8B0
:103AC000A40218B1E06840F00200E060022204F1B4
:103AD0000C012046FFF789FE04E029462046FFF747
:103AE00057FE00BF00BF70BD2DE9F04107460D46EF
:103AF000904600240FB9BDE8F0813E463046FFF7FE
:103B0000BBFF022101EB4000A8F8000098F800007C
:103B10002855601CC4B203202855601CC4B208E0BC
:103B200030782855761C601CC4B200202855601CD3
:103B3000C4B230780028F3D100BFDCE72DE9F041B2
:103B400004460D46164614B90320BDE8F081002056
:103B5000C4F8B802C4F8C002C4F8CC020DB1C4F86D
:103B6000B452012084F89C022670204600F0ECF844
:103B700007463846E9E770B504460D462946D4F8AD
:103B8000C402FDF754FC002070BD70B504460D461C
:103B90002946D4F8C402FDF715FC002070BD2DE9BC
:103BA000F04104460F469046002F54D104F114050D
:103BB000D4F89402022843D1D5E9020188420FD9F2
:103BC000D5E90201401AA86041462046AA68FFF7DD
:103BD000D3FD00231A461946204600F03FF92FE096
:103BE000D5E90210884217D1E9686868884213D382
:103BF0006868D4F8981288420ED2002211462046F6
:103C0000FFF7BAFD0020C4F8980200231A461946AF
:103C1000204600F023F913E094F89C02032808D111
:103C2000D4F8B802C06820B1D4F8B802C168204600
:103C300088478021204600F0C8F92046FFF7C8FDDC
:103C400094F8A002012819D1204600F01CFA0020A7
:103C500084F8A00212E094F89C0203280ED1D4F854
:103C6000B802406950B1D4F8B802394642692046DA
:103C70009047064616B13046BDE8F0810020FBE7CC
:103C80002DE9F04105460F4690465FBB05F5AA7445
:103C9000D5F89402032838D1D4E90201884210D91A
:103CA000D4E90201401AA060D4E90201884201D29D
:103CB000A06800E0E068024641462846FFF750FD54
:103CC00023E095F89C02032808D1D5F8B8020069D2
:103CD00020B1D5F8B8020169284688472846FFF781
:103CE00095FD12E095F89C0203280ED1D5F8B80294
:103CF000806950B1D5F8B8023946826928469047A4
:103D0000064616B13046BDE8F0810020FBE70146CB
:103D10000020704710B50446012084F89C02D4F8B6
:103D2000B80228B12179D4F8B802426820469047F9
:103D3000002010BD70B504460D462946D4F8C402D3
:103D4000FDF7B3FB70BD000010B504464FF0A04076
:103D50001349086004204860002111480163016193
:103D60000162022181610021C1610221C160002143
:103D7000C162C0F80444C4F8C402FDF745FF8021C5
:103D80000748FDF7BAFA402200210548FDF7BAFAC4
:103D9000802201210248FDF7B5FA002010BD000085
:103DA000804F012010B50246D2F8C43201F08000E5
:103DB000802809D101F07F00C0EBC00403F13C0072
:103DC00000EB8400807810BD01F07F00C0EBC004E0
:103DD00003F5FE7000EB84008078F4E770B50446CC
:103DE0000D46D4F8B80208B9032070BD94F89C02BF
:103DF000032809D1D4F8B802006A28B1D4F8B8026F
:103E00002946026A204690470020EEE770B5044636
:103E10000D46D4F8B80208B9032070BD94F89C028E
:103E2000032809D1D4F8B802406A28B1D4F8B802FE
:103E30002946426A204690470020EEE72DE9F041EE
:103E400004460F4615461E462B4632463946D4F8E0
:103E5000C402FDF735FB0020BDE8F0812DE9F041FB
:103E600004460D4616461F463B4632462946D4F8C0
:103E7000C402FDF76BFB0020BDE8F08110B50446DD
:103E8000012084F89C020020C4F894026060C4F809
:103E9000A402D4F8B80208B9032010BDD4F8BC02BB
:103EA00048B1D4F8B802406828B12179D4F8B802F2
:103EB0004268204690474023002211462046FFF7E3
:103EC000BDFF01214FF4B27001534021001F015189
:103ED0004023002280212046FFF7B0FF0121A1846A
:103EE000402121620020D8E7014691F89C02042875
:103EF00003D191F89D0281F89C020020704710B513
:103F00000446D4F8B80208B9032010BD94F89C0206
:103F1000032808D1D4F8B802C06920B1D4F8B80297
:103F2000C169204688470020EFE70246117400204F
:103F30007047000070B504460D4601200449087022
:103F40002946D4F8C402FDF790FF002070BD0000A0
:103F5000DB01002070B504460D46294604F2AA2074
:103F600000F05FF80120C4F894024FF42C70005B5D
:103F7000C4F8980294F8AA0200F01F0020B10128AA
:103F800009D0022815D10DE004F2AA21204600F044
:103F90004BF9064616E004F2AA21204600F0ADFADD
:103FA00006460FE004F2AA21204600F090F90646EA
:103FB00008E094F8AA0200F08001204600F005F81D
:103FC000064600BF00BF304670BD70B504460D46C2
:103FD0002946D4F8C402FDF7E5FA002070BD10B5FB
:103FE0000446D4F8C402FDF764FF002010BD01466A
:103FF00091F89C0281F89D02042081F89C02002027
:1040000070472DE9F04104460D4616461F463B46D3
:1040100032462946D4F8C402FDF709FB0020BDE86A
:10402000F08170B505460E46344620782870641C31
:1040300020786870641C2046FEF759FF6880641C75
:10404000641C2046FEF753FFA880641C641C2046B5
:10405000FEF74DFFE88070BD38B504460D460020E0
:1040600000900DB9032038BDC4F8B852D4F8B80296
:10407000C06A30B1D4F8B802C16A68468847C4F84B
:10408000CC020020EFE701460020704770B50446DF
:104090000D46A88810BBE88800BB688880281DD220
:1040A000A87800F07F0694F89C02032804D12946E2
:1040B0002046FFF76DFB15E084F89E6231462046EE
:1040C000FFF738FF2046FFF7A1FB1EB1022084F85E
:1040D0009C0207E0012084F89C0203E02946204668
:1040E000FFF756FB70BD70B504460D460326D4F8A5
:1040F000B80230B1D4F8B802294602682046904789
:104100000646304670BD000070B504460E460025D8
:10411000B0783B49087008460078012805DD314633
:104120002046FFF735FB032070BD94F89C0202285F
:1041300002D0032856D11CE031480078A8B130489D
:10414000007860602E4801782046FFF7CCFF0546D6
:1041500025B131462046FFF71BFB09E02046FFF75B
:1041600055FB032084F89C0202E02046FFF74EFB3B
:1041700043E02348007870B9022084F89C0220486C
:10418000007860601E4801782046FFF7BCFA2046A0
:10419000FFF73CFB25E01A490978606888421DD08A
:1041A00021792046FFF7AFFA15480078606014487F
:1041B00001782046FFF797FF05465DB1314620465E
:1041C000FFF7E6FA21792046FFF79DFA022084F8EE
:1041D0009C0206E02046FFF719FB02E02046FFF7AD
:1041E00015FB0AE031462046FFF7D2FA0448017871
:1041F0002046FFF788FA032500BF00BF284693E753
:10420000C800002070B505460C466088012804D11E
:10421000C5F8A4022846FFF7F9FA70BD10B50446A8
:104220002046FFF7DCFE10BD70B505460C460026A3
:10423000207800F0600068B1202802D040283ED1EC
:1042400000E000BFD5F8B8022146826828469047B2
:10425000064639E060780A282AD2DFE800F01A24FE
:10426000291F290A0529150F21462846FFF706FBB5
:1042700023E021462846FFF709FF1EE02146284695
:10428000FFF742FF064618E021462846FFF7CBFA23
:1042900013E021462846FFF7FAFB0EE021462846A8
:1042A000FFF7B0FF09E021462846FFF73AFA04E09D
:1042B00021462846FFF76CFA00BF00BF04E0214604
:1042C0002846FFF765FA00BF00BF304670BD2DE9F4
:1042D000F04105460E464FF000083479307800F082
:1042E000600068B1202802D0402871D100E000BFF2
:1042F000D5F8B80231468268284690478046F8E0F3
:104300007078002865D001282FD0032870D195F847
:104310009C02022802D0032820D110E054B1802C46
:1043200008D021462846FFF750FE80212846FFF797
:104330004CFE03E031462846FFF72AFA13E0708866
:1043400040B93CB1802C05D0F08818B921462846E8
:10435000FFF73BFE2846FFF759FA04E031462846AE
:10436000FFF716FA00BF00BFBCE095F89C020228D8
:1043700002D0032825D110E054B1802C08D021466A
:104380002846FFF722FE80212846FFF71EFE03E0A5
:1043900031462846FFF7FCF918E0708880B904F030
:1043A0007F0018B121462846FFF7E5FB2846FFF7B6
:1043B0002DFAD5F8B80231468268284690478046E3
:1043C00004E031462846FFF7E3F900BF00BF89E06B
:1043D0008AE095F89C02022802D0032876D126E0D4
:1043E0003CB1802C05D031462846FFF7D1F972E068
:1043F00073E004F08000802808D104F07F0000EB17
:10440000800105F1140000EB810007E004F07F005B
:1044100000EB800105F5AA7000EB81000746002043
:104420003860022239462846FFF7DFF953E004F0EE
:10443000800080280ED104F00F0000EB800105F110
:10444000140000EB8100008A98B931462846FFF736
:104450009FF940E004F00F0000EB800105F5AA7021
:1044600000EB8100008A20B931462846FFF790F919
:1044700031E004F08000802808D104F07F0000EBD8
:10448000800105F1140000EB810007E004F07F00DB
:1044900000EB800105F5AA7000EB810007460CB126
:1044A000802C02D10020386009E021462846FFF721
:1044B00079FC10B10120386001E000203860022250
:1044C00039462846FFF791F905E0FFE731462846CF
:1044D000FFF75EF900BF00BF04E031462846FFF752
:1044E00057F900BF00BF04E031462846FFF750F9F6
:1044F00000BF00BF4046BDE8F08170B505460C46E0
:104500000026207800F0600030B1202802D040283A
:104510002AD100E000BF00BF95F89C02012804D01A
:10452000022803D0032818D101E000BF00BF207982
:1045300001280DDCD5F8B80221468268284690474C
:104540000646E08840B93EB92846FFF75FF903E028
:1045500021462846FFF71CF904E021462846FFF7CC
:1045600017F900BF00BF04E021462846FFF710F905
:1045700000BF00BF304670BD70B505460C462DB972
:104580002246064906A0FFF7AFFA04E02246034997
:1045900003A0FFF7A9FA014870BD0000885301206D
:1045A00056435020436F6E66696700000246122032
:1045B0000880014870470000F801002070B50546EA
:1045C0000C462DB92246064906A0FFF78DFA04E0F5
:1045D0002246034903A0FFF787FA014870BD000097
:1045E0008853012056435020496E7465726661639A
:1045F0006500000002460420088001487047000062
:104600000C02002070B505460C462246024903A064
:10461000FFF76AFA004870BD8853012053544D6972
:1046200063726F656C656374726F6E6963730000AB
:1046300070B505460C462DB92246064906A0FFF77F
:1046400053FA04E0224603490CA0FFF74DFA014853
:1046500070BD00008853012053544D3332205669F9
:10466000727475616C20436F6D506F727420696E47
:10467000204853204D6F64650000000053544D33B3
:1046800032205669727475616C20436F6D506F7281
:104690007420696E204653204D6F64650000000051
:1046A00070B505460C461A202080FCF7EDF901484C
:1046B00070BD00001002002070B504460B46224673
:1046C0001978587801282CD140F61C0080581D78A4
:1046D00005F00F060125B540ADB2284340F61C0594
:1046E000A85002F5106000EB4110006800F4004093
:1046F000F0BB1889C0F30A00DD7840EA854040EA43
:10470000815040F0805040F4004002F5106505EB08
:1047100041152D68284302F5106505EB4115286009
:104720002DE040F61C0080581D7805F00F0601258D
:10473000B540144E06EA0545284340F61C05A8502E
:1047400002F5306000EB4110006800F4004078B9D9
:104750001889C0F30A00DD7840EA854040F08050B7
:1047600040F4004002F5306505EB41152D6800E08E
:1047700005E0284302F5306505EB4115286000206F
:1047800070BD00000000FFFF01460A464FF41060B4
:104790008058C30ADB024FF41060835040F60400D7
:1047A000805840F4807340F6040083500020704726
:1047B0000FB470B504460A98012817D1A06B20F4F5
:1047C0008030A063E0681A490840E060E06820F4A7
:1047D0004010E0601198012803D1E06840F4801097
:1047E000E060204600F026F8054612E0E06840F060
:1047F0004000E060204600F01DF805460E9820B904
:10480000A06B40F48030A06303E0A06B20F4803004
:10481000A0630898012807D1A06840F00600A060B6
:10482000A06840F02000A060284670BC5DF814FB32
:10483000BFFFBDFF0146002200BF501C02460F4BC8
:10484000984201D903207047086900F00040002811
:10485000F3D00022086940F00100086100BF501C3D
:104860000246064B984201D90320ECE7086900F0A4
:1048700001000028F3D100BFE5E70000400D030070
:1048800070B504460B46224619785878012848D15D
:1048900002F5106000EB4110006800F00040B0F13C
:1048A000004F17D102F5106000EB4110006840F096
:1048B000006502F5106000EB4110056002F5106024
:1048C00000EB4110006840F0804502F5106000EBFD
:1048D0004110056040F63C0080581D7805F00F0639
:1048E0000125B540ADB2A84340F63C05A85040F6BE
:1048F0001C0080581D7805F00F060125B540ADB2AB
:10490000A84340F61C05A85002F5106000EB4110CA
:1049100000682B4D284002F5106505EB4115286015
:104920004BE002F5306000EB4110006800F0004001
:10493000B0F1004F17D102F5306000EB4110006874
:1049400040F0006502F5306000EB4110056002F5B3
:10495000306000EB4110006840F0804502F53060A7
:1049600000EB4110056040F63C0080581D7805F0D2
:104970000F060125B540134E06EA0545A84340F64B
:104980003C05A85040F61C008558187800F00F062A
:104990000120B0400B4E06EA0040854340F61C0063
:1049A000855002F5306000EB41100068064D28404C
:1049B00002F5306505EB41152860002070BD000050
:1049C000007833EC0000FFFF0078F3EF01460A4661
:1049D000D2F8000E20F00300C2F8000E40F60400EA
:1049E000805820F0020340F60400835000207047F6
:1049F00001460A46D2F8000E20F00300C2F8000E6D
:104A000040F60400805840F0020340F60400835052
:104A1000002070470FB4F0B5054600272E4600244D
:104A200005E0002105F5827040F82410641C0F2C6D
:104A3000F7D31098A0B940F60400805940F0020165
:104A400040F604008151A86B40F40010A863A86BE5
:104A500020F40020A863A86B20F48020A86307E05E
:104A6000A86B20F40010A863A86B40F40020A86392
:104A70000020C6F8000ED6F80008C6F800080B980B
:104A800001280BD1089820B90021284600F0FCFC31
:104A900008E00121284600F0F7FC03E00321284646
:104AA00000F0F2FC1021284600F024FC00B10127A0
:104AB000284600F009FC00B1012700214FF40160F5
:104AC0008151001D815140F61C00815100242EE0CF
:104AD00006F5106000EB4410006800F00040B0F1F3
:104AE000004F10D13CB94FF0006106F5106000EBAB
:104AF000441001600DE04FF0904106F5106000EBAE
:104B00004410016005E0002106F5106000EB441040
:104B10000160002106F5106000EB441001614FF6C2
:104B20007F3106F5106000EB44108160641C06982C
:104B3000A042CDD800242EE006F5306000EB4410F2
:104B4000006800F00040B0F1004F10D13CB94FF0C8
:104B5000006106F5306000EB441001600DE04FF09D
:104B6000904106F5306000EB4410016005E0002143
:104B700006F5306000EB44100160002106F530605E
:104B800000EB441001614FF67F3106F5306000EB19
:104B900044108160641C0698A042CDD84FF4016097
:104BA000805920F480714FF4016081510020A86188
:104BB0006FF080406861099818B9A86940F010004A
:104BC000A861A86909490843A8610C9818B1A869A7
:104BD00040F00800A8611098012803D1A869044991
:104BE0000843A8613846F0BC5DF814FB00383C80EF
:104BF000040000400146886820F001008860002021
:104C000070470000F0B505460B4614462A46197851
:104C10005878012875D1586920BB02F5106000EB67
:104C2000411000696C4E304002F5106606EB4116EB
:104C3000306102F5106000EB4110006940F400267D
:104C400002F5106000EB4110066102F5106000EB08
:104C500041100069C60CF60402F5106000EB41102B
:104C6000066137E002F5106000EB41100069C60CE8
:104C7000F60402F5106000EB4110066102F51060C9
:104C800000EB41100069544E304002F5106606EB0F
:104C9000411630619E685869B04201D998685861E0
:104CA00002F5106000EB4110006940F4002602F5A7
:104CB000106000EB4110066102F5106000EB41103E
:104CC00000695E69C6F31206304302F5106606EB12
:104CD00041163061012C15D1186928B102F5106018
:104CE00000EB41101E69466102F5106000EB4110B7
:104CF000006840F0044602F5106000EB41100660C9
:104D000068E01BE002F5106000EB4110006840F025
:104D1000044602F5106000EB411006605869002857
:104D200058D040F6340080581E7806F00F07012650
:104D3000BE40304340F63406B0504BE002F53060E0
:104D400000EB41100069C60CF60402F5306000EB80
:104D50004110066102F5306000EB411000691E4E03
:104D6000304002F5306606EB41163061586908B1F3
:104D70009868586102F5306000EB4110006940F41A
:104D8000002602F5306000EB4110066102F530604C
:104D900000EB411000699E68C6F31206304302F52D
:104DA000306606EB41163061012C07D1D86828B176
:104DB00002F5306000EB4110DE68466102F53060BC
:104DC00000EB4110006840F0044602F5306000EB53
:104DD000411006600020F0BDFFFF07E070B50346FC
:104DE0000C4619461D6C1848854209D94FF43060AD
:104DF000405800F00040B0F1004F01D1002070BDDC
:104E00000026C1F8106BD1F8100B40F40026C1F851
:104E1000106BD1F8100B40F01806C1F8106BD1F8E8
:104E2000100B40F0C046C1F8106B012C09D1C1F83D
:104E3000142B4FF43060405840F080264FF430601F
:104E400046500020DBE700000A30544F30B50446DE
:104E50000B4622461978587801281ED102F51060B9
:104E600000EB4110006820F4001502F5106000EB23
:104E700041100560D878032802D0D87802282AD1BA
:104E800002F5106000EB4110006840F0805502F51B
:104E9000106000EB411005601DE002F5306000EB92
:104EA0004110006820F4001502F5306000EB41105D
:104EB0000560D878032802D0D87802280BD102F5F3
:104EC000306000EB4110006840F0805502F5306022
:104ED00000EB41100560002030BD30B504460B46A4
:104EE000224619785878012821D102F5106000EB8C
:104EF0004110006800F0004060B959B102F510603F
:104F000000EB4110006820F0804502F5106000EBD6
:104F10004110056002F5106000EB4110006840F49C
:104F2000001502F5106000EB4110056020E002F56D
:104F3000306000EB4110006800F0004060B959B1EA
:104F400002F5306000EB4110006820F0804502F56A
:104F5000306000EB4110056002F5306000EB41105D
:104F6000006840F4001502F5306000EB4110056068
:104F7000002030BD2DE9F84381460E4617464D46C8
:104F80003478707801287DD1706920BB05F51060F8
:104F900000EB44100069C749084005F5106101EBBA
:104FA0004411086105F5106000EB4410006940F4FD
:104FB000002105F5106000EB4410016105F510605B
:104FC00000EB44100069C10CC90405F5106000EB4A
:104FD0004410016155E005F5106000EB44100069D4
:104FE000C10CC90405F5106000EB4410016105F522
:104FF000106000EB44100069AE49084005F51061EF
:1050000001EB44110861B16870690844401EB0FBAF
:10501000F1F0A849C94301EAC04005F5106101EB70
:1050200044110969084305F5106101EB4411086159
:1050300005F5106000EB441000697169C1F31201BD
:10504000084305F5106101EB44110861F07801286F
:1050500017D105F5106000EB4410006920F0C04145
:1050600005F5106000EB4410016105F5106000EBE0
:105070004410006940F0005105F5106000EB441049
:10508000016100E07FE0012F36D1306928B105F5DC
:10509000106000EB441031694161F07801281ED1A5
:1050A00040F60800405900F4807060B905F51060C2
:1050B00000EB4410006840F0005105F5106000EB73
:1050C000441001600BE005F5106000EB441000682F
:1050D00040F0805105F5106000EB4410016005F5CB
:1050E000106000EB4410006840F0044105F51060CA
:1050F00000EB44100160DAE005F5106000EB4410AD
:10510000006840F0044105F5106000EB44100160B8
:10511000F07801280FD070690028ECD040F63400F8
:105120004059317801F00F0201219140084340F6C7
:1051300034014851BBE040F60800405900F480704B
:1051400060B905F5106000EB4410006840F00051B4
:1051500005F5106000EB441001600BE005F51060F0
:1051600000EB4410006840F0805105F5106000EB42
:10517000441001600097B08A83B232784846F168E3
:1051800000F000FA93E005F5306000EB4410006990
:10519000C10CC90405F5306000EB4410016105F550
:1051A000306000EB441000694249084005F5306169
:1051B00001EB441108617069D0B905F5306000EB6E
:1051C00044100069B168C1F31201084305F530616C
:1051D00001EB4411086105F5306000EB44100069F3
:1051E00040F4002105F5306000EB4410016126E039
:1051F000B16870690844401EB0FBF1F01FFA80F8F6
:1052000005F5306000EB441000692A49C94301EA02
:10521000C841084305F5306101EB4411086105F50B
:10522000306000EB44100069B16801FB08F1C1F384
:105230001201084305F5306101EB44110861012FAB
:1052400007D1F06828B105F5306000EB4410F16833
:105250004161F07801281ED140F60800405900F461
:10526000807060B905F5306000EB4410006840F0D4
:10527000005105F5306000EB441001600BE005F5CE
:10528000306000EB4410006840F0805105F530605C
:1052900000EB4410016005F5306000EB441000683D
:1052A00040F0044105F5306000EB4410016000203F
:1052B000BDE8F883FFFF07E00146886840F0010081
:1052C000886000207047000001460022102008611D
:1052D00000BF501C0246064B984201D9032070477C
:1052E000086900F010001028F3D00020F7E7000054
:1052F000400D030010B502460023202040EA811033
:10530000106100BF581C0346054CA04201D9032080
:1053100010BD106900F020002028F3D00020F7E72E
:10532000400D030010B501460B4640F60804E45852
:1053300004F006020AB9002006E0022A01D0062A7B
:1053400001D1022000E00F2010BD0146486900F0A5
:105350000100704710B5002207490848FEF7EEFB30
:1053600007490648FEF778FE06490448FEF72AF981
:105370000248FEF753FF10BDDC01002088540120D5
:10538000D80000203802002001460B4640F61800E5
:10539000C258001DC058024090B2704701460B46EB
:1053A00040F61800C258001DC0580240100C70474B
:1053B00070B5024613464FF40166F45840F63406C1
:1053C000F55801F00F0625FA06F606F0010644EA44
:1053D000C61403F5106606EB4116B66806EA04002B
:1053E00070BD10B50246134603F5306404EB41145A
:1053F000A06840F61404E458204010BD01464869F6
:105400008A6910407047F0B503461E460846D71C0F
:10541000BD08002405E04FF48057BF590760001D08
:10542000641CAC42F7D3F0BD70B504460D46E0688D
:1054300020F0C040E060012D04D1E06840F0005051
:10544000E06007E025B9E06840F08040E06001E0FE
:10545000012070BD3220FBF76FFD0020F9E710B589
:1054600002460B461146D1F8000820F4FE60C1F850
:105470000008D1F800084FF4FE6404EA0314204346
:10548000C1F80008002010BD02461346D3F80008FA
:105490000843C3F8000800207047000030B50346F9
:1054A0001446022C49D12D48814204D32C48814214
:1054B00001D20F2245E02A48814204D32948814283
:1054C00001D20E223DE02748814204D32648814282
:1054D00001D20D2235E02448814204D32348814281
:1054E00001D20C222DE02148814204D32048814280
:1054F00001D20B2225E01E48814204D31D4881427F
:1055000001D20A221DE01B48814204D31A4881427D
:1055100001D2092215E01848814204D3174881427C
:1055200001D208220DE01548814204D3144881427B
:1055300001D2072205E0062203E00CB9092200E0AF
:105540000922D86820F47050D860D8684FF470559C
:1055500005EA82252843D860002030BDC0ACD800C1
:10556000C0E1E4000024F40080730601A0491A01A0
:10557000002D310140A44C0100366E0120ABA60184
:105580000048E8012DE9F04304460D46DDF81CC053
:10559000A0462E46BCF1000F0FD1D81C8708002171
:1055A00009E008F5805000EB0230D6F80090C0F812
:1055B0000090361D491CB942F3D30020BDE8F083AA
:1055C00000BFFEE70FB4054B10B503A9044A0298CB
:1055D00000F0F6F810BC5DF814FB00006D600008E8
:1055E0004C02002002480068C0F30220704700000F
:1055F0000CED00E010B5002804DB0A07130E054A85
:10560000135406E00A07140E034A00F00F031B1F91
:10561000D45410BD00E400E018ED00E002E008C83A
:10562000121F08C1002AFAD170477047002001E01C
:1056300001C1121F002AFBD1704700002DE9FF5F56
:1056400082B00021DDE90430020DDDF840B00343F3
:1056500018D044F61050A2F2FF32424315141198AC
:1056600001281FD0A5EB0B00401C5FEA000A4FF099
:1056700000064E4FDFF83891B046504615D5CAF1B6
:10568000000413E0119801244AA3012801D16FEA14
:105690000B010298119AC0E90031C0E9024206B03C
:1056A000BDE8F09FCBF10000DFE704460021404A4F
:1056B000491842EB0450CDE9001012E0E00707D092
:1056C00032463B4640464946FAF739FE804689460F
:1056D00032463B4610461946FAF731FE06460F465B
:1056E0006410002CEAD1DDE90401DDE90023BAF100
:1056F000000F06DAFAF723FE42464B46FAF71FFE82
:1057000005E0FAF7EDFF42464B46FAF7E9FF04469B
:105710000E460022284BFBF76BF803D84FF0FF3002
:10572000014607E00022254B20463146FAF731FFBB
:10573000FBF745F8102409E0002C0ADB0A220023BD
:10574000FAF7A8FD039B30321A55641E50EA010295
:10575000F2D1641C039AC4F111031444119A012A72
:1057600003D0012208430DD10AE0084304D00020F1
:105770004FF0110B119072E7A3EB0B056D1E0DE0BE
:105780005B4504DD4FF0000205F1010504E003DA9A
:105790004FF00002A5F10105002AECD00298119902
:1057A000C0E90231C0E9004579E70000000014407B
:1057B0000000F03F300000000000F0430000E03F38
:1057C0002DE9FF4F95B09A46884606460025EEE142
:1057D000252877D100242746F94A0121039400E0C7
:1057E000044316F8013F203B01FA03F01042F7D1C1
:1057F00030782A2811D06FF02F033078A0F13002D2
:10580000092A16D8039A44F0020402EB820203EB41
:1058100042021044761C0390EFE758F8042B0392E1
:10582000002A03DA504244F40054039044F0020486
:10583000761C30782E2816D116F8010F44F0040497
:105840002A280DD06FF02F023078A0F13003092BF9
:1058500009D807EB870302EB4303C718761CF3E76D
:1058600058F8047B761C30786C280FD006DC4C2866
:1058700017D068280DD06A2814D104E0742810D0FD
:105880007A280FD10DE044F400140AE044F48014A7
:1058900001E044F440147278824202D104F580148D
:1058A000761C761C307866280BD013DC582877D00D
:1058B00009DC002875D04528F6D04628F4D04728C2
:1058C0001AD193E118E0632835D0642879D065288F
:1058D00012D18BE1702873D008DC6728F1D06928D9
:1058E0006FD06E280DD06F2806D1ACE073282CD075
:1058F000752874D0782853D05246179990476D1C5C
:1059000054E1C4F30250022809D003280DD0D8F87E
:10591000001004280DD00D6008F1040846E1D8F805
:105920000010EA17C1E90052F6E7D8F800100D8020
:10593000F2E70D70F0E718F8041B8DF80010002056
:105940008DF80100EB46012003E058F804BB4FF04E
:10595000FF3061074FF0000102D40DE009F10101B1
:105960008946B9420FDA8145F8DB1BF80910002996
:10597000F4D108E009F1010189468142FADB1BF804
:1059800009100029F6D103985346A0EB09072146D8
:105990003846179A00F080FA284400EB090507E022
:1059A00044E008E10DE01BF8010B524617999047BF
:1059B000B9F10109F7D2534621463846179AF2E069
:1059C00039E00A21C4F302524FF0000B0091022A81
:1059D00006D058F8040BC117032A09D00AE023E0C7
:1059E00008F1070020F00702F2E80201904605E006
:1059F00000B2C117042A01D140B2C117002906DA4A
:105A00000A460021404261EB02012D2202E02205FC
:105A100004D52B228DF80420012203E0E20701D0F7
:105A20002022F7E7914657E00A2100E010214FF0CD
:105A3000000B00910BE010214FF0000B44F0040428
:105A40000827009103E008204FF0000B0090C4F3FA
:105A50000252022A05D058F8040B0021032A08D06C
:105A600008E008F1070020F00702F2E80201904682
:105A700003E080B2042A00D1C0B24FF0000922072F
:105A80002AD53278702A07D0DDF800C08CF0100CCF
:105A90005CEA0B0C05D00EE040228DF804200122B8
:105AA00008E050EA010306D030238DF804308DF869
:105AB000052002229146009B83F0080353EA0B0362
:105AC0000AD150EA010201D1620705D530228DF8D2
:105AD00004204FF001097F1E3278582A04D039A2E1
