:020000040800F2
:1000000010F0012039030008F53F00085D3A0008B0
:10001000F13F0008A50B00083D6A00080000000041
:10002000000000000000000000000000790200084D
:10003000F90F000800000000D50200088F430008F7
:100040005D0300085D0300085D0300084D430008E0
:100050005D0300085D0300085D0300085D03000800
:100060005D0300085D0300085D0300085D030008F0
:100070005D0300085D0300085D0300085D030008E0
:100080005D0300085D0300085D0300085D030008D0
:100090005D0300085D0300085D0300085D030008C0
:1000A0005D0300085D0300085D0300085D030008B0
:1000B0005D0300085D0300085D0300085D030008A0
:1000C0005D0300085D0300085D0300085D03000890
:1000D0005D030008D54700085D0300085D030008C4
:1000E0005D030008CD4200085D0300085D030008C1
:1000F0005D0300085D0300085D0300085D03000860
:100100005D0300085D030008B94300085D030008B3
:100110005D0300085D030008C94300085D03000893
:100120005D0300085D0300085D0300085D0300082F
:100130005D0300085D0300085D0300085D0300081F
:100140005D0300085D0300085D030008F93F000837
:100150005D0300085D0300085D0300085D030008FF
:100160005D0300085D0300085D0300085D030008EF
:100170005D0300085D0300085D0300080000000047
:100180005D0300085D03000800F002F800F064F869
:100190000AA090E8000C82448344AAF10107DA45E2
:1001A00001D100F059F8AFF2090EBAE80F0013F0D0
:1001B000010F18BFFB1A43F001031847F46C040049
:1001C000146D04000A444FF0000C10F8013B13F0CA
:1001D000070408BF10F8014B1D1108BF10F8015BA0
:1001E000641E05D010F8016B641E01F8016BF9D193
:1001F00013F0080F1EBF10F8014BAD1C0C1B09D1EA
:100200006D1E58BF01F801CBFAD505E014F8016B5B
:1002100001F8016B6D1EF9D59142D6D370470000ED
:100220000023002400250026103A28BF78C1FBD8FF
:10023000520728BF30C148BF0B607047642900F0E7
:100240008B81732900F06184002070471FB53AF05C
:10025000C5FB1FBD10B510BD00F072FC1146FFF7C5
:10026000F5FF31F01DFE00F090FC03B4FFF7F2FF44
:1002700003BC08F0B3FE00002C4B19680868B0E816
:10028000F04F80F30988BFF36F8F4FF0000080F3C9
:10029000118870470000000008480068006880F37B
:1002A00008884FF0000080F3148862B661B6BFF38F
:1002B0004F8FBFF36F8F00DF00BF00BF08ED00E07E
:1002C000DFF80C00016841F470010160704700BF65
:1002D00088ED00E0EFF30980BFF36F8F134B1A68CE
:1002E0001EF0100F08BF20ED108A20E9F04F1060BB
:1002F00009B44FF0500080F31188BFF34F8FBFF364
:100300006F8F39F081FA4FF0000080F3118809BC3B
:1003100019680868B0E8F04F1EF0100F08BFB0EC85
:10032000108A80F30988BFF36F8F7047C0000020E8
:10033000EFF30580704700000C48016841F470013C
:1003400001600B4880470B480047FEE7FEE7FEE7E9
:10035000FEE7FEE7FEE7FEE7FEE7FEE7FEE700005A
:1003600005480649044A064B7047000088ED00E046
:10037000A54300088901000810E0012010F00120C9
:1003800010E00120704753EA020C00F069802DE96B
:10039000F04B4FF00006002B1FBFB3FA83F503FAB2
:1003A00005F424FA05F65E4012BF1643B2FA82F550
:1003B00002FA05F4C5F120051EBF22FA05FC44EA45
:1003C0000C04203556EA044C4FEA144418BF641C50
:1003D0004FF000084FF00009904271EB030C39D345
:1003E000002919BFB1FA81F701FA07F6B0FA80F7D0
:1003F00000FA07F6C7F120071EBF20FA07FC46EAFD
:100400000C062037B6FBF4FCA7EB0507103F07F0FE
:100410001F0BCBF120060CFA0BFB2CFA06F644BF9F
:10042000B3460026202FA4BF5E464FF0000B5BEAC8
:10043000060C08BF4FF0010B19EB0B09ABFB027C5C
:1004400048EB0608C01B06FB02CC0BFB03CC71EB90
:100450000C01C1E70B46024641464846BDE8F08B19
:1004600013B54FF000004FF00001AFF30080BDE87E
:100470001C4070470FB4044910B503AA029800F05D
:1004800049FB10BC5DF814FB640000200FB41CB5E0
:10049000084B06AA7B4469460090059800F00BFBC8
:1004A00004460020694600F019FB20461CBC5DF89C
:1004B00014FB00004506000070B50446856900681D
:1004C000C10601D5302600E02026C00707D070BD48
:1004D000D4E9012130469047206A401C20626D1EFD
:1004E000F6D570BD70B5044685690078C00707D1A0
:1004F00070BDD4E9012120209047206A401C206271
:100500006D1EF6D570BD70B50C460546012A05D0A6
:100510002878800600D5EA69002302E0012305E07F
:100520005B1C934202D2E05C0028F9D1A869E6186E
:10053000C01AA861286A184428622846FFF7BCFF41
:1005400004E0D5E9012114F8010B9047B442F8D337
:100550002846FFF7C7FF70BD2DE9F041064600248D
:1005600010687529314616A510D0AFF30080002819
:1005700002DA404213A507E031688A0701D512A5C7
:1005800002E0490704D511A5012401E0AFF3008082
:1005900000210A2206F1240709E0B0FBF2FCB0FBBF
:1005A000F2F302FB1C00303078541846491C002836
:1005B000F3D123462A463046BDE8F04100F01CBA8C
:1005C000000000002D0000002B00000020000000B3
:1005D0002DE9F05F894604464FF0000ADFF874B158
:1005E000FB44C0F820A02046E1688847002874D06A
:1005F000252806D0D4E901219047206A401C2062BA
:10060000F1E700265F462046E16888472028054636
:1006100007DB312D05D2781910F8200C08B10643FC
:10062000F1E7B00701D526F00406C4F81CA00027A6
:10063000C4F818A02A2D09D0284606F0FBFB38B3D1
:1006400004EB8708303DC8F8185019E059F8041B2E
:10065000204604EB87029161E1688847012F054637
:1006600018D1E069002820DA26F020061DE0D8F82D
:10067000180000EB800005EB40003038C8F8180087
:100680002046E1688847054606F0D4FB0028EED1F5
:10069000012F0AD02E2D08D12046E16888477F1C03
:1006A0000546022F46F02006C4DBA069002803DAC5
:1006B000404246F00106A061F00701D026F0100686
:1006C0006C2D0BD0682D09D04C2D39D06A2D35D02A
:1006D000742D35D07A2D33D016E038E0E1682F46FE
:1006E00020468847B842054609D16C2F26D04FF4E2
:1006F0008060E168064320468847054604E06C2F89
:100700001AD04FF4807006430DB3A5F141001928AB
:1007100002D8203546F400664A462946204626601F
:100720004E46FFF78BFD80B101280BD0F61D26F059
:10073000070000F1080956E74020E4E78020D8E7E9
:100740000020D6E706F104094DE7284652E7206A63
:10075000BDE8F09FEC63040040EA0103024630B5B7
:100760009B0710D14FF0013400E008C208C91D1BDF
:100770009D4315EAC41FF8D013F0FF0102F8011BD6
:100780000DD01B0AF8E711F8013B002B02F8013BE2
:1007900005D011F8013B002B02F8013BF3D130BD2D
:1007A00010B5431C02E010F8011B71B18107FAD1AA
:1007B0004FF0013202C88C1A8C4314EAC211F9D0EE
:1007C000C01A0A0603D0C01E10BDC01A10BD0A040C
:1007D00001D0801E10BD0902FCD0401E10BD032AAE
:1007E00040F2308010F0030C00F0158011F8013B4E
:1007F000BCF1020F624498BF11F801CB00F8013B35
:1008000038BF11F8013BA2F1040298BF00F801CBF8
:1008100038BF00F8013B11F0030300F02580083ACF
:10082000C0F0088051F8043B083A51F804CBA0E826
:100830000810F5E7121D5CBF51F8043B40F8043B7B
:10084000AFF30080D20724BF11F8013B11F801CBB0
:1008500048BF11F8012B24BF00F8013B00F801CB81
:1008600048BF00F8012B704710B5203AC0F00B804C
:10087000B1E81850203AA0E81850B1E81850A0E8A4
:100880001850BFF4F5AF5FEA027C24BFB1E81850FE
:10089000A0E8185044BF18C918C0BDE810405FEA6E
:1008A000827C24BF51F8043B40F8043B08BF7047EA
:1008B000D20728BF31F8023B48BF11F8012B28BFEF
:1008C00020F8023B48BF00F8012B704702F0FF03FD
:1008D00043EA032242EA024200F002B84FF000026B
:1008E0000429C0F0128010F0030C00F01B80CCF142
:1008F000040CBCF1020F18BF00F8012BA8BF20F8B0
:10090000022BA1EB0C0100F00DB85FEAC17C24BF03
:1009100000F8012B00F8012B48BF00F8012B7047AD
:100920004FF0000200B5134694469646203922BF88
:10093000A0E80C50A0E80C50B1F12001BFF4F7AFD3
:10094000090728BFA0E80C5048BF0CC05DF804EBB5
:10095000890028BF40F8042B08BF704748BF20F823
:10096000022B11F0804F18BF00F8012B70470000D8
:100970004FF0013C50F8042B51F8043B9A4221D12E
:10098000A2EB0C03934313EACC1317D150F8042BBA
:1009900051F8043B9A4215D1A2EB0C03934313EA9E
:1009A000CC130BD150F8042B51F8043B9A4209D1D7
:1009B000A2EB0C03934313EACC13DBD04FF00000FF
:1009C000704700BFD01A01BAB1FA81F101F01801E5
:1009D00022FA01F0CB40C1F12001DBB2C0B2C01A53
:1009E0002CFA01F3D11A914311EAC311E6D17047F1
:1009F00070477047704770472DE9F0470D4699469C
:100A00009246044600F124080168880604D5E0698E
:100A100021F01001216000E00120A84201DD471B08
:100A200000E00027A1697A1902EB0900081AA06109
:100A30002078C00602D42046FFF73EFD002608E0DD
:100A4000D4E901211AF806009047206A401C761C60
:100A500020624E45F4DB2078C0060AD52046FFF719
:100A60002BFD06E0D4E9012130209047206A401C8C
:100A70002062381EA7F10107F4DC07E0D4E9012168
:100A800018F805009047206A401C2062281EA5F136
:100A90000105F3DC2046FFF725FD2078000602D58E
:100AA0000220BDE8F0870120FBE7000001694A1C35
:100AB00002610878704700B58FB0CDE9013100219F
:100AC000059105497944CDE9031011466846FFF7C1
:100AD0007FFD0FB000BD0000E5FFFFFF0A6802F8D0
:100AE000010B0A60704710B5436913B1AFF3008082
:100AF00001E0FFF708FD012010BD127800F124018C
:100B00000A7000224A700122EDE711684FF0FF32AF
:100B1000E9E70000074B70B50D467B44FFF7CBFFBC
:100B20000446284600F008F810B14FF0FF3070BDC1
:100B3000204670BDEB480100007B00F0800070474C
:100B4000754600F02BF8AE4605006946534620F086
:100B50000700854618B020B5FFF702FCBDE820402D
:100B60004FF000064FF000074FF000084FF0000B69
:100B700021F00701AC46ACE8C009ACE8C009ACE81C
:100B8000C009ACE8C0098D46704710B50446AFF304
:100B900000802046BDE81040FFF767BB0048704763
:100BA000B0DF012000BFFEE770B505460C461646D3
:100BB000042D15D007DC7DB1012D0ED0022D0DD0F6
:100BC000032D50D10BE0202D0BD0212D30D0222D24
:100BD00047D0232D47D145E046E045E044E043E0DF
:100BE00042E02078617840EA0120A17840EA0140A3
:100BF000E17840EA01601E49086020790871607957
:100C00004871A0798871084601791AA0FFF732FC73
:100C1000174841791DA0FFF72DFC1548817922A0C6
:100C2000FFF728FC1248016826A0FFF723FC1BE011
:100C30000F48007820700E480088000A60700C4849
:100C40000068000CA0700A480068000EE0700848B8
:100C50000079207106484079607105488079A0715B
:100C600002E001E000E000BF00BF002070BD000016
:100C7000880400206C696E65636F64696E672E6618
:100C80006F726D61743A25640D0A00006C696E65BF
:100C9000636F64696E672E706172697479747970BC
:100CA000653A25640D0A00006C696E65636F6469BE
:100CB0006E672E64617461747970653A25640D0AFB
:100CC000000000006C696E65636F64696E672E6278
:100CD0006974726174653A25640D0A0000207047DA
:100CE00010B50349034803F0CDFE002010BD0000FD
:100CF00016D901200C06002070B505460C460448A4
:100D000003F09BFE2846216809F00AFF002070BD11
:100D10000C06002070B502203349087000BF1FF098
:100D2000BDF805461FF016F9044628F063F92F496F
:100D300008601FF0B3F806461FF02EF904461FF0B6
:100D4000ADF806461FF0C2F8054622462946274858
:100D500000682CF0C2FA254800252E460468324669
:100D6000294620462CF0A9FC3246294620462CF084
:100D7000B1FC3246294620462CF0B9FC32462946C1
:100D800020462CF08DFC00BF002211461748006859
:100D90002CF0E9FB00224FF4FA71154830F036FAD6
:100DA0001449086002F05AFF1AE00F48807890B1A9
:100DB0001048006830F054FA0C48006828F02AF90E
:100DC0000020094988700120087000200749086048
:100DD0000849086005E030F087FA052038F04CFB40
:100DE000E3E700BF70BD0000A803002068040020F6
:100DF00065B80008740400201CB5054805210023CF
:100E00008022CDE9001003A1054839F00DF91CBD81
:100E10003001002044485431315F7461736B00002D
:100E2000B90F00080020002200BF2CE01C4951F837
:100E30002010502902D90AB9012222E0012A20D12A
:100E400006281EDB014600EBD1735B10A0EB4303C9
:100E5000BBB9462815DA134909684900114B1960D6
:100E60000F4951F82010322905D91946096841F077
:100E70000101196005E00B49096821F00101094BE6
:100E80001960411CC8B25528D0DB06490988C1F356
:100E90000721054B198003490968090E59807047DD
:100EA000EC090020400100203601002000B585B08B
:100EB0000120009002200190029003200390022064
:100EC00004906946024800F0C3F905B000BD000077
:100ED0000000024000B585B0012000901120019073
:100EE00001200290022003906946024800F0B0F908
:100EF00005B000BD0000024010B511480078F0B107
:100F0000FFF790FF4FF4AA710E48FFF709FD00208C
:100F10000D49096848620C480068006840F001000B
:100F200009490968086000200849087004490870E8
:100F30004FF4FA6038F0A0FA02200549087010BD9D
:100F400058000020EC090020A409002054000020D3
:100F50003401002010B500BF14480068006A41F257
:100F60001111084068B911480068006A89100840EA
:100F700038B90E480068006820F001000B49096884
:100F8000086000BF0020094909684862FFF7A2FF16
:100F900000220121064800F06FFA122038F06CFAA6
:100FA000FFF784FF03200349087010BDA409002047
:100FB00000000240340100201AE031F0A1FA0D488F
:100FC000007830B101280ED0022806D003280BD1BA
:100FD00006E002200749087006E0FFF7BBFF03E0C8
:100FE000FFF78AFF00E000BF00BF052038F044FA99
:100FF000E3E70000340100207047000070B50446AC
:101000001D460023B5F5804F13D154F822300C480B
:101010000340D1E9000640EA06108E6840EA062047
:101020008E8940EA06408E693043034344F82230FB
:1010300003E06FF0704044F82200002070BD000013
:101040000000F0CF10B503460022086853F82020B6
:1010500012480240D1E901042043CC6820430C69C6
:1010600020434C6920438C692043CC6920430C6A9F
:1010700020434C6A20438C6A2043CC6A2043CC6BCB
:1010800020430C6B204302438868082801D142F0BA
:101090004002086843F82020002010BD8000F0FFC7
:1010A00030B503460024501C53F8204004F040445F
:1010B000D1E9000540EA05108D6840EA05208D89D8
:1010C00040EA0545088A401E45EA0055087D801E15
:1010D00045EA00608D6928430443501C43F82040D2
:1010E000002030BD1CB524F06BFD2CF06BFC2CF007
:1010F00091FC0648012100238022CDE9001004A1C3
:10110000064838F091FF38F015FB1CBD00000020A8
:1011100073746172745F7461736B00003D530308F4
:1011200070B50A480468001D0568001D066834444F
:1011300054B108220649204602F0F2FC0422044978
:101140001031284602F0ECFC70BD0000107AFF1F41
:10115000E204002070B50446A56D00F099F906463A
:1011600094F83500022808D08020606500BF002078
:1011700084F8340000BF012070BD2068006820F0B2
:101180001600216808602068406920F0800021680E
:101190004861206C08B9A06C28B12068006820F074
:1011A0000800216808602068006820F001002168BC
:1011B00008600FE000F06CF9801B05280AD9202098
:1011C000606500BF002084F8340000BF032084F86D
:1011D0003500D1E72068006800F001000028E9D15F
:1011E00094F85C103F208840A86000BF002084F87D
:1011F000340000BF012084F835000020BCE7014620
:1012000091F83500022803D08020486501207047FE
:10121000052081F835000868006820F001000A68A0
:1012200010600020F3E7000070B5044600F030F9CC
:1012300006462546681C10B104480078054400BFE6
:1012400000F026F9801BA842FAD370BD740000207C
:10125000F8B502460B460025002400200021DEE000
:10126000012606FA01F51E6806EA0504AC4275D1AE
:101270001E7906F00306012E04D01E7906F003063F
:10128000022E13D190684F000326BE40B0434F009A
:10129000DE68BE4030439060506801268E40B04307
:1012A0001E79C6F300168E40304350601E7906F05A
:1012B0000306032E09D0D0684F000326BE40B0437A
:1012C0004F009E68BE403043D0601E7906F0030692
:1012D000022E13D1CF0802F1200656F827004E0740
:1012E000F70E0F26BE40B0434F07FF0E1E69BE40EB
:1012F0003043CF0802F1200646F8270010684F005F
:101300000326BE40B0431E7906F003064F00BE40E0
:10131000304310605E6806F08056B6F1805F7DD184
:1013200000BF00260096404E366846F480463E4F89
:101330003E603E46366806F48046009600BF00BF19
:101340003A4E8F0856F827008E07370F0F26BE40FB
:10135000B043374EB24202D1002624E05EE0354E63
:10136000B24201D101261EE0334EB24201D1022623
:1013700019E0324EB24201D1032614E0304EB2429F
:1013800001D104260FE02F4EB24201D105260AE01A
:101390002D4EB24201D1062605E02C4EB24201D1BB
:1013A000072600E008268F073F0FBE4030431F4E40
:1013B0008F0846F82700264E3068A0435E6806F482
:1013C0008036B6F5803F00D12043214E3060361D77
:1013D0003068A0435E6806F40036B6F5003F00D1E1
:1013E00020431B4E361D3060361D3068A0435E68BA
:1013F00006F48016B6F5801F00D12043144E08363F
:101400003060361D3068A0435E6806F40016B6F5FD
:10141000001F00D120430E4E0C363060491C1029AD
:10142000FFF41EAFF8BD0000443802400838014008
:10143000000002400004024000080240000C02408C
:10144000001002400014024000180240001C02403C
:10145000003C0140024613690B400BB1012000E043
:101460000020704710B5426921EA020302EA010434
:1014700043EA0443836110BD0AB1816101E00B04BA
:101480008361704701480068000C7047002004E049
:1014900001480068704700006C00002003480068A5
:1014A0000349097808440149086070476C0000202E
:1014B0007400002010B50A48006840F40070084924
:1014C00008600846006840F480600860032000F06F
:1014D0007FF80F2000F006F800F02AF8002010BD79
:1014E000003C024070B504460E4800784FF47A7113
:1014F000B1FBF0F00C490968B1FBF0F5284601F0AA
:10150000B9FE08B1012070BD102C07D2002221467F
:10151000501E00F01EF80548046001E00120F2E7CB
:101520000020F0E77400002004000020700000207C
:10153000704701460846002809DB00F01F0301221E
:101540009A4043099B0003F1E023C3F8002100BF48
:1015500070472DE9F05F80460D461646002705F0DE
:101560006FFA074639462A46334601F00700C0F1B4
:10157000070ABAF1040F02D94FF0040A01E0C0F1E2
:10158000070AD14600F1040ABAF1070F02D24FF060
:10159000000A01E0A0F1030AD4464FF0010A0AFA5A
:1015A00009FAAAF1010A0AEA020A0AFA0CFA4FF049
:1015B000010B0BFA0CFBABF1010B0BEA030B4AEA34
:1015C0000B042146404605F043FABDE8F09F0000B9
:1015D00000BF00F00702064B19684FF6FF031940E1
:1015E000044B0B4343EA0221014B196000BF7047D3
:1015F0000CED00E00000FA057047024610684162F9
:1016000000207047F0B5034615461868446A21B9B2
:1016100044EA05401E68B06219E01868806A04EB6D
:101620001044002208E0186800F5827050F822008B
:1016300004EB1044501CC2B2481E9042F3D844EA56
:101640000547186800F582704E1E40F8267000208D
:10165000F0BD000010B50446012003490870D4F81D
:10166000040403F0ACFD10BDA804002070B50446CE
:101670000D46C5EBC50304F13C0101EB8301CA68CB
:101680002946D4F8040403F0E2FC70BD70B50446AA
:101690000D46C5EBC50304F5FE7101EB8301CA6875
:1016A0002946D4F8040403F043FD70BD10B5044688
:1016B00000200549087005A0FEF7DCFED4F80404FC
:1016C00003F080FD10BD0000A80400205553422007
:1016D00044657669636520446973636F6E6E656304
:1016E0007465642E0D0A000070B504460E4606F0BF
:1016F000800080280AD106F00F00C0EBC00104F181
:101700003C0000EB81050120687009E006F00F0045
:10171000C0EBC00104F5FE7000EB8105002068708D
:1017200006F00F00287000BF94F8BC03012801D117
:10173000022070BD012084F8BC0300BF2946206848
:1017400004F0F6FA00BF002084F8BC0300BF00BF1D
:10175000EFE770B504460E4606F00F006168884258
:1017600001D9012070BD06F0800080280AD106F062
:101770000F00C0EBC00104F13C0000EB810501202B
:10178000687009E006F00F00C0EBC00104F5FE70C0
:1017900000EB8105002068700020A87006F00F00A3
:1017A000287000BF94F8BC03012801D10220D9E7BA
:1017B000012084F8BC0300BF2946206804F09EFD88
:1017C00000BF002084F8BC0300BF00BFCAE7024688
:1017D00001F00F00C0EBC00302F5FE7000EB8300C8
:1017E000806970472DE9F04705460E4690461F4632
:1017F0004FF0000906F0800080280AD106F00F00A3
:10180000C0EBC00105F13C0000EB810401206070D9
:1018100009E006F00F00C0EBC00105F5FE7000EB1B
:1018200081040020607006F00F002070C4F808806A
:10183000E770607808B12078E080022F01D10020A5
:10184000207100BF95F8BC03012802D10220BDE839
:10185000F087012085F8BC0300BF2146286804F00A
:1018600083F900BF002085F8BC0300BF4846EEE7BF
:101870002DE9F04104460E461746984606F00F0043
:10188000C0EBC00104F5FE7000EB8105EF60C5F808
:1018900014800020A861687006F00F00287020698D
:1018A000012800D12F6106F00F0028B9227C2946BB
:1018B000206804F0FFFB04E0227C2946206804F045
:1018C000B1FD0020BDE8F08170B504460D4605F07D
:1018D0000F006168884201D9012070BD05F08000C9
:1018E00080280AD105F00F00C0EBC00104F13C00D4
:1018F00000EB81060120707007E0C5EBC50104F51F
:10190000FE7000EB8106002070700120B07005F0C1
:101910000F00307000BF94F8BC03012801D10220F1
:10192000DBE7012084F8BC0300BF3146206804F0E7
:101930002CFD05F00F0028B9217C04F57172206898
:1019400004F0A4FC00BF002084F8BC0300BF00BF6B
:10195000C3E72DE9F04104460E461746984606F0C7
:101960000F00C0EBC00104F13C0000EB8105EF600B
:10197000C5F814800020A8610120687006F00F00EF
:1019800028702069012800D12F6106F00F0028B9C6
:10199000227C2946206804F08DFB04E0227C294645
:1019A000206804F03FFD0020BDE8F0812DE9FE4FE6
:1019B000044620680290029D206804F01EFF002863
:1019C0007DD1206804F058FF08B9BDE8FE8F20687B
:1019D00004F052FF00F00200022805D1206840699F
:1019E00000F0020021684861206804F045FF00F023
:1019F0001000102846D12068806920F0100021686E
:101A000088610298D0F8209009F00F00C0EBC00167
:101A100004F5FE7000EB810BC9F3434002281AD194
:101A200047F6F07009EA000030B3C9F30A12DBF898
:101A30000C10029804F025FFC9F30A11DBF80C0022
:101A40000844CBF80C00C9F30A11DBF8180008446D
:101A5000CBF8180010E0C9F3434006280CD1082247
:101A600004F57171029804F00CFFC9F30A11DBF858
:101A700018000844CBF818002068806940F0100076
:101A800021688861206804F0F7FE00F40020B0F5BA
:101A9000002F52D10026206804F0BEFE824649E0A5
:101AA0000AF00100E8B3F1B2206804F0D8FE8046E5
:101AB00008F0010058B1012105F5306000E021E295
:101AC00000EB461081603146204602F0CFFA08F064
:101AD0000800082809D1082105F5306000EB461000
:101AE00081603146204602F08FFA08F0100010287D
:101AF00005D1102105F5306000EB4610816008F03B
:101B00002000202805D1202105F5306000EB46108B
:101B1000816008F40050B0F5005F08D14FF4005127
:101B200000E004E005F5306000EB46108160761CB3
:101B30004FEA5A0ABAF1000FB2D1206804F09CFEB5
:101B400000F48020B0F5802F7ED1206804F05AFE8A
:101B50008246002683E00AF0010000287CD0F1B222
:101B6000206804F063FE804608F00100F0B306F040
:101B70000F0101208840019040F63400415901983E
:101B800021EA000040F634014851012105F51060BA
:101B900000EB461081602069012824D1C6EBC60104
:101BA00004F13C0000EB8100C6EBC602C16804F101
:101BB0003C0000EB820080680144C6EBC60204F1E1
:101BC0003C0000EB8200C1606EB9C6EBC60104F1B7
:101BD0003C0000EB8100406928B904F571720121D5
:101BE000206804F053FBF1B2204600E001E0FFF76B
:101BF0003DFD08F00800082805D1082105F5106012
:101C000000EB4610816008F01000102805D110216B
:101C100005F5106000EB4610816008F04000402898
:101C200005D1402105F5106000EB4610816008F0F9
:101C30000200022805D1022105F5106000EB4610D4
:101C4000816008F0800001E00DE005E0802803D10C
:101C50003146204602F0C8FA761C4FEA5A0ABAF119
:101C6000000F7FF478AF206804F006FE00F000401B
:101C7000B0F1004F1CD140F60400405920F00101A2
:101C800040F60400415194F8F403012807D10020E4
:101C900084F8F40300212046FFF7AEFC02E0204662
:101CA00000F09AFA2068406900F00040216848611D
:101CB000206804F0E1FD00F40060B0F5006F0ED183
:101CC00040F60800405900F0010010B1204600F035
:101CD000E7FA2068406900F40060216848612068E4
:101CE00004F0CAFD00F48050B0F5805F7DD140F66D
:101CF0000400405920F0010140F604004151102138
:101D0000206804F04FFD00273EE04FF67F3105F5D7
:101D1000106000EB4710816005F5106000EB471084
:101D2000006820F4001105F5106000EB4710016019
:101D300005F5106000EB4710006840F0006105F504
:101D4000106000EB471001604FF67F3105F5306001
:101D500000EB4710816005F5306000EB471000682C
:101D600020F4001105F5306000EB4710016005F527
:101D7000306000EB4710006840F0006105F530600E
:101D800000EB471001607F1C6068B842BDD840F688
:101D90001C00405940F0011140F61C004151206BDD
:101DA00070B1D5F8840840F00B01C5F8841840F6EE
:101DB0004400405940F00B0140F6440041510FE00F
:101DC00040F61400405942F22B01084340F614013A
:101DD0004851081F405940F00B014FF40160415138
:101DE000D5F8000820F4FE6000E00DE0C5F800081A
:101DF000217C04F57172206804F048FA206840697B
:101E000000F4805021684861206804F035FD00F43A
:101E10000050B0F5005F17D1206803F00DFF206877
:101E200004F0D8FCE06000F0F9FB0090227B206811
:101E3000009904F071FD204600F082F920684069A5
:101E400000F4005021684861206804F015FD00F09E
:101E50000800082808D1204600F0D2F9206840691F
:101E600000F0080021684861206804F005FD00F4D6
:101E70008010B0F5801F0AD100263146204600F0C0
:101E800043F82068406900F48010216848612068A8
:101E900004F0F2FC00F40010B0F5001F0AD1002697
:101EA0003146204600F039F82068406900F40010FF
:101EB00021684861206804F0DFFC00F08040B0F148
:101EC000804F08D12046FFF7C5FB2068406900F02D
:101ED000804021684861206804F0CEFC00F00400D6
:101EE00004280FD12068D0F8049009F004000428D9
:101EF00002D12046FFF7DAFB2068406840EA09007B
:101F00002168486000BF60E570B504460D4629466B
:101F1000D4F8040403F0BAF970BD70B504460D4658
:101F20002946D4F8040403F0C9F970BD70B58AB02D
:101F3000044614B901200AB070BD266894F8BD03A8
:101F400028B9002084F8BC03204600F0A3F8032041
:101F500084F8BD03F06B00F4807008B900212161A2
:101F6000206804F09FF8282204F110016846FEF76B
:101F70007BFC94E80F0003F073FE20B1022084F88C
:101F8000BD030120D7E70021206804F08BFC002569
:101F900031E00121C5EBC50204F13C0000EB8200F9
:101FA0004170C5EBC50104F13C0000F82150C5EBC0
:101FB000C50100EB8100C5800021C5EBC50204F11D
:101FC0003C0000EB8200C170C5EBC50204F13C008F
:101FD00000EB82008160C5EBC50204F13C0000EB20
:101FE0008200C160C5EBC50204F13C0000EB820039
:101FF0004161681CC5B26068A842CAD800252AE0C1
:102000000021C5EBC50204F5FE7000EB82004170B3
:10201000C5EBC50104F5FE7000F821500021C5EBA9
:10202000C50200EB8200C170C5EBC50204F5FE706D
:1020300000EB82008160C5EBC50204F5FE7000EB89
:102040008200C160C5EBC50204F5FE7000EB8200A2
:102050004161681CC5B26068A842D1D8282204F149
:1020600010016846FEF700FC94E80F0003F02AFF19
:1020700020B1022084F8BD0301205CE7002084F831
:102080003800012084F8BD03206803F009FF002018
:1020900051E7000010B586B00446142101A8FEF7F0
:1020A0003FFC2068B0F1A04F43D100BF2248006838
:1020B00040F080002049086000BF002000901E48CA
:1020C0001030006840F480401B4910310860084619
:1020D000006800F48040009000BF00BF00BF00BF58
:1020E000002000901448001F006840F001001249D1
:1020F000091F08600846006800F00100009000BF5A
:1021000000BF4FF4C05001900220029000200390C5
:10211000032004900A20059001A90848FFF798F8C9
:10212000032200214320FFF714FA4320FFF701FAAE
:1021300000E000BF06B010BD34380240000002408D
:1021400070B504460125E06810B102280AD104E008
:102150000CA0FEF78FF9002509E011A0FEF78AF91F
:10216000012504E015A0FEF785F9012500BF00BF99
:10217000D4F8040403F0DAF82946D4F8040403F090
:102180002CF970BD55534220446576696365204C37
:1021900069627261727920205B48535D0D0A00000C
:1021A00055534220446576696365204C69627261CB
:1021B000727920205B46535D0D0A00005553422082
:1021C000446576696365204C69627261727920208A
:1021D0005B46533F5D0D0A0010B5044603A0FEF7B1
:1021E00049F9D4F8040403F0D7F810BD44657669C2
:1021F000636520526573756D65640D0A000000000B
:1022000010B50446D4F8040403F0D1F810BD70B53D
:1022100004460D4600BF94F8BC03012801D10220FA
:1022200070BD012084F8BC0300BF84F838502946F3
:10223000206804F052FB00BF002084F8BC0300BFFC
:1022400000BFEDE710B5044604F57171D4F804043D
:1022500003F0D8F810BD70B50446256800BF94F8A7
:10226000BC03012801D1022070BD012084F8BC0309
:1022700000BFA06A012806D1A069012803D0A86B7D
:1022800040F48030A863206804F06EFA206803F000
:10229000F5FD00BF002084F8BC0300BF00BFE3E7EA
:1022A00010B5044600200549087005A0FEF7E2F8C5
:1022B000D4F8040403F0F3F810BD0000A8040020D3
:1022C00044657669636520496E2073757370656E29
:1022D00064206D6F64652E0D0A00000008B50120B2
:1022E0000349086203480068009000BF08BD000071
:1022F00000000E4200700040F8B50446002500269C
:10230000207800F0010020B9207800F004000428B3
:102310002FD100205B498866FFF7BAF8054606E032
:10232000FFF7B6F8401B022801D90320F8BD564834
:102330000068C0F3C0600028F2D160688101207A93
:1023400041EA007050498431086001204D49886697
:10235000FFF79EF8054606E0FFF79AF8401B0228B3
:1023600001D90320E2E748480068C0F3C0600028B4
:10237000F2D0207800F0020002287DD100BF0020BA
:10238000009041484030006840F080503E49403164
:1023900008600846006800F08050009000BF00BF51
:1023A0003A48006840F4807038490860FFF770F8D8
:1023B000054606E0FFF76CF8401B022801D9032010
:1023C000B4E73248006800F480700028F2D02E484C
:1023D0007030006800F440764EB3A08900F440707D
:1023E000B04224D028487030006820F440760120A4
:1023F00027490860002008602348703006600068A4
:1024000000F0010098B1FFF743F8054608E0FFF738
:102410003FF8401B41F28831884201D9032085E70B
:10242000194870300068C0F340000028EFD000BFAA
:10243000A08900F44070B0F5407F0CD112480830FC
:10244000006820F4F810134AE168114008430E496F
:102450000831086007E00C480830006820F4F810E4
:10246000094908310860084870300068A189C1F343
:102470000B010843044900E002E07031086000BF2E
:10248000002053E70000474200380240007000403F
:10249000400E4742FFFCFF0F70B504460D460CB9D5
:1024A000012070BD5848006800F00700A84209D21A
:1024B00055490D700846006800F00700A84201D099
:1024C0000120EEE7207800F0020002281DD12078DC
:1024D00000F00400042805D14C48006840F4E050A6
:1024E0004A490860207800F00800082805D14748CC
:1024F000006840F46040454908604448006820F0A6
:10250000F000A168084341490860207800F001000C
:10251000A8B36068012807D13C4808380068C0F3B8
:102520004040B8B90120BCE76068022802D060686A
:10253000032807D1354808380068C0F3406048B91F
:102540000120AEE7314808380068C0F3400008B900
:102550000120A6E72D48006820F0030061680843C9
:102560002A490860FEF794FF064609E0FEF790FF4F
:10257000801B41F28831884202D9032091E707E0AD
:102580002248006800F00C006168B0EB810FEDD1CB
:102590001D48006800F00700A84209D91A490D70CB
:1025A0000846006800F00700A84201D0012078E743
:1025B000207800F00400042807D11448006820F4B3
:1025C000E050E168084311490860207800F00800F5
:1025D000082808D10D48006820F46040216940EACD
:1025E000C1000A49086000F03FF808490968C1F3D2
:1025F0000311074A515CC840064908600648006854
:10260000FEF770FF00204CE7003C02400838024013
:10261000E6A90308040000207000002001480068BB
:10262000704700000400002000B5FFF7F7FF0449E1
:102630000968C1F38221034A515CC84000BD000013
:1026400008380240F6A9030800B5FFF7E7FF044980
:102650000968C1F34231034A515CC84000BD000023
:1026600008380240F6A903082DE9F04700240025A8
:102670000026A1462548006800F00C0020B104287F
:1026800005D008283AD105E0DFF8849039E0DFF87A
:10269000849036E01D48001F006800F03F041B488E
:1026A000001F006800F4800078B11A481749091F1C
:1026B0000968C1F38811A0FB01700146224600237E
:1026C0003846FDF760FE05460EE011480F49091F28
:1026D0000968C1F38811A0FB01700146224600235E
:1026E0003846FDF750FE05460848001F0068C0F355
:1026F0000140401C4600B5FBF6F902E0DFF81090FF
:1027000000BF00BF4846BDE8F0870000083802401F
:102710000024F40000127A00F8B504460CB9012038
:10272000F8BD207800F00100002874D0F948006856
:1027300000F00C0004280DD0F648006800F00C00F2
:10274000082813D1F348001F006800F48000B0F59A
:10275000800F0BD1EF4808380068C0F340400028D4
:1027600059D06068002856D10120D9E700BF6068C1
:10277000B0F5803F08D1E7480838006840F4803061
:10278000E449083908601EE06068B0F5A02F0DD15B
:10279000E0480838006840F48020DE4908390860C5
:1027A0000846006840F4803008600CE0D9480838DA
:1027B000006820F48030D74908390860084600686E
:1027C00020F48020086000BF606890B1FEF760FED2
:1027D000054606E0FEF75CFE401B642801D9032095
:1027E0009EE7CC4808380068C0F340400028F1D08C
:1027F00011E0FEF74DFE054606E0FEF749FE401BE0
:10280000642801D903208BE7C24808380068C0F368
:1028100040400028F1D1207800F0020002285FD16A
:10282000BC48006800F00C0058B1BA48006800F0DD
:102830000C0008281CD1B748001F006800F4800075
:10284000B0B9B44808380068C0F3400020B1E0686F
:10285000012801D0012063E7AE480838006820F065
:10286000F800216940EAC100AA490839086037E048
:10287000E06800B30120A8490860FEF709FE05469C
:1028800006E0FEF705FE401B022801D9032047E7BA
:10289000A04808380068C0F340000028F1D09D48E7
:1028A0000838006820F0F800216940EAC100994921
:1028B0000839086014E0002097490860FEF7E8FD39
:1028C000054606E0FEF7E4FD401B022801D903207F
:1028D00026E7904808380068C0F340000028F1D18E
:1028E000207800F0080008282CD16069A8B10120E8
:1028F0008A490860FEF7CCFD054606E0FEF7C8FDF4
:10290000401B022801D903200AE782486C30006886
:10291000C0F340000028F1D014E000207F49086097
:10292000FEF7B6FD054606E0FEF7B2FD401B0228A5
:1029300001D90320F4E677486C300068C0F340000A
:102940000028F1D1207800F00400042870D100277D
:1029500070483830006800F0805090B900BF002007
:1029600000906C483830006840F080506949383138
:1029700008600846006800F08050009000BF00BF6B
:1029800001276748006800F48070B0B964480068A7
:1029900040F4807062490860FEF77AFD054606E063
:1029A000FEF776FD401B022801D90320B8E65C48FB
:1029B000006800F480700028F2D000BFA0680128F1
:1029C00008D154486830006840F00100514968312E
:1029D00008601DE0A06805280DD14E4868300068E9
:1029E00040F004004B49683108600846006840F038
:1029F000010008600CE047486830006820F00100E2
:102A00004449683108600846006820F00400086006
:102A100000BFA068A8B1FEF73BFD054609E0FEF740
:102A200037FD401B41F28831884202D9032077E606
:102A300026E0384868300068C0F340000028EED037
:102A400013E0FEF725FD054608E0FEF721FD401BDB
:102A500041F28831884201D9032061E62D4868306F
:102A60000068C0F340000028EFD1012F07D12948AA
:102A70003830006820F0805026493831086000BFA7
:102A8000A069002845D02348006800F00C00082801
:102A90005DD0A069022845D100201F490866FEF7D5
:102AA000F7FC054606E0FEF7F3FC401B022801D9BF
:102AB000032035E6174808380068C0F34060002856
:102AC000F1D1D4E907010843616A40EA811101228A
:102AD000A06AC2EB500041EA00412C20005D41EAAF
:102AE00000600C49091F086001200B490866FEF7C9
:102AF000CFFC054606E0FEF7CBFC401B022801D9BF
:102B000003200DE6034808380068C0F34060002841
:102B1000F1D049E00838024000004742800E4742A9
:102B200000700040002021490866FEF7B1FC054610
:102B300006E0FEF7ADFC401B022801D90320EFE5BB
:102B40001B480068C0F340600028F2D12CE0A06967
:102B5000012800D1E4E51648001D0668A069012897
:102B600020D006F48001E06981421BD106F03F01CC
:102B7000206A814216D147F6C0703040616AB0EBDE
:102B8000811F0FD106F440310122A06AC2EB500030
:102B9000B1EB004F06D106F070612C20005DB1EB67
:102BA000006F01D00120BBE50020B9E500004742DD
:102BB00000380240704702460023106800F15003BD
:102BC00003EB81031868704710B50023046804F113
:102BD000500303EB81031A6010BD704710B5044623
:102BE0002068C068C0F3802050B12046FFF7F5FF91
:102BF0002068C06800F0800060F490602168C860C0
:102C00004FF48000024908600120607710BD000089
:102C1000143C014010B5044601A0FDF72BFC10BD8B
:102C2000414C41524D2041210D0A000010B504468F
:102C300020688068C0F3003078B12068C068C0F3B5
:102C4000002050B12046FFF7E5FF2068C06800F083
:102C5000800060F4C0702168C86020688068C0F39C
:102C6000403078B12068C068C0F3402050B12046A1
:102C7000FFF7A0FF2068C06800F0800060F42070BB
:102C80002168C8604FF40030024908600120607775
:102C900010BD0000143C014070B505460B461646B9
:102CA0000024286840680E4900EA0104200CD8700E
:102CB000C4F30420587004F03F009870C4F342300D
:102CC00018705EB9D87801F009FBD870587801F017
:102CD00005FB5870987801F001FB9870002070BDDA
:102CE0003FFFFF0070B504460B46164600252068DE
:102CF000806A586020680069C0F30E009860206800
:102D000000680F4900EA0105C5F305401870C5F3D6
:102D10000620587005F07F00987005F48000000CC4
:102D2000D8705EB9187801F0D9FA1870587801F0A7
:102D3000D5FA5870987801F0D1FA9870002070BDDB
:102D40007F7F7F0010B504460CB9012010BD607F65
:102D500020B900202077204600F060F8022060773C
:102D600000BFCA202168486253202168486200BF22
:102D7000204601F0CBFA40B100BFFF202168486235
:102D800000BF042060770120E0E7206880682249C6
:102D900008402168886021696068084361690843C8
:102DA000216889680843216888602168E0680861B3
:102DB00020680169208941EA004021680861206893
:102DC000C06820F080002168C8602068806800F03A
:102DD000200060B9204600F09DF940B100BFFF20FF
:102DE0002168486200BF042060770120AEE72068B8
:102DF000006C20F48020216808642068006CA169C0
:102E000008432168086400BFFF202168486200BFB2
:102E100001206077002099E7BFFF8FFF30B591B0A8
:102E20000546C82401202D490860FFF757FA00BF66
:102E3000002000902A48006840F08050284908602F
:102E40000846006800F08050009000BF00BF0120DD
:102E50002249086022483030006840F001002049D3
:102E60003031086004E0601E84B2052008F082FE64
:102E700034B11B483030006800F002000028F2D066
:102E8000ACB90820059001200A9000200B9005A8FD
:102E9000FFF742FC022001900002049001A8FFF716
:102EA0002BFA45F25101002031F0A6FB14E004207A
:102EB000059000200B900120079005A8FFF72CFC3F
:102EC00002200190C001049001A8FFF715FA45F215
:102ED0005001002031F090FB11B030BD3C0E474254
:102EE000403802402DE9F04104460D4616460027C1
:102EF00000BF207F012802D10220BDE8F08101201F
:102F0000207700BF022060774EB9687800F010008B
:102F1000102804D1687800F0EF000A30687086B994
:102F2000E87801F0E6F90304687801F0E2F943EA91
:102F30000023A87801F0DDF90343287843EA4037FD
:102F400009E0E8780004697840EA0120A97808439C
:102F5000297840EA413700BFCA20216848625320DF
:102F60002168486200BF204601F0D0F960B100BF7F
:102F7000FF202168486200BF0420607700BF002066
:102F8000207700BF0120B8E7164838402168486024
:102F90002068C06820F080002168C86020688068D0
:102FA00000F0200080B9204600F0B4F860B100BF06
:102FB000FF202168486200BF0420607700BF002026
:102FC000207700BF012098E700BFFF2021684862FA
:102FD00000BF0120607700BF0020207700BF00BF46
:102FE0008BE700003FFFFF002DE9F04104460D464E
:102FF0001646002700BF207F012802D10220BDE82D
:10300000F0810120207700BF02206077CEB92068D0
:10301000806800F0400000B102E00020E87000BFCE
:10302000287801F066F90304687801F062F943EA50
:103030000023A87801F05DF90343E87843EA0047EC
:1030400012E02068806800F0400000B102E000203B
:10305000E87000BF28780004697840EA0120A97868
:103060000843E97840EA014700BFCA202168486266
:1030700053202168486200BF204601F047F960B143
:1030800000BFFF202168486200BF0420607700BFB6
:103090000020207700BF0120B1E71D48384021689B
:1030A00008602068806820F4802021688860D5E965
:1030B0000301084321688968084321688860206803
:1030C000C06820F080002168C8602068806800F037
:1030D000200080B9204600F01DF860B100BFFF203D
:1030E0002168486200BF0420607700BF002020777D
:1030F00000BF012083E700BFFF202168486200BFB6
:103100000120607700BF0020207700BF00BF76E776
:103110007F7F7F0070B5044600252068C06820F0DE
:10312000A0002168C860FEF7B3F9054607E0FEF786
:10313000AFF9401BB0F57A7F01D9032070BD20683C
:10314000C06800F020000028F1D00020F6E770B53C
:1031500004460E4615460CB9012070BD94F849008E
:1031600028B9002084F84800204600F01DF804F13A
:1031700008012068FDF766FF3146A2682068FDF768
:103180008FFF2946236BD4E90102FDF737FFA168C1
:10319000206850F8210040F00100A268216841F841
:1031A00022000020D9E7000010B586B0044600BF19
:1031B000002000902248006840F00100204908608B
:1031C0000846006800F00100009000BF00BF00BF8B
:1031D000002000901A480838006840F0080018499C
:1031E000083908600846006800F00800009000BF39
:1031F00000BF00BF002000900846006840F01000AB
:1032000008600846006800F01000009000BF00BF92
:103210004CF20370019002200290012003900220E2
:1032200004900C20059001A90648FEF711F84FF60E
:103230008070019001A90448FEF70AF806B010BD9D
:1032400038380240000C024000100240042808D127
:103250004FF0E021096941F004014FF0E0221161D3
:1032600007E04FF0E021096921F004014FF0E0226E
:103270001161704770B504462546681EB0F1807F25
:1032800001D301200FE0681E4FF0E02148610F21BB
:103290004FF0FF3003F0DCFB00204FF0E0218861AD
:1032A00007200861002070BD7047704710B50446C4
:1032B0000021184800F010F91749088008460088D6
:1032C00016490968401A1649164A127841F8220030
:1032D000114800881149086012480078401C1149C3
:1032E000087008460078552805DD00200870012088
:1032F0000D4908700CE00B480078401E084951F851
:10330000200028B9002007490870012006490870EC
:1033100010BD0000A4090020560000205C00002021
:10332000EC090020540000205800002010B504468D
:1033300020680069C0F34000D8B12068C068C0F3BD
:103340004000B0B16FF002002168086101202077D1
:103350002068806900F0030018B12046FFF7A6FF3F
:1033600005E0204600F0ADF8204600F0ABF8002064
:10337000207720680069C0F38000D8B12068C06859
:10338000C0F38000B0B16FF0040021680861022032
:1033900020772068806900F4407018B12046FFF75C
:1033A00085FF05E0204600F08CF8204600F08AF802
:1033B0000020207720680069C0F3C000D8B12068E1
:1033C000C068C0F3C000B0B16FF0080021680861A8
:1033D000042020772068C06900F0030018B120465F
:1033E000FFF764FF05E0204600F06BF8204600F090
:1033F00069F80020207720680069C0F30010D8B178
:103400002068C068C0F30010B0B16FF010002168F0
:103410000861082020772068C06900F4407018B166
:103420002046FFF743FF05E0204600F04AF820461B
:1034300000F048F8002020772068006900F00100C3
:1034400058B12068C06800F0010030B16FF0010091
:1034500021680861204600F037F820680069C0F351
:10346000C01058B12068C068C0F3C01030B16FF010
:103470008000216808612046FFF716FF2068006978
:10348000C0F3801058B12068C068C0F3801030B11C
:103490006FF0400021680861204600F036F820688F
:1034A0000069C0F3401058B12068C068C0F34010F4
:1034B00030B16FF02000216808612046FFF7F5FE6B
:1034C00010BD704770470000024A0168914200D069
:1034D00000BF7047001000400246002031B10429AF
:1034E00007D0082908D00C290CD108E01368586BC4
:1034F00009E01368986B06E01368D86B03E0136863
:10350000186C00E000BF00BF7047704770477047FD
:103510002DE9F84F0446206805682068C6682068D1
:1035200047694FF00009CA4605F00F09B9F1000FCD
:103530000AD105F0200038B106F0200020B1204665
:1035400000F07FFFBDE8F88FB9F1000F72D007F0EF
:10355000010018B906F4907000286BD005F0010046
:1035600030B106F4807018B1206C40F00100206486
:1035700005F0040030B107F0010018B1206C40F0F4
:103580000200206405F0020030B107F0010018B11C
:10359000206C40F00400206405F0080048B106F0FB
:1035A000200010B907F0010018B1206C40F00800AD
:1035B0002064206C70B305F0200028B106F02000D4
:1035C00010B1204600F03DFF20684069C0F3801A2A
:1035D000206C00F0080010B9BAF1000F23D020468B
:1035E00000F004FF2068406900F04000402816D138
:1035F0002068406920F0400021684861A06B50B10C
:103600005648A16B0865A06BFDF7F9FD10B1A06BE2
:10361000016D88470CE02046FFF779FF08E020465F
:10362000FFF775FF04E02046FFF771FF00202064DC
:1036300088E7FFE7206B012879D105F0100000280A
:1036400075D006F01000002871D000BF0020009057
:1036500020680068009020684068009000BF00BFAC
:103660002068406900F04000402839D1A06B006814
:1036700040681FFA80F8B8F1000F30D0A08D4045A7
:103680002DDDA4F82E80A06BC069B0F5807F1FD01F
:103690002068C06820F480702168C8602068406994
:1036A00020F00100216848612068406920F0400056
:1036B00021684861202084F83E00002020632068B3
:1036C000C06820F010002168C860A06BFDF742FDC3
:1036D000A08DE28D801A81B22046FFF717FF31E7F7
:1036E000A08DE18D401A1FFA80F8E08DE8B1B8F1A5
:1036F000000F1AD02068C06820F490702168C8605C
:103700002068406920F0010021684861202084F889
:103710003E00002020632068C06820F0100021686F
:10372000C86041462046FFF7F1FE0BE7FFE705F0D2
:10373000800030B106F0800018B1204601F019F881
:1037400000E705F0400030B106F0400018B1204617
:1037500000F067FEF6E600BFF4E60000D94300087B
:1037600010B504460CB9012010BDA06900B100E0FD
:1037700000BF94F83D0028B9002084F83C002046A2
:1037800000F028F8242084F83D002068C06820F468
:1037900000502168C860204600F0B2FE2068006931
:1037A00020F49040216808612068406920F02A00D8
:1037B000216848612068C06840F400502168C860F2
:1037C00000202064202084F83D0084F83E00002082
:1037D000CAE7000010B586B004462E49206888422A
:1037E00055D100BF00BF002000902B48006840F07A
:1037F0001000294908600846006800F01000009099
:1038000000BF00BF00BF00BF00BF002000902248E3
:103810001438006840F001001F4914390860084658
:10382000006800F00100009000BF00BF00BF00BFB3
:1038300000BF002000900846006840F001000860CA
:103840000846006800F00100009000BF00BF00BF04
:10385000481501900220029001200390022004905C
:103860000720059001A90D48FDF7F2FC4FF4806098
:1038700001900720059001A90848FDF7E9FC2520E3
:10388000FDF757FE032211462520FDF762FE06B024
:1038900010BD00000010014044380240000002400A
:1038A00070B504460D46164694F83E00202816D101
:1038B00005B10EB9012070BD00BF94F83C0001288D
:1038C00001D10220F7E7012084F83C0000BF00206E
:1038D000206332462946204600F028FFEBE702200D
:1038E000E9E7000010B504462049206888423BD132
:1038F0001F48008800F4004088BB1D48008800F481
:10390000804070B11B4800780A2803D00020184975
:10391000088024E01648008840F4004014490880DC
:103920001DE0144800780D2806D11148008840F4A5
:1039300080400F49088012E00E4800780C49098841
:10394000C1F30D010C4A505409480088401C084935
:10395000088008460088C72801DD00200880012271
:1039600004490648FFF79CFF10BD0000001001400D
:10397000680000206A000020400B0020080C002096
:103980007047000001203149087000BF1CF086FA22
:1039900005461CF0DFFA044625F02CFB2C49086094
:1039A0001CF07CFA06461CF0F7FA04461CF076FA86
:1039B00006461CF08BFA0546224629462448006834
:1039C00029F08BFC224800252E4604683246294601
:1039D000204629F072FE32462946204629F07AFE1A
:1039E00032462946204629F082FE324629462046A4
:1039F00029F056FE00BF002211461548006829F044
:103A0000B2FD00224FF4FA7112482DF0FFFB12496B
:103A1000086000F009FA18E00C48C07880B10E4840
:103A200000682DF01DFCFDF775F900200749C870EE
:103A300000224FF4FA7107482DF0E8FB06490860B0
:103A40002DF052FC052035F017FDE5E7A803002016
:103A5000CC030020B9840308B403002000BFFEE7B4
:103A6000F0B58BB0064630461FF085FE074630465F
:103A70001FF0F2FE054624480068854241D13046D9
:103A80001FF09DFE0446606B002839D101A81DF08F
:103A900027F900221146FF201BF060FC0090BDF8C2
:103AA0000000ADF810001948019009A9284625F03A
:103AB000C9FF0020009016A309AA01A920681CF0E4
:103AC0005BFDBDF82400643000B2ADF82400BDF801
:103AD0002800643000B2ADF828000022FF21104613
:103AE0001BF03CFC0090BDF80000ADF81000002079
:103AF000009009A309AA01A920681CF03DFD00BFA0
:103B000000BF0BB0F0BD00008004002018DB0308EC
:103B10002D54454D500000002D48554D49000000E2
:103B200030B50B46002100BF16E00A24B4EB107F2D
:103B300005D9302404EB107403F8114005E041244A
:103B400004EB10740A3C03F81140000100254C00FE
:103B5000641C1D554C1CE1B29142E6DB30BD0000F7
:103B60001CB50548042100238022CDE9001003A1E3
:103B7000054836F059FA1CBD280100204B45595F15
:103B80007461736B000000008D3B00081AE0002098
:103B900014F0FEFB012804D0022806D004280CD122
:103BA00007E000200849087008E001200649087075
:103BB00004E002200449087000E000BF00BFC820F4
:103BC00035F05AFCE3E700002C0100201CB5054845
:103BD000042100238022CDE9001003A1054836F01E
:103BE00023FA1CBD140100206C65645F7461736B63
:103BF00000000000FDB8010870B504460D46002223
:103C000029462046FDF738FC70BD70B504460D46C8
:103C1000012229462046FDF72FFC70BD70B50446F1
:103C20000D4629462046FDF71DFC70BD1CB5064813
:103C3000032100234FF48062CDE9001003A1064860
:103C400036F0F2F91CBD0000180100206C76676C9C
:103C50005F7461736B000000951E03081FB5664812
:103C600000681AF02FFB6549086005222821634887
:103C7000006829F0E0FAB4224FF48C715F480068C4
:103C800029F02BFB01215D4800681AF048FE142042
:103C9000012105220A23CDE90032CDE902101346A5
:103CA0000A220221554800681AF052FD32200121F3
:103CB00005220623CDE90032CDE9021013460A227F
:103CC00000214E4800681AF043FD6423002211468B
:103CD0004A4800681AF0E9FD1423002202214748EF
:103CE00000681AF0E2FD3221444800681AF09CFD99
:103CF00014220A21414800681AF052FD002240496E
:103D00003E48006829F00DFD00224C213B48006828
:103D100029F0A0FC4FF47F001BF0D3F900220146EC
:103D20000390364800681AF020FA364908604FF4CC
:103D30007F401BF0C6F90022014603902F4800681F
:103D40001AF013FA304908602B48006819F0FEFA9F
:103D50002E490860D22205212C48006829F06BFA10
:103D60001E2228212948006829F0B7FAFF22802165
:103D700064201BF0F3FA00220146039023480068F8
:103D800029F0D4FB2148006822F054F9044620A110
:103D9000204623F057F900231A460921204624F033
:103DA000F5FB00221C49204629F0BBFC12480068A4
:103DB00022F040F919490860D222642117480068AE
:103DC00029F039FA1922C8211448006829F085FA27
:103DD00010A11248006823F035F900231A22104977
:103DE0000E48006824F0DCFA002308220D49074839
:103DF000006824F0D5FA1FBD680400206C04002080
:103E0000C0650408780400207C04002070040020B1
:103E10004241434B00000000684C0408800400202D
:103E2000613A0008B9A1000838B56548006819F082
:103E30008DFA64490860C3220A216248006829F0AB
:103E4000FAF9282244215F48006829F046FAFF2247
:103E5000802164201BF06AFA002201460090594834
:103E6000006829F063FB5748006822F0E3F8044635
:103E700055A1204623F0E6F800231A4609212046E2
:103E800024F084FB00225249204629F04AFC4C4889
:103E9000006819F05BFA4F490860C32257214D486A
:103EA000006829F0C8F9282244214A48006829F00E
:103EB00014FAFF22802164201BF038FA0022014608
:103EC00000904448006829F031FB3D48006819F033
:103ED0003DFA41490860C322A5213F48006829F006
:103EE000AAF9282244213C48006829F0F6F9FF226B
:103EF000802164201BF01AFA002201460090364807
:103F0000006829F013FB2E48006819F01FFA3349A6
:103F10000860C322F3213148006829F08CF9282277
:103F200044212E48006829F0D8F9FF22802164201E
:103F30001BF0FCF90022014600902848006829F097
:103F4000F5FA1F48006822F075F82549086000233B
:103F50001A4602212248006824F018FB0022214959
:103F60001F48006829F0DDFB1FA11D48006823F0F1
:103F700069F8002308221D491248006824F010FA4D
:103F80000023082219491348006824F009FA002385
:103F9000082216491048006824F002FA002308227B
:103FA00012490E48006824F0FBF900202AF04CF872
:103FB000002308220D490348006824F0F1F938BDB8
:103FC000CC030020BC03002043555256450000009E
:103FD000C0650408C0030020C4030020C8030020FB
:103FE000AC030020843E04080000000071A100081A
:103FF00000BFFEE77047000010B50248FDF7D6FC91
:1040000010BD0000A8DA01202DE9F04704460D4656
:1040100026683746D6F8408007F5306000EB45103B
:10402000D0F80890104880450BD909F40040B0F54D
:10403000004F06D14FF4004107F5306000EB45100A
:1040400081602046FEF7FEF80748804508D92069C0
:10405000012805D104F571720121206802F016F9DA
:104060000020BDE8F08700000A30544F2DE9F047EA
:1040700005460C46D5F800804646D8F8409006F52F
:10408000306000EB441087682869012873D107F07D
:10409000080008280FD1524881450BD907F4004089
:1040A000B0F5004F06D14FF4004106F5306000EB4B
:1040B0004410816091E007F02000202806D12021E3
:1040C00006F5306000EB4410816086E007F02800C0
:1040D00000280ED1424881450CD907F40040B0F5C4
:1040E000004F07D14FF4004106F5306000EB44105B
:1040F000816072E0C4EBC40105F5FE7000EB810045
:10410000816806F5306000EB44100069C0F31200CE
:10411000091AC4EBC40205F5FE7000EB8200816150
:10412000C4EBC40105F5FE7000EB8100C4EBC402D2
:10413000C16805F5FE7000EB820080680144C4EBA5
:10414000C40205F5FE7000EB8200C1606CB9C4EBDF
:10415000C40105F5FE7000EB8100406928B905F542
:1041600071720121286802F091F8E1B22846FDF74A
:104170008DFA32E0FFE71B4881451BD107F4004070
:10418000B0F5004F07D14FF4004106F5306000EB69
:104190004410816021E007F02000202805D1202173
:1041A00006F5306000EB44108160E1B22846FDF76F
:1041B0006DFA12E06CB9C4EBC40105F5FE7000EBBA
:1041C0008100406928B905F571720021286802F064
:1041D0005DF8E1B22846FDF759FA0020BDE8F08706
:1041E0000A30544F0A31544F2DE9F84F07460E4616
:1041F000D7F80090C846C6EBC60107F13C0000EBBB
:104200008104D4E90510884202D90120BDE8F88F65
:10421000D4E90501451AA068A84200D2A568E81CA7
:104220004FEA900A17E0D4E90501451AA068A842B0
:1042300000D2A568E81C4FEA900A387CABB2F2B213
:1042400000904846E16802F0DBFBE0682844E0604B
:10425000A0692844A06108F5106000EB4610806951
:1042600080B2504506D3D4E90510884202D2606975
:104270000028D8D1D4E9050188420ED806F00F01F4
:10428000012000FA01FB40F6340050F8080020EA53
:104290000B0040F6340141F808000020B6E70000AA
:1042A0001CB50548042100238022CDE9001003A19C
:1042B000054835F0B9FE1CBD1C0100205254435F77
:1042C0007461736B000000005D43000810B5024884
:1042D000FEF7ACFC10BD000084090020014600BFC1
:1042E000080900EB8000420001F00F001044C0B24A
:1042F00070470146002203E0521CA1F10A00C1B23E
:104300000A29F9D2100741EA1060704770B50446D7
:1043100000252068C06800F04000A0B9681E216830
:10432000C860FDF7B5F8054607E0FDF7B1F8401B9A
:10433000B0F57A7F01D9032070BD2068C06800F015
:1043400040000028F1D00020F6E7000010B5024838
:10435000FEF744FC10BD00008409002000BF09E006
:10436000054830F0ABF8044830F094F84FF4FA7098
:1043700035F082F8F4E700002001002030B5014656
:104380000A461378521C147843EA042030BD10B555
:10439000FDF784F835F078FE012801D035F03EFCB9
:1043A00010BD00000348006840F470000149086037
:1043B0007047000088ED00E010B50248FEF7B6FF38
:1043C00010BD0000A409002010B50248FEF7AEFFA2
:1043D00010BD00003C09002070B50546AC6B002004
:1043E000E085E0842046FFF792F870BD0168C96857
:1043F00021F490710268D1600168496921F00101DE
:1044000002685161016B012905D10168C96821F079
:1044100010010268D160202180F83E100021016364
:10442000704710B504462068C06820F0400021683D
:10443000C860202084F83D002046FFF7A1FA002044
:1044400010BD70B5044694F83E00222856D1A068ED
:10445000B0F5805F0CD1206950B90025A66A2068AC
:104460004068C0F308003080A06A801CA06215E09C
:10447000A56A0026A068B0F5805F03D0A06828B9BF
:10448000206918B920684068287004E020684068F6
:1044900000F07F002870A06A401CA062E08D401EE2
:1044A00080B2E08540BB2068C06820F02000216811
:1044B000C8602068C06820F480702168C8602068E7
:1044C000406920F0010021684861202084F83E0006
:1044D000206B01280AD12068C06820F010002168F4
:1044E000C860A18D2046FFF711F802E02046FFF7D3
:1044F000F9F90020206370BD0020FCE70220FAE7F4
:104500002DE9F84F04462068006920F44050E16826
:104510000843216808612169A0680843616908436C
:10452000E169084300902068C06849F20C61884343
:10453000009908432168C8602068406920F44070F1
:10454000A16908432168486176492068884203D000
:1045500075492068884203D1FEF776F8814602E06B
:10456000FEF762F88146E069B0F5004F6CD1022099
:104570006168A0FB015003461920A9FB00700146A9
:104580002A463846FBF7FFFE6421B0FBF1F04FEA04
:10459000001A02206168A0FB01510B461920A9FBFB
:1045A00000712A463846FBF7EEFE8346022061681A
:1045B000A0FB015003461920A9FB00712A4638468A
:1045C000FBF7E1FE6421B0FBF1F000EBC00101EB71
:1045D0000010ABEB8000322101EBC0006421B0FB86
:1045E000F1F000F0F8000AEB400A02206168A0FB3D
:1045F000015003461920A9FB007001462A4638469F
:10460000FBF7C1FE834602206168A0FB0150034610
:104610001920A9FB00712A463846FBF7B4FE642135
:10462000B0FBF1F000EBC00101EB0010ABEB800040
:10463000322101EBC0006421B0FBF1F000F0070073
:104640005044216888606AE004206168A0FB015042
:1046500003461920A9FB007001462A463846FBF79D
:1046600092FE824604206168A0FB01500346192097
:10467000A9FB007001462A463846FBF784FE6421F8
:10468000B0FBF1F000EBC00101EB0010AAEB8000E1
:10469000322101EB00106421B0FBF1F000F0F00AD0
:1046A00004206168A0FB017003461920A9FB00519A
:1046B0003A462846FBF767FE6421B0FBF1F00AEBAF
:1046C000001A04206168A0FB01510B461920A9FBC8
:1046D00000712A463846FBF756FE8346042061687F
:1046E000A0FB015003461920A9FB007001462A4691
:1046F0003846FBF748FE6421B0FBF1F000EBC00147
:1047000001EB0010ABEB8000322101EB00106421C3
:10471000B0FBF1F000F00F00504421688860BDE864
:10472000F88F0000001001400014014010B503464E
:1047300099629A85DA8500201864222083F83E0069
:1047400000BF002083F83C0000BF1868C06840F438
:1047500080701C68E0601868406940F001001C68C7
:1047600060611868C06840F020001C68E0600020AC
:1047700010BD014691F83D00212828D18868B0F588
:10478000805F0BD1086948B90A6A1088C0F3080035
:104790000B685860086A801C086205E00B6A581CA8
:1047A000086218780B685860C88C401E80B2C884B4
:1047B00058B90868C06820F080000B68D8600868A5
:1047C000C06840F040000B68D860002070470220AD
:1047D000FCE7000010B50248FEF79AFE10BD00008D
:1047E000080C00202DE9F04104460D46D4F8C472AF
:1047F000D4F8BC0210B90320BDE8F081D4F8BC6243
:1048000005EB850104F1140000EB8100406808B35A
:1048100005EB850104F1140000EB8100C5EBC50236
:10482000416807F13C0000EB82008068B1FBF0F2C8
:1048300000FB121070B9002105EB850204F1140091
:1048400000EB8200416000231A462946204600F012
:1048500030FE0FE00020C6F81402D4F8C002006950
:1048600040B1D6F80802D4F8C0122A460B6906F502
:10487000047198470020BFE770B504460E46D4F88F
:10488000BC52D4F8BC0208B9032070BD31462046A2
:1048900000F0A8FCC5F80C02D5F80402D4F8C01248
:1048A000CA6805F5037190470020EEE770B504462D
:1048B0000D468121204600F0C0FB00212187012107
:1048C000204600F0BAFB0021A4F87811822120468E
:1048D00000F0B3FB0021A4F84C10A4F84E10D4F85B
:1048E000BC0258B1D4F8C012486880470020D4F800
:1048F000BC122EF05FF80020C4F8BC02002070BD8E
:1049000070B50546D5F8BC420CB9032070BDD5F88A
:10491000C00278B194F80002FF280BD094F801226D
:1049200094F80002D5F8C0128B6821469847FF2002
:1049300084F800020020E9E701460A2008800148C7
:1049400070470000FC040020014643200880014815
:10495000704700008405002001464320088001487C
:1049600070470000400500200146432008800148B0
:1049700070470000C805002070B504460E464FF48D
:10498000077100202EF028F8054625B90020C4F84C
:10499000BC02022070BDC4F8BC52207CA0B94FF408
:1049A000007302228121204600F0A0FC0121218712
:1049B0004B020222204600F099FC0121A4F8781154
:1049C0001021A4F84E1012E040230222812120463B
:1049D00000F08CFC0121218740230222204600F0B8
:1049E00085FC0121A4F878111021A4F84E100823A9
:1049F00003228221204600F079FC0121A4F84C100A
:104A0000D4F8C012086880470020C5F81402C5F821
:104A10001802207C40B94FF4007301212046D5F8DC
:104A2000042200F073FC06E0402301212046D5F863
:104A3000042200F06BFC0020ACE770B50446D4F80B
:104A4000BC52D4F8BC0208B9032070BD207C40B928
:104A50004FF4007301212046D5F8042200F056FCE3
:104A600006E0402301212046D5F8042200F04EFC48
:104A70000020EAE7024609B903207047C2F8C012D5
:104A80000020FAE702460B46D2F8BC1209B903200F
:104A90007047C1F804320020FAE72DE9FC410546D1
:104AA0000C46D5F8BC62002001900090804616B9F3
:104AB0000320BDE8FC81207800F0600078B3202856
:104AC0006FD1E08818B3207800F0800098B1E288B8
:104AD0006078D5F8C0128B6831469847E08807287F
:104AE00001D9072000E0E08807463A4631462846CB
:104AF00000F0D3F812E0607886F80002A07986F81A
:104B00000102E2883146284600F0A6F806E0607807
:104B1000D5F8C01200228B682146984748E0FFE78D
:104B2000607830B1012831D00A2813D00B282ED15B
:104B300021E095F89C02032805D102226946284607
:104B400000F0ABF805E02146284600F079F84FF078
:104B5000030823E095F89C02032805D1012201A94E
:104B6000284600F09AF805E02146284600F068F84B
:104B70004FF0030812E095F89C02032805D0214667
:104B8000284600F05DF84FF0030807E006E02146F4
:104B9000284600F055F84FF0030800BF00BF07E0BB
:104BA000FFE72146284600F04BF84FF0030800BF0E
:104BB00000BF40467DE770B504460D46D4F8B80204
:104BC00028B1D4F8B8022946426820469047002010
:104BD00070BD70B504460D4694F89C02012804D0BF
:104BE000022803D003280CD101E000BF00BF688871
:104BF000012805D10020C4F8A402204600F05EF888
:104C000004E02946204600F01BF800BF00BF70BD3D
:104C100070B506460C4615462B4622460021304606
:104C200000F074FB002070BD70B506460C461546BA
:104C30002B4622460021304600F03BFC002070BD90
:104C400070B504460D468021204600F016FC002178
:104C5000204600F012FC70BD70B504460E461546A5
:104C60000320C4F894024FF4AC700551001D0551A7
:104C70002B4632460021204600F048FB002070BD44
:104C800010B504460520C4F8940200231A461946BC
:104C9000204600F03BFB002010BD70B504460E46D8
:104CA00015460220C4F89402A561E5612B46324600
:104CB0000021204600F0FDFB002070BD10B5044629
:104CC0000420C4F8940200231A461946204600F036
:104CD000F0FB002010BD70B504460D46E8880128A1
:104CE00004D029462046FFF7ABFF1EE094F89C0253
:104CF000012804D0022803D0032810D109E000BF06
:104D00000020A060012204F108012046FFF7C5FF42
:104D10000AE00122211D2046FFF7BFFF04E02946DB
:104D20002046FFF78DFF00BF00BF70BDF8B50446F9
:104D30000E460020009000270025708800120828E9
:104D400075D2DFE800F0C7040C20C7C7A5B5207CEA
:104D5000D4F8B4120A68694690470746C1E0207C3F
:104D600040B9D4F8B802816A6846884707460220ED
:104D7000787007E0D4F8B802C16A684688470746E9
:104D800002207870ADE0B078062878D2DFE800F035
:104D90000316293C5063D4F8B402406838B1207C33
:104DA000D4F8B4124A6869469047074605E0314690
:104DB0002046FFF745FF681CC5B267E0D4F8B4028F
:104DC000806838B1207CD4F8B4128A68694690476C
:104DD000074605E031462046FFF732FF681CC5B2A2
:104DE00054E0D4F8B402C06838B1207CD4F8B412CE
:104DF000CA6869469047074605E031462046FFF7F6
:104E00001FFF681CC5B241E0D4F8B402006938B194
:104E1000207CD4F8B4120A6969469047074605E039
:104E200031462046FFF70CFF681CC5B22EE051E06A
:104E3000D4F8B402406938B1207CD4F8B4124A697D
:104E400069469047074605E031462046FFF7F8FEE1
:104E5000681CC5B21AE0D4F8B402806940B1207C65
:104E6000D4F8B4128A6969469047074606E006E01E
:104E700031462046FFF7E4FE681CC5B206E0314625
:104E80002046FFF7DDFE681CC5B200BF00BF28E06A
:104E9000207C30B9D4F8B802416B68468847074691
:104EA00005E031462046FFF7CBFE681CC5B218E08E
:104EB000207C40B9D4F8B802016B684688470746A1
:104EC0000720787005E031462046FFF7B9FE681CE0
:104ED000C5B206E031462046FFF7B2FE681CC5B2F7
:104EE00000BF00BF05B1F8BDF088C0B1BDF800003B
:104EF00080B1F088BDF80010884202DDBDF80000E6
:104F000000E0F0880090BDF8002039462046FFF709
:104F1000C4FE07E031462046FFF792FE02E020463D
:104F2000FFF7CCFE00BFDEE7014600200A4602E0A4
:104F3000431CD8B2521C1378002BF9D1704770B5BE
:104F400004460D4694F89C02012804D0022803D0A0
:104F500003281AD101E000BF00BFE888022804D06E
:104F600029462046FFF76CFE14E00120E060D4F8EB
:104F7000A40218B1E06840F00200E060022204F1EF
:104F80000C012046FFF789FE04E029462046FFF782
:104F900057FE00BF00BF70BD2DE9F04107460D462A
:104FA000904600240FB9BDE8F0813E463046FFF739
:104FB000BBFF022101EB4000A8F8000098F80000B8
:104FC0002855601CC4B203202855601CC4B208E0F8
:104FD00030782855761C601CC4B200202855601C0F
:104FE000C4B230780028F3D100BFDCE72DE9F041EE
:104FF00004460D46164614B90320BDE8F081002092
:10500000C4F8B802C4F8C002C4F8CC020DB1C4F8A8
:10501000B452012084F89C022670204600F0ECF87F
:1050200007463846E9E770B504460D462946D4F8E8
:10503000C402FCF78EFB002070BD70B504460D461F
:105040002946D4F8C402FCF74FFB002070BD2DE9BF
:10505000F04104460F469046002F54D104F1140548
:10506000D4F89402022843D1D5E9020188420FD92D
:10507000D5E90201401AA86041462046AA68FFF718
:10508000D3FD00231A461946204600F03FF92FE0D1
:10509000D5E90210884217D1E9686868884213D3BD
:1050A0006868D4F8981288420ED200221146204631
:1050B000FFF7BAFD0020C4F8980200231A461946EB
:1050C000204600F023F913E094F89C02032808D14D
:1050D000D4F8B802C06820B1D4F8B802C16820463C
:1050E00088478021204600F0C8F92046FFF7C8FD18
:1050F00094F8A002012819D1204600F01CFA0020E3
:1051000084F8A00212E094F89C0203280ED1D4F88F
:10511000B802406950B1D4F8B80239464269204615
:105120009047064616B13046BDE8F0810020FBE707
:105130002DE9F04105460F4690465FBB05F5AA7480
:10514000D5F89402032838D1D4E90201884210D955
:10515000D4E90201401AA060D4E90201884201D2D8
:10516000A06800E0E068024641462846FFF750FD8F
:1051700023E095F89C02032808D1D5F8B80200690D
:1051800020B1D5F8B8020169284688472846FFF7BC
:1051900095FD12E095F89C0203280ED1D5F8B802CF
:1051A000806950B1D5F8B8023946826928469047DF
:1051B000064616B13046BDE8F0810020FBE7014607
:1051C0000020704710B50446012084F89C02D4F8F2
:1051D000B80228B12179D4F8B80242682046904735
:1051E000002010BD70B504460D462946D4F8C4020F
:1051F000FCF7EDFA70BD000010B504464FF0A0407A
:1052000013490860042048600021114801630161CE
:105210000162022181610021C1610221C16000217E
:10522000C162C0F80444C4F8C402FCF77FFE8021C8
:105230000748FCF7E2F9402200210548FCF7E2F9B3
:10524000802201210248FCF7DDF9002010BD00009A
:10525000A8DA012010B50246D2F8C43201F080006D
:10526000802809D101F07F00C0EBC00403F13C00AD
:1052700000EB8400807810BD01F07F00C0EBC0041B
:1052800003F5FE7000EB84008078F4E770B5044607
:105290000D46D4F8B80208B9032070BD94F89C02FA
:1052A000032809D1D4F8B802006A28B1D4F8B802AA
:1052B0002946026A204690470020EEE770B5044672
:1052C0000D46D4F8B80208B9032070BD94F89C02CA
:1052D000032809D1D4F8B802406A28B1D4F8B8023A
:1052E0002946426A204690470020EEE72DE9F0412A
:1052F00004460F4615461E462B4632463946D4F81C
:10530000C402FCF76FFA0020BDE8F0812DE9F041FE
:1053100004460D4616461F463B4632462946D4F8FB
:10532000C402FCF7A5FA0020BDE8F08110B50446E0
:10533000012084F89C020020C4F894026060C4F844
:10534000A402D4F8B80208B9032010BDD4F8BC02F6
:1053500048B1D4F8B802406828B12179D4F8B8022D
:105360004268204690474023002211462046FFF71E
:10537000BDFF01214FF4B27001534021001F0151C4
:105380004023002280212046FFF7B0FF0121A184A5
:10539000402121620020D8E7014691F89C020428B0
:1053A00003D191F89D0281F89C020020704710B54E
:1053B0000446D4F8B80208B9032010BD94F89C0242
:1053C000032808D1D4F8B802C06920B1D4F8B802D3
:1053D000C169204688470020EFE70246117400208B
:1053E0007047000070B504460D460120044908705E
:1053F0002946D4F8C402FCF70AFF002070BD000063
:10540000A804002070B504460D46294604F2AA20DF
:1054100000F05FF80120C4F894024FF42C70005B98
:10542000C4F8980294F8AA0200F01F0020B10128E5
:1054300009D0022815D10DE004F2AA21204600F07F
:105440004BF9064616E004F2AA21204600F0ADFA18
:1054500006460FE004F2AA21204600F090F9064625
:1054600008E094F8AA0200F08001204600F005F858
:10547000064600BF00BF304670BD70B504460D46FD
:105480002946D4F8C402FCF71FFA002070BD10B5FD
:105490000446D4F8C402FCF7DEFE002010BD01462D
:1054A00091F89C0281F89D02042081F89C02002062
:1054B00070472DE9F04104460D4616461F463B460F
:1054C00032462946D4F8C402FCF743FA0020BDE86E
:1054D000F08170B505460E46344620782870641C6D
:1054E00020786870641C2046FEF748FF6880641CC2
:1054F000641C2046FEF742FFA880641C641C204602
:10550000FEF73CFFE88070BD38B504460D4600202C
:1055100000900DB9032038BDC4F8B852D4F8B802D1
:10552000C06A30B1D4F8B802C16A68468847C4F886
:10553000CC020020EFE701460020704770B504461A
:105540000D46A88810BBE88800BB688880281DD25B
:10555000A87800F07F0694F89C02032804D129461D
:105560002046FFF76DFB15E084F89E623146204629
:10557000FFF738FF2046FFF7A1FB1EB1022084F899
:105580009C0207E0012084F89C0203E029462046A3
:10559000FFF756FB70BD70B504460D460326D4F8E0
:1055A000B80230B1D4F8B8022946026820469047C4
:1055B0000646304670BD000070B504460E46002514
:1055C000B0783B49087008460078012805DD31466F
:1055D0002046FFF735FB032070BD94F89C0202289B
:1055E00002D0032856D11CE031480078A8B13048D9
:1055F000007860602E4801782046FFF7CCFF054612
:1056000025B131462046FFF71BFB09E02046FFF796
:1056100055FB032084F89C0202E02046FFF74EFB76
:1056200043E02348007870B9022084F89C022048A7
:10563000007860601E4801782046FFF7BCFA2046DB
:10564000FFF73CFB25E01A490978606888421DD0C5
:1056500021792046FFF7AFFA1548007860601448BA
:1056600001782046FFF797FF05465DB13146204699
:10567000FFF7E6FA21792046FFF79DFA022084F829
:105680009C0206E02046FFF719FB02E02046FFF7E8
:1056900015FB0AE031462046FFF7D2FA04480178AC
:1056A0002046FFF788FA032500BF00BF284693E78E
:1056B000FA04002070B505460C466088012804D124
:1056C000C5F8A4022846FFF7F9FA70BD10B50446E4
:1056D0002046FFF7DCFE10BD70B505460C460026DF
:1056E000207800F0600068B1202802D040283ED128
:1056F00000E000BFD5F8B8022146826828469047EE
:10570000064639E060780A282AD2DFE800F01A2439
:10571000291F290A0529150F21462846FFF706FBF0
:1057200023E021462846FFF709FF1EE021462846D0
:10573000FFF742FF064618E021462846FFF7CBFA5E
:1057400013E021462846FFF7FAFB0EE021462846E3
:10575000FFF7B0FF09E021462846FFF73AFA04E0D8
:1057600021462846FFF76CFA00BF00BF04E021463F
:105770002846FFF765FA00BF00BF304670BD2DE92F
:10578000F04105460E464FF000083479307800F0BD
:10579000600068B1202802D0402871D100E000BF2D
:1057A000D5F8B80231468268284690478046F8E02E
:1057B0007078002865D001282FD0032870D195F883
:1057C0009C02022802D0032820D110E054B1802C82
:1057D00008D021462846FFF750FE80212846FFF7D3
:1057E0004CFE03E031462846FFF72AFA13E07088A2
:1057F00040B93CB1802C05D0F08818B92146284624
:10580000FFF73BFE2846FFF759FA04E031462846E9
:10581000FFF716FA00BF00BFBCE095F89C02022813
:1058200002D0032825D110E054B1802C08D02146A5
:105830002846FFF722FE80212846FFF71EFE03E0E0
:1058400031462846FFF7FCF918E0708880B904F06B
:105850007F0018B121462846FFF7E5FB2846FFF7F1
:105860002DFAD5F8B802314682682846904780461E
:1058700004E031462846FFF7E3F900BF00BF89E0A6
:105880008AE095F89C02022802D0032876D126E00F
:105890003CB1802C05D031462846FFF7D1F972E0A3
:1058A00073E004F08000802808D104F07F0000EB52
:1058B000800105F1140000EB810007E004F07F0097
:1058C00000EB800105F5AA7000EB8100074600207F
:1058D0003860022239462846FFF7DFF953E004F02A
:1058E000800080280ED104F00F0000EB800105F14C
:1058F000140000EB8100008A98B931462846FFF772
:105900009FF940E004F00F0000EB800105F5AA705C
:1059100000EB8100008A20B931462846FFF790F954
:1059200031E004F08000802808D104F07F0000EB13
:10593000800105F1140000EB810007E004F07F0016
:1059400000EB800105F5AA7000EB810007460CB161
:10595000802C02D10020386009E021462846FFF75C
:1059600079FC10B10120386001E00020386002228B
:1059700039462846FFF791F905E0FFE7314628460A
:10598000FFF75EF900BF00BF04E031462846FFF78D
:1059900057F900BF00BF04E031462846FFF750F931
:1059A00000BF00BF4046BDE8F08170B505460C461B
:1059B0000026207800F0600030B1202802D0402876
:1059C0002AD100E000BF00BF95F89C02012804D056
:1059D000022803D0032818D101E000BF00BF2079BE
:1059E00001280DDCD5F8B802214682682846904788
:1059F0000646E08840B93EB92846FFF75FF903E064
:105A000021462846FFF71CF904E021462846FFF707
:105A100017F900BF00BF04E021462846FFF710F940
:105A200000BF00BF304670BD70B505460C462DB9AD
:105A30002246064906A0FFF7AFFA04E022460349D2
:105A400003A0FFF7A9FA014870BD0000B0DE0120F5
:105A500056435020436F6E6669670000024612206D
:105A60000880014870470000C804002070B5054652
:105A70000C462DB92246064906A0FFF78DFA04E030
:105A80002246034903A0FFF787FA014870BD0000D2
:105A9000B0DE012056435020496E74657266616322
:105AA000650000000246042008800148704700009D
:105AB000DC04002070B505460C462246024903A0CE
:105AC000FFF76AFA004870BDB0DE012053544D69FB
:105AD00063726F656C656374726F6E6963730000E7
